:400000000010002011000000A5070000A507000008B500F0E1FBC04638B5134C23688022D20213432360182000F08AFE22680F4B134023600E4A0F4B1A6010220E4B1A60D7
:40004000802212060D4B1A60002525600C4A0D4B1A6009200C4900F019FE092000F000FE0A4B1D6038BDC04600010B40FFFFFBFF0600008004010B400802024008010B40FF
:400080000E00008000000240510F00000C020B4010B572B601222F4B1A70002410E02E4863001A195200821891881B195B001A5AC31858880004104300F0F0FB0134E4B2C3
:4000C000012CECD92449081C0C30143100F0CCFBEE221202214B1A60EE22214B1A6099231B04204A1360204A1360204A1360204A136005221F4B1A6001321F4B1A601F4B6A
:400100001978043A0A431A701D4802783C218A4328390A430270197816220A431A708C22184B1A60184A194B1A604022184B1A60184A194B1A60194A194B1A60363A194BF1
:400140001A600322184B1A602132184B1A60FFF763FF10BD1C700F40901700000C0001401000014000500F4010500F4020500F4030500F402000004000800F4000700F40C4
:4001800001700F4000000440900D400008000440000104400200180008010440B60D00000802044008030440000404400804044010B5064C2378002B07D1054B002B02D06C
:4001C000044800E000BF0123237010BD50010020000000008C17000008B5084B002B03D00748084900E000BF07480368002B00D108BD064B002BFBD09847F9E700000000AE
:400200008C17000054010020C80000200000000000B583B062B600F0B5FA062000F0F4F800F04CF900F05AF800200121002200F097F8642000F062FD00200021002200F09D
:400240008FF800F0EFFC00280CD1053000F056FD00F0E8FC002801D100F0B8F900F0E2FC0028FBD000F052F800F0E2F801280AD0684600F0D3F8009BD8B26B46197900F0A7
:4002800005F800F009F900F061F8DAE710B521280CD002D8202805D01AE0232812D0242814D015E0081C00F0C9F911E0094C6070094B9A681002801A596801F0DDF8013072
:4002C000A07005E00122044B9A7001E000F07EF910BDC046CC000020A401002008B50948042100F031FC00F06DFC00F005FC0648042100F047FC00F06BFC00F011FC00F03D
:400300005BFB08BDCC000020B001002000B583B000F0ECFBC30614D500F04EFC04280CD1094B1B78BE2B08D1074BDB78EF2B04D1054B5878997800F085F800F049FC00F031
:40034000EFFB03B000BDC046B001002008B500F0CDFBC30703D500F035FC00F0CDFB08BD38B50D1C141C002803D0002000F036FC02E0012000F032FC002D03D0002000F0E3
:4003800039FC02E0012000F035FC002C03D0002000F03CFC02E0012000F038FC38BDC04670B582B0009101920368002B0BD0041C9D680C2001F01EF96B46021C42CB42C256
:4003C00085602368986002B070BDC04630B583B0041C009101920C2001F00CF9002806D06B46021C22CB22C200238360206003B030BDC04608B5002805D0031C006882683D
:400400001A6001F001F908BD034A002313609B6053601072537270476C01002010B5034B1B68021C12CB12C210BDC0466C010020034B1B68002B01D1012000E0002070470B
:400440006C01002010B582B000900191114B5A7A1B7A9A421BD2FFF7EBFF01280CD00D4C201D0099019AFFF79BFF63689B686360637A013363720AE0064C201C0099019AE6
:40048000FFF7A4FF23686360637A0133637202B010BDC0466C01002010B5074C201CFFF7A9FF637A013B6372FFF7C2FF012802D10022014B5A6010BD6C01002008B5034840
:4004C00000F050FA024800F0B7FD08BD050700004507000008B5012000F0E6F9002000F0EFF9002000F0F8F9002000F001FA032000F004FC002000F0D7F9012000F0E0F929
:40050000002000F0E9F9002000F0F2F9032000F0F5FB002000F0C8F9002000F0D1F9012000F0DAF9002000F0E3F9032000F0E6FB002000F0B9F9002000F0C2F9002000F0BF
:40054000CBF9012000F0D4F9032000F0D7FB08BD08B5002000F0A8F9002000F0B1F9002000F0BAF9012000F0C3F9032000F0C6FB002000F099F9002000F0A2F9012000F045
:40058000ABF9002000F0B4F9032000F0B7FB002000F08AF9012000F093F9002000F09CF9002000F0A5F9032000F0A8FB012000F07BF9002000F084F9002000F08DF9002014
:4005C00000F096F9032000F099FB08BD08B51A4B00221A70DA705A6006E0012000210022FFF7BEFEFFF7B4FF00F0ACF901280FD1114BDB78002BF0D00AE001200021002213
:40060000FFF7AEFEFFF766FF0B4A53680133536000F098F9012803D1074BDB78012BECD0054B5A689A6001221A70002000210022FFF796FE08BDC046A401002038B5041C78
:40064000284B00229A701B78012B45D1254D68686043FF2100F010FF041CAB6883421CD9002001210022FFF77BFE1E4B9D682D1B002406E0FFF76CFF1A4A9368013B936093
:400680000134AC4203D2174B9B78002BF2D0002000210022FFF764FE23E0984221D9002001210022FFF75CFE0E4B9D68651B002406E0FFF70FFF0B4A936801339360013402
:4006C000AC4203D2074B9B78002BF2D0002000210022FFF745FE04E0FFF778FF201CFFF7ADFF38BDA401002008B5002000F0DCF8002000F0E5F8002000F0EEF8002000F0CC
:40070000F7F808BD10B500F027F9FFF7EDFF002000210122FFF724FE002402E0FFF7DAFE0134312CFAD90122054BDA70002000210022FFF715FE00F023F900F0FDF810BDB2
:40074000A401002010B500F071FCFFF7CDFF002000210122FFF704FE002402E0FFF7F8FE0134312CFAD90022054BDA7000200021FFF7F6FD00F06EFC00F052FC10BDC046CC
:40078000A4010020054B01221A7000225A709A70DA70034959609A607047C046A4010020B80B0000FEE7C04608B5031C084A1068C318084A9A1A802A02DC054A136005E052
:4007C00000F0ECFE0C2303600120404208BDC046D0000020E001002070B50F4E0F4D13E029686B68AC68002202E001C901C30432A242FAD1E868002202E0002102C30432FE
:400800008242FAD11035013E002EE9D100F0CCFEFFF7FEFCFEE7C046010000001018000008B500230AE0032B03D89A000A49505800E00A4899000A4A885001332F2BF2D947
:40084000FFF726FC0022074B1A608022D205116801230B43136008BD00000000A507000000000020C0000020F0B50025002711E0BB00C658F3B2FF22964308E06A008A18DC
:400880001478A419527822700135013BDBB2002BF4D10137012FEBD9F0BDC04608B50A1C002100F0BBFE08BD04490A68F7231A40C000EF3B18401043086070470002044026
:4008C00004490A68FD231A404000FB3B18401043086070470002044004490A68FB231A408000F73B184010430860704700020440031C04490868FE22024001201840104336
:400900000860704700020440014B98647047C0460000002010B5041C00F098F9044A1168044B0B40A4051C43146000F093F910BD00E400E0FFFF3FFF0422014B1A607047FE
:4009400000E100E0034B1B685B0701D5012000E00020704700E100E00422014B1A60704780E100E010B5041CFFF7F6FF201CFFF7CBFF0320FFF7CEFFFFF7DEFF10BDC046D8
:400980000422014B1A60704780E200E008B50A2000F066F908BDC04608B500F03BF808BD08B5044A1368802109060B431360FFF7EDFF08BD0000064008B5064B1B78002BFC
:4009C00004D1FFF7E9FF0122024B1A70FFF7E8FF08BDC046780100200A4B1B68DB050DD5094B1B685B0409D4064B1968074A0A401A601A68802149000A431A600222044BCF
:400A00001A6070470000064060000640FFFEFFFF6C00064010B51E4A11680C230B43136000241C4B1C601C4A1C4B1A601C4B1D4A13601D4A14601D491D4A11601D4A1360D4
:400A40001D4B1C600A2000F015F90A20032100F02FF90A20194900F019F9194B1C60194B1C604C22FF32184B1A60184B1C60184B1C60184B1C603C3AFF3A174B1A70174BA0
:400A80001C70174B1C60174B1C60174B1C7010BD700006400000064077080040600006400701008000030640040306401200FE001003064000020640040206406110000046
:400AC000C80E0640880E0640480F0640080F0640C80F0640880F0640B4010020CC010020B8010020BC010020D8010020014B1878C0B27047CC01002010B50A2000F0BAF816
:400B0000064A14780F231C4013780D218B4313700A2000F0A5F8201C10BDC046CC01002010B50A2000F0A6F8064B1C780F229443197820320A401A700A2000F091F8201C8E
:400B400010BDC046CC01002038B5002810D00D1C041C0A2000F08EF8064B1C60064B1D600023064A1360064A13600A2000F078F838BDC046C8010020C4010020B801002067
:400B8000D001002038B500280ED00D1C041C0A2000F070F8054B1C60054B1D600022054B1A600A2000F05CF838BDC046D4010020C0010020BC010020014B18687047C0465C
:400BC000BC0100200022014B1A607047B80100200022014B1A607047BC01002004490A68BF231A4080017F3B18401043086070470001044004490A68FB231A408000F73BF6
:400C000018401043086070470000044004490A68F7231A40C000EF3B184010430860704700000440024B18680006C00F7047C04604000440000000000230800804D0C04640
:400C40000138FDD1C046C046C0467047EFF3108072B6704780F310887047C046C046C0461F2318401E3B8340181C014B1860704700E100E01F2318401E3B8340181C014B23
:400C80001860704780E100E001BE704738B5041C0D1C1F2802D90020FFF7F6FFA400034B9C4664442068256038BDC0464000002070B5041C0E1E032E02D90020FFF7E4FF91
:400CC0001F2C02D90020FFF7DFFF03252540ED000635FFF7BBFFA408A400074B9C46644423680322AA409343AE40351C1D432560FFF7B0FF70BDC04600E400E010B5041C34
:400D000006E0084B1868FFF797FF074B9C46644480231B029C42F4D8024B58686043FFF78BFF10BDD40000200080FFFF08B5034B1B7A5843FFF780FF08BDC046D40000204A
:400D4000F0B557464E46C0B483B0041CFFF77EFF0190E71E2D2F74D83F4B1B78DBB2A34208D33E4B1B78DBB29A463D4B1B78DBB2994631E03B4B1B78DBB2A34208D33A4BAF
:400D80001B78DBB29A46394B1B78DBB2994623E0374B1B78DBB2A34208D3364B1B78DBB29A46354B1B78DBB2994615E0334B1B78DBB2A34208D3324B1B78DBB29A46314BFF
:400DC0001B78DBB2994607E02F4B1B78DBB29A462E4B1B78DBB299462D4BDE5D2F2E09D92A2C07D919222B4B1A600520FFF724FF192503E0274B1D683F231D40AE4206D2EB
:400E0000234BDA5D234B1A600520FFF715FF1F4B9C4664442378DBB21F4A13601F4B52461A601F4B4A461A600520FFF77FFFAE420AD9174BDA5D174B1A600520FFF7FCFE18
:400E400002E00020FFF720FF0198FFF703FF03B00CBC91469A46F0BDC0F1FF0FC1F1FF0FC2F1FF0FC3F1FF0FC4F1FF0FC5F1FF0FC6F1FF0FC7F1FF0FC8F1FF0FC9F1FF0F48
:400E8000CAF1FF0FCBF1FF0FCCF1FF0FCDF1FF0FB81700002CFF0B4028FF0B401CFF0B4020FF0B40034B1868C0231B02184000D00120704700010B4008B5FFF7C7FE044AA1
:400EC0001368C02109020B431360FFF7C3FE08BD00010B4010B5FFF7B9FE08490A68084B1A408024E40122430A600A6813408022120213430B60FFF7ADFE10BD00010B40D2
:400F0000FF3FFFFF70B5061CFFF7A0FE041CFFF7C9FF002803D0FFF7DDFF012500E000250848331C0340084A106808490840184310601368012D01D1FFF7BEFF201CFFF754
:400F400089FE70BD0404040010020B40FBFBFBFF10B5244B1B685B0715D5234B1B685B070ED5224B9969042001401F4C22688A4322609A6982439A61DB68002B00D0984733
:400F80000420FFF7BFFF174B1B685B0518D5164B1B685B0510D5154B99698022D2001140114802688A4302609969114A0A409A611B69002B00D098478020C000FFF7A2FFEE
:400FC000084B1B685B030CD5074B1B685B0304D5064B5B69002B00D098478020C002FFF791FF10BD10020B40E400002080010020FFFBFFFF014B18647047C046000000208D
:4010000010B5041CFFF722FE044A1368C0218B43A4011C431460FFF71DFE10BD00E400E00122014B1A60704700E100E00122014B1A60704780E100E010B5041CFFF7F6FF11
:40104000201CFFF7D7FF0320FFF7DAFFFFF7E8FF10BDC0460122014B1A60704780E200E010B5C04B1B68002B00D09847BE4B1B68DB0702D50022BD4B1A60BD4B1B789B0692
:401080001FD4BC4B1A680223FF331A4219D0B84B1B78DB0709D5B84B1A7802218A431A70197809220A431A7008E0B34B1A7820218A431A70197890220A431A700022AC4BDD
:4010C0001A70AB4B1B789B0600D5B6E1A84B1B78DB0600D48AE1A74B1B689B073ED50222A64B1A60A64A13680F211940136880221202134000D00123CB18A24A1278D2B228
:401100009A4205D99C4A117804230B43137006E09C4A12789B1A9C490A68D31A0B609A4B1A689A4B1A600023994A1360954A1370984B1A68802149020A431A601968964ABA
:401140000A401A608C4B1A7802218A431A70197801220A431A701022854B1A70854B1B681B0737D50822854B1A608C4B1B689B040CD414E08A4B1A688A4909688A188A49DF
:401180000968C9B211701A6801321A60874B1B681B07EFD1814A1168854B0B401360854B1B689B0604D5744A117840230B4313700022814B1A60814A7E4B1A606E4B1A7881
:4011C00020218A431A70197810220A431A70684B10221A70674B1B685B0641D50122784B1A60784B1B68DB060FD50F32684B1A60664B1A68644B1A605F4A117802230B43C8
:40120000137012225A4B1A7024E06F4B1B68644A12689B1A072B03D80422674B1A6011E0082B06D15D4A1368A02109020B43136008E05A4A1368802189010B431360082284
:401240005D4B1A604C4A117820230B4313701122474B1A705D4A494B1A6001225C4B1A605C4B1B681B072AD5574B1B684C4A1068181A0838082802D9002408200EE0012477
:401280000CE0474B1A68474909688A1846490968C9B211701A6801321A6001380028F0D1002C08D03D4A1368802109020B4313600022414B1A6008223E4B1A6023E0454BE3
:4012C0001B685B071FD5384B1B68354A11683E4A126891420DD201213D4A1160304A1168304800684118DBB20B7013680133136006E0FFF771FB204A117840230B43137084
:4013000004222C4B1A60344B1B68DB061FD494E01D4B1A68314B1B689A420CD21A4B1A682F4909688A181278D2B22E490A601A6801321A600BE0FF222A4B1A60114B1B782F
:401340009B0604D40F4A13780133DBB213700C4B1B680F221340082BDAD10132224B1A606BE0C0467C0100208C0E0640880E0640B40100204C0F0640CC010020400F0640D4
:4013800008020640D8010020D0010020B8010020880F064004020640FFFFFEFF60000640BC010020D40100204003064008030640FF5FFFFFC00F0640C80F0640ED0F00001A
:4013C000800E064064000640C0010020FF0F00006C000640CC0F06408C0F0640C4010020C801002040020640800F0640134A13685B005B0813601021114B1970114B1868A6
:40140000114901401960186810490140196000230F490B600F490B600F49104B19601049104B19601049114B19601149114B19601368802109060B43136010BD00000640A7
:40144000B401002060000640FF5FFFFFFFFCFFFFC80F0640880F0640ED0F0000800F0640F3070000C00F0640FF0F0000400F064017030000000F0640002243088B4274D32F
:4014800003098B425FD3030A8B4244D3030B8B4228D3030C8B420DD3FF22090212BA030C8B4202D31212090265D0030B8B4219D300E0090AC30B8B4201D3CB03C01A52412D
:4014C000830B8B4201D38B03C01A5241430B8B4201D34B03C01A5241030B8B4201D30B03C01A5241C30A8B4201D3CB02C01A5241830A8B4201D38B02C01A5241430A8B4204
:4015000001D34B02C01A5241030A8B4201D30B02C01A5241CDD2C3098B4201D3CB01C01A524183098B4201D38B01C01A524143098B4201D34B01C01A524103098B4201D337
:401540000B01C01A5241C3088B4201D3CB00C01A524183088B4201D38B00C01A524143088B4201D34B00C01A5241411A00D20146524110467047FFE701B5002000F00CF8C2
:4015800002BDC0460029F7D003B5FFF775FF0EBC4243891A1847C0467047C046014B18687047C046480100200E4B70B500251E1C0D4CE41AA410A54204D0AB00F3589847D6
:4015C0000135F8E700F012F9084B00251E1C084CE41AA410A54204D0AB00F35898470135F8E770BDF8170000F8170000F81700000018000008B5034B011C186800F05CF820
:4016000008BDC0464801002008B5034B011C186800F00CF808BDC04648010020031C8218934202D019700133FAE7704730B500293ED004390B68002B00DAC9181D4A13685D
:40164000141C002B02D14B60116031E099420DD208680A189A4203D11368C3180B6053684B60216024E08A4203D8131C5A68002AF9D11D685C198C420BD1096869185818D5
:401680001960904214D110685268091819605A600EE08C4202D90C23036009E008680C18944203D114685268001908604A60596030BDC046A0010020032370B5CC1C9C4344
:4016C0000834051C0C2C01D20C2405E0002C03DA0C2300202B6042E08C42F9D3204A1368101C191C002913D00A68121B0DD40B2A02D90A608B181FE08B4202D15A6802601C
:401700001BE04A685A600B1C17E00B1C4968E9E7144E3368002B03D1281C00F025F83060281C211C00F020F8031C421CD0D00322C61C964386420AD11C60181C07210B3063
:401740001A1D8843821A0AD05142995007E0311A281C00F009F8431CBAD0331CECE770BDA00100209C01002038B50023064C051C081C2360FFF718F8431C03D12368002B3F
:4017800000D02B6038BDC046DC0100200000000000300F40000400400F40000406400F4003410F4007106B406F10C020DA80DC2003409F40C0100000030405060708090AFB
:4017C0000B0C0E0F101112131415161718191B1C1D1E1F2021222325262728292A2B2E2F303132333435000043000000F8B5C046F8BC08BC9E467047D90100002108000021
:40180000F8B5C046F8BC08BC9E467047B101000020180000C8000020880000009000000000000000BEEEEEEFE00100200000E02EC05D00001800000000366E01040404007A
:401840000000000000000000000000000000000000000000000000000000000000000000E81700000000000000000000000000000000000000000000000000000000000069
:401880000000000000000000000000000000000000000000000000000000000000000000E80000200000000000000000000000000000000000000000000000000000000020
:4018C00000000000000000000000000000000000000000000000000000000000000000000000000000000000000000000000000000000000000000000000000000000000E8
:4019000000000000000000000000000000000000000000000000000000000000000000000000000000000000000000000000000000000000000000000000000000000000A7
:401940000000000000000000000000000000000000000000000000000000000000000000000000000000000000000000000000000000000000000000000000000000000067
:401980000000000000000000000000000000000000000000000000000000000000000000000000000000000000000000000000000000000000000000000000000000000027
:0200000490303A
:02000000274196
:0200000490402A
:200000000000000000000000000000000000000000000000000000000000000000000000E0
:0200000490501A
:0C000000000204C81193110104D038D490
:0200000490600A
:0100000001FE
:00000001FF