:400000000010002011000000F90A0000F90A000008B500F08BFDC04638B5134C23688022D20213432360182001F00AF822680F4B134023600E4A0F4B1A6010220E4B1A6002
:40004000802212060D4B1A60002525600C4A0D4B1A6009200C4900F099FF092000F080FF0A4B1D6038BDC04600010B40FFFFFBFF0600008004010B400802024008010B40FD
:400080000E00008000000240511200000C020B4010B572B60122304B1A70002410E02F4863001A195200821891881B195B001A5AC31858880004104300F09AFD0134E4B212
:4000C000012CECD92549081C0C30143100F076FDEE221202224B1A60EE22224B1A6099231B04214A1360214A1360214A1360214A13600522204B1A600132204B1A60204BB4
:400100001978043A0A431A701E4802783C218A4328390A430270197816220A431A708C22194B1A60194A1A4B1A604022194B1A60194A1A4B1A601A4A1A4B1A60D8221201AF
:40014000194B1A600322194B1A602132184B1A60FFF762FF10BDC0461C700F40881B00000C0001401000014000500F4010500F4020500F4030500F402000004000800F401D
:4001800000700F4001700F4000000440B60D400008000440000104401200180008010440B66D03000802044008030440000404400804044010B5064C2378002B07D1054B11
:4001C000002B02D0044800E000BF0123237010BD58010020000000005C1B000008B5084B002B03D00748084900E000BF07480368002B00D108BD064B002BFBD09847F9E7D5
:40020000000000005C1B00005C010020C80000200000000000B583B062B600F0E7FB00F025F800F06BFB01F065F800280ED1053000F0E4FE01F05EF8002803D100F0CAF85C
:4002400000F038FA01F056F80028FBD000F0E4FB0128E8D0684600F0D5FB009BD8B26B46197900F069FB00F0FFFBDCE708B5034801F072F8024801F0B1F808BD5905000039
:400280003108000008B5FF20044B196801F0DCFA034B1B785843C0B208BDC046CC0000207401002008B5FF20044B596801F0CCFA034B1B795843C0B208BDC046CC0000200F
:4002C00074010020014B18787047C046CC000020014B18797047C046CC00002008B5012000F08CFC002000F095FC002000F09EFC002000F0A7FC032000F080FE002000F069
:400300007DFC012000F086FC002000F08FFC002000F098FC032000F071FE002000F06EFC002000F077FC012000F080FC002000F089FC032000F062FE002000F05FFC0020D3
:4003400000F068FC002000F071FC012000F07AFC032000F053FE08BD08B5002000F04EFC002000F057FC002000F060FC012000F069FC032000F042FE002000F03FFC0020E2
:4003800000F048FC012000F051FC002000F05AFC032000F033FE002000F030FC012000F039FC002000F042FC002000F04BFC032000F024FE012000F021FC002000F02AFC41
:4003C000002000F033FC002000F03CFC032000F015FE08BD08B500231B4A13721B4A136006E001200021002200F0E0FAFFF776FF00F0A4FF01280FD1134B1B7A002BF0D0F0
:400400000AE001200021002200F0D0FAFFF7A4FF0E4A13680133136000F090FF012803D1094B1B7A012BECD00022074B1A60074B1A68323A1A6001221A720020002100229A
:4004400000F0B4FA08BDC04674010020CC00002070B5041C0022374B5A72374B1B7A012B5ED1354B18686043FF2101F0EDF9041E304B1B689C4229D22E4D0023AB720020FD
:400480000121002200F092FA01232B722D682D1B002406E0FFF760FF264A1368013B13600134AC4203D2234B5B7A002BF2D0214B9B7A012B02D100221E4B1A6000221D4BAE
:4004C0009A720020002100F071FA2EE098422CD9184D0026AE7200200121002200F066FA2E722D68651B002406E0FFF7F7FE114A1368013313600134AC4203D20D4B5B7ABC
:40050000002BF2D00B4B9B7A012B03D10A4B1A68084B1A6000200021002200F047FA04E0FFF758FF201CFFF793FF0022014B9A7270BDC04674010020CC00002008B500202B
:4005400000F05CFB002000F065FB002000F06EFB002000F077FB08BD10B500F0F7FE164C0123A372FFF7EAFF00200021012200F01DFA237A002B05D000240DE0FFF7ECFEE7
:40058000013400E00024312CF8D901220A4B1A7207E0FFF7A3FE0134312CFAD90022064B1A7200200021002200F000FA00F0E2FE00F0BEFE10BDC0467401002008B50120DF
:4005C00000F04CFB002000F055FB002000F05EFB002000F067FB032000F010FD002000F03DFB012000F046FB002000F04FFB002000F058FB032000F001FD002000F02EFBC8
:40060000002000F037FB012000F040FB002000F049FB032000F0F2FC002000F01FFB002000F028FB002000F031FB012000F03AFB032000F0E3FC08BD08B5002000F00EFB6B
:40064000002000F017FB002000F020FB012000F029FB032000F0D2FC002000F0FFFA002000F008FB012000F011FB002000F01AFB032000F0C3FC002000F0F0FA012000F0DC
:40068000F9FA002000F002FB002000F00BFB032000F0B4FC012000F0E1FA002000F0EAFA002000F0F3FA002000F0FCFA032000F0A5FC08BD08B500231B4AD3721B4A536063
:4006C00006E001200021002200F070F9FFF776FF00F074FE01280FD1134BDB7A002BF0D00AE001200021002200F060F9FFF7A4FF0E4A53680133536000F060FE012803D16E
:40070000094BDB7A012BECD00022074B5A60074B5A68323A5A6001225A7200200021002200F044F908BDC04674010020CC00002070B5041C0022354B1A73354B5B7A012B00
:400740005BD1334B58686043FF2101F07DF8041E2E4B5B689C4226D22C4D00236B7300200121002200F022F96D682D1B002406E0FFF762FF254A5368013B53600134AC420F
:4007800003D2224B1B7B002BF2D0204B5B7B012B03D11E4A53683233536000200021002200F004F92EE098422CD9184D00266E7300200121002200F0F9F8EE726D68651B55
:4007C000002406E0FFF7FAFE104A5368013353600134AC4203D20D4B1B7B002BF2D00B4B5B7B012B03D1094A5368323B536000200021002200F0DAF804E0FFF75BFF201C43
:40080000FFF796FF0022014B5A7370BD74010020CC00002008B5002000F020FA002000F029FA002000F032FA002000F03BFA08BD10B500F0CDFD184C01236373FFF7EAFF28
:4008400000200021012200F0B1F8E37A002B04D00AE0FFF7F1FE013400E00024312CF8D901220D4BDA720CE0012B0AD103E0FFF7A5FE013400E00024312CF8D90022064BD9
:40088000DA7200200021002200F090F800F0B4FD00F08EFD10BDC0467401002000B583B000F0C2FAC30620D500F024FB042818D10F4B1B78012B14D10D4BDB78172B10D14B
:4008C0000B4B5878102803D101220A4B1A7004E0112802D10122084B1A70054B997800F0E9F800F013FB00F0B9FA03B000BDC046B80100207D0100208001002008B50B4863
:40090000042100F0BFFA00F0FBFA00F093FA0848042100F0D5FA00F0F9FA00F09FFA054800F0F2F900F0E0F908BDC046D8000020B80100209D08000010B5031C103BDAB2FA
:40094000092A2ED89300174AD3589F46081CFFF77FFD26E0081CFFF7EBFE22E0124C6070FFF790FCA0701CE00F4C6070FFF79AFCA07016E00C4C6070FFF7A4FCA07010E062
:40098000094C6070FFF7A4FCA0700AE0FFF7D6FD07E0FFF73FFF04E0FFF71CFD01E0FFF789FE10BD601B0000D800002038B50D1C141C002803D0002000F0AEFA02E0012011
:4009C00000F0AAFA002D03D0002000F0B1FA02E0012000F0ADFA002C03D0002000F0B4FA02E0012000F0B0FA38BDC0460023034A13609B60024A13607047C046B00100208E
:400A0000B401002010B5034B1B68021C12CB12C210BDC046B0010020034B1B68002B01D1012000E000207047B001002030B583B0041C009101920C2000F0C4FF002806D028
:400A40006B46021C22CB22C200238360206003B030BDC04608B5002805D0031C006882681A6000F0B9FF08BD08B50548FFF7F2FFFFF7D2FF012802D10022024B1A6008BD36
:400A8000B0010020B401002070B582B0009101920368002B0BD0041C9D680C2000F092FF6B46021C42CB42C285602368986002B070BDC04610B582B000900191FFF7ACFFEB
:400AC000012809D00A4C201C0099019AFFF7DCFF23689B68236008E0064C201C0099019AFFF7A4FF2268024B1A6002B010BDC046B4010020B0010020FEE7C04608B5031CC6
:400B0000084A1068C318084A9A1A802A02DC054A136005E000F02AFF0C2303600120404208BDC046DC000020E801002070B50F4E0F4D13E029686B68AC68002202E001C9A6
:400B400001C30432A242FAD1E868002202E0002102C304328242FAD11035013E002EE9D100F00AFFFFF756FBFEE7C04601000000081C000008B500230AE0032B03D89A00A4
:400B80000A49505800E00A4899000A4A885001332F2BF2D9FFF77CFA0022074B1A608022D205116801230B43136008BD00000000F90A000000000020C0000020F0B5002527
:400BC000002711E0BB00C658F3B2FF22964308E06A008A181478A419527822700135013BDBB2002BF4D10137012FEBD9F0BDC04608B50A1C002100F0F9FE08BD031C0449E2
:400C00000868FE220240012018401043086070470002044004490A68FB231A408000F73B18401043086070470002044004490A68FD231A404000FB3B18401043086070473F
:400C40000002044004490A68F7231A40C000EF3B18401043086070470002044004490A68EF231A400001DF3B184010430860704700020440031C04490868FE22024001204C
:400C800018401043086070470000044004490A68DF231A404001BF3B18401043086070470002044004490A68FD231A404000FB3B18401043086070470000044008B50A201C
:400CC00000F04EF908BDC04608B500F041F808BD08B5044A1368802109060B431360FFF7EDFF08BD0000064008B5064B1B78002B04D1FFF7E9FF0122024B1A70FFF7E8FF0D
:400D000008BDC04684010020014B58607047C046840100200A4B1B68DB050DD5094B1B685B0409D4064B1968074A0A401A601A68802149000A431A600222044B1A60704772
:400D40000000064060000640FFFEFFFF6C00064010B51E4A11680C230B43136000241C4B1C601C4A1C4B1A601C4B1D4A13601D4A14601D491D4A11601D4A13601D4B1C60DE
:400D80000A2000F0F7F80A20032100F011F90A20194900F0FBF8194B1C60194B1C604C22FF32184B1A60184B1C60184B1C60184B1C603C3AFF3A174B1A70174B1C70174BAF
:400DC0001C60174B1C60174B1C7010BD700006400000064077080040600006400701008000030640040306401000FE0010030640000206400402064005140000C80E06402F
:400E0000880E0640480F0640080F0640C80F0640880F0640BC010020D4010020C0010020C4010020E0010020014B1878C0B27047D401002010B50A2000F09CF8064A147800
:400E40000F231C4013780D218B4313700A2000F087F8201C10BDC046D401002010B50A2000F088F8064B1C780F229443197820320A401A700A2000F073F8201C10BDC046A6
:400E8000D401002038B5002810D00D1C041C0A2000F070F8064B1C60064B1D600023064A1360064A13600A2000F05AF838BDC046D0010020CC010020C0010020D80100201A
:400EC00038B500280ED00D1C041C0A2000F052F8054B1C60054B1D600022054B1A600A2000F03EF838BDC046DC010020C8010020C4010020014B18687047C046C401002049
:400F00000022014B1A607047C00100200022014B1A607047C401002004490A68BF231A4080017F3B18401043086070470001044004490A68FB231A408000F73B18401043D4
:400F4000086070470000044004490A68F7231A40C000EF3B1840104308607047000004401F2318401E3B8340181C014B1860704700E100E01F2318401E3B8340181C014B87
:400F80001860704780E100E001BE704738B5041C0D1C1F2802D90020FFF7F6FFA400034B9C4664442068256038BDC0464000002070B5041C0E1E032E02D90020FFF7E4FF8E
:400FC0001F2C02D90020FFF7DFFF03252540ED00063500F02FFCA408A400074B9C46644423680322AA409343AE40351C1D43256000F024FC70BDC04600E400E010B5041C5B
:4010000006E0084B186800F00BFC074B9C46644480231B029C42F4D8024B5868604300F0FFFB10BDE00000200080FFFF08B5034B1B7A584300F0F4FB08BDC046E0000020F0
:40104000F0B557464E46C0B483B0041C00F0F2FB0190E71E2D2F74D83F4B1B78DBB2A34208D33E4B1B78DBB29A463D4B1B78DBB2994631E03B4B1B78DBB2A34208D33A4B42
:401080001B78DBB29A46394B1B78DBB2994623E0374B1B78DBB2A34208D3364B1B78DBB29A46354B1B78DBB2994615E0334B1B78DBB2A34208D3324B1B78DBB29A46314BFC
:4010C0001B78DBB2994607E02F4B1B78DBB29A462E4B1B78DBB299462D4BDE5D2F2E09D92A2C07D919222B4B1A60052000F098FB192503E0274B1D683F231D40AE4206D27E
:40110000234BDA5D234B1A60052000F089FB1F4B9C4664442378DBB21F4A13601F4B52461A601F4B4A461A600520FFF77FFFAE420AD9174BDA5D174B1A60052000F070FB40
:4011400002E00020FFF720FF019800F077FB03B00CBC91469A46F0BDC0F1FF0FC1F1FF0FC2F1FF0FC3F1FF0FC4F1FF0FC5F1FF0FC6F1FF0FC7F1FF0FC8F1FF0FC9F1FF0FDB
:40118000CAF1FF0FCBF1FF0FCCF1FF0FCDF1FF0FB01B00002CFF0B4028FF0B401CFF0B4020FF0B40034B1868C0231B02184000D00120704700010B4008B500F03BFB044A37
:4011C0001368C02109020B43136000F037FB08BD00010B4010B500F02DFB08490A68084B1A408024E40122430A600A6813408022120213430B6000F021FB10BD00010B408E
:40120000FF3FFFFF70B5061C00F014FB041CFFF7C9FF002803D0FFF7DDFF012500E000250848331C0340084A106808490840184310601368012D01D1FFF7BEFF201C00F0EC
:40124000FDFA70BD0404040010020B40FBFBFBFF10B5244B1B685B0715D5234B1B685B070ED5224B9969042001401F4C22688A4322609A6982439A61DB68002B00D09847C0
:401280000420FFF7BFFF174B1B685B0518D5164B1B685B0510D5154B99698022D2001140114802688A4302609969114A0A409A611B69002B00D098478020C000FFF7A2FFEB
:4012C000084B1B685B030CD5074B1B685B0304D5064B5B69002B00D098478020C002FFF791FF10BD10020B40F00000208C010020FFFBFFFF024B18680006C00F7047C046B8
:4013000004000440014B18647047C0460000002010B5041C00F08EFA044A1368C0218B43A4011C43146000F089FA10BD00E400E00122014B1A60704700E100E0024B1B683E
:40134000012018407047C04600E100E00122014B1A60704780E100E010B5041CFFF7F6FF201CFFF7CFFF0320FFF7D2FFFFF7E0FF10BDC0460122014B1A60704780E200E051
:40138000014B98647047C0460000002010B5041C00F050FA044A1168044B0B40A4051C43146000F04BFA10BD00E400E0FFFF3FFF0422014B1A60704700E100E0034B1B68D5
:4013C0005B0701D5012000E00020704700E100E00422014B1A60704780E100E010B5041CFFF7F6FF201CFFF7CBFF0320FFF7CEFFFFF7DEFF10BDC0460422014B1A6070473D
:4014000080E200E010B5C04B1B68002B00D09847BE4B1B68DB0702D50022BD4B1A60BD4B1B789B061FD4BC4B1A680223FF331A4219D0B84B1B78DB0709D5B84B1A780221F2
:401440008A431A70197809220A431A7008E0B34B1A7820218A431A70197890220A431A700022AC4B1A70AB4B1B789B0600D5B6E1A84B1B78DB0600D48AE1A74B1B689B0762
:401480003ED50222A64B1A60A64A13680F211940136880221202134000D00123CB18A24A1278D2B29A4205D99C4A117804230B43137006E09C4A12789B1A9C490A68D31AD1
:4014C0000B609A4B1A689A4B1A600023994A1360954A1370984B1A68802149020A431A601968964A0A401A608C4B1A7802218A431A70197801220A431A701022854B1A70A9
:40150000854B1B681B0737D50822854B1A608C4B1B689B040CD414E08A4B1A688A4909688A188A490968C9B211701A6801321A60874B1B681B07EFD1814A1168854B0B40A7
:401540001360854B1B689B0604D5744A117840230B4313700022814B1A60814A7E4B1A606E4B1A7820218A431A70197810220A431A70684B10221A70674B1B685B0641D5A2
:401580000122784B1A60784B1B68DB060FD50F32684B1A60664B1A68644B1A605F4A117802230B43137012225A4B1A7024E06F4B1B68644A12689B1A072B03D80422674B68
:4015C0001A6011E0082B06D15D4A1368A02109020B43136008E05A4A1368802189010B43136008225D4B1A604C4A117820230B4313701122474B1A705D4A494B1A6001222E
:401600005C4B1A605C4B1B681B072AD5574B1B684C4A1068181A0838082802D9002408200EE001240CE0474B1A68474909688A1846490968C9B211701A6801321A60013828
:401640000028F0D1002C08D03D4A1368802109020B4313600022414B1A6008223E4B1A6023E0454B1B685B071FD5384B1B68354A11683E4A126891420DD201213D4A116081
:40168000304A1168304800684118DBB20B7013680133136006E0FFF73DFB204A117840230B43137004222C4B1A60344B1B68DB061FD494E01D4B1A68314B1B689A420CD295
:4016C0001A4B1A682F4909688A181278D2B22E490A601A6801321A600BE0FF222A4B1A60114B1B789B0604D40F4A13780133DBB213700C4B1B680F221340082BDAD1013260
:40170000224B1A606BE0C046880100208C0E0640880E0640BC0100204C0F0640D4010020400F064008020640E0010020D8010020C0010020880F064004020640FFFFFEFFB5
:4017400060000640C4010020DC0100204003064008030640FF5FFFFFC00F0640C80F0640ED0F0000800E064064000640C8010020FF0F00006C000640CC0F06408C0F064054
:40178000CC010020D001002040020640800F0640134A13685B005B0813601021114B1970114B1868114901401960186810490140196000230F490B600F490B600F49104BF0
:4017C00019601049104B19601049114B19601149114B19601368802109060B43136010BD00000640BC01002060000640FF5FFFFFFFFCFFFFC80F0640880F0640ED0F000019
:40180000800F0640F3070000C00F0640FF0F0000400F064017030000000F0640000000000230800804D0C0460138FDD1C046C046C0467047EFF3108072B6704780F31088F2
:401840007047C046C046C046002243088B4274D303098B425FD3030A8B4244D3030B8B4228D3030C8B420DD3FF22090212BA030C8B4202D31212090265D0030B8B4219D3BC
:4018800000E0090AC30B8B4201D3CB03C01A5241830B8B4201D38B03C01A5241430B8B4201D34B03C01A5241030B8B4201D30B03C01A5241C30A8B4201D3CB02C01A5241E5
:4018C000830A8B4201D38B02C01A5241430A8B4201D34B02C01A5241030A8B4201D30B02C01A5241CDD2C3098B4201D3CB01C01A524183098B4201D38B01C01A5241430939
:401900008B4201D34B01C01A524103098B4201D30B01C01A5241C3088B4201D3CB00C01A524183088B4201D38B00C01A524143088B4201D34B00C01A5241411A00D2014647
:40194000524110467047FFE701B5002000F00CF802BDC0460029F7D003B5FFF775FF0EBC4243891A1847C0467047C046014B18687047C046540100200E4B70B500251E1C51
:401980000D4CE41AA410A54204D0AB00F35898470135F8E700F026F9084B00251E1C084CE41AA410A54204D0AB00F35898470135F8E770BDF01B0000F01B0000F01B0000BD
:4019C000F81B000008B5034B011C186800F05CF808BDC0465401002008B5034B011C186800F00CF808BDC04654010020031C8218934202D019700133FAE7704730B5002909
:401A00003ED004390B68002B00DAC9181D4A1368141C002B02D14B60116031E099420DD208680A189A4203D11368C3180B6053684B60216024E08A4203D8131C5A68002A5B
:401A4000F9D11D685C198C420BD10968691858181960904214D110685268091819605A600EE08C4202D90C23036009E008680C18944203D114685268001908604A60596076
:401A800030BDC046AC010020032370B5CC1C9C430834051C0C2C01D20C2405E0002C03DA0C2300202B6042E08C42F9D3204A1368101C191C002913D00A68121B0DD40B2A31
:401AC00002D90A608B181FE08B4202D15A6802601BE04A685A600B1C17E00B1C4968E9E7144E3368002B03D1281C00F025F83060281C211C00F020F8031C421CD0D0032266
:401B0000C61C964386420AD11C60181C07210B301A1D8843821A0AD05142995007E0311A281C00F009F8431CBAD0331CECE770BDAC010020A801002038B50023064C051C88
:401B4000081C2360FEF7DAFF431C03D12368002B00D02B6038BDC046E4010020000000004C090000540900005C0900006809000074090000800900008C09000092090000EE
:401B8000980900009E09000000300F40000400400F40000404400F4005410F406B806F20DA80DC20032007809F80A720C0300000030405060708090A0B0C0E0F10111213A1
:401BC0001415161718191B1C1D1E1F2021222325262728292A2B2E2F303132333435000043000000F8B5C046F8BC08BC9E467047DD010000750B0000F8B5C046F8BC08BC11
:401C00009E467047B5010000181C0000C8000020900000009000000000000000840D0000C30500000101000001EEEE17E80100200000E02EC05D00001800000000366E01D7
:401C4000040404000000000000000000000000000000000000000000000000000000000000000000E01B00000000000000000000000000000000000000000000000000005D
:401C8000000000000000000000000000000000000000000000000000000000000000000000000000F400002000000000000000000000000000000000000000000000000010
:401CC00000000000000000000000000000000000000000000000000000000000000000000000000000000000000000000000000000000000000000000000000000000000E4
:401D000000000000000000000000000000000000000000000000000000000000000000000000000000000000000000000000000000000000000000000000000000000000A3
:401D40000000000000000000000000000000000000000000000000000000000000000000000000000000000000000000000000000000000000000000000000000000000063
:401D80000000000000000000000000000000000000000000000000000000000000000000000000000000000000000000000000000000000000000000000000000000000023
:0200000490303A
:02000000624F4D
:0200000490402A
:200000000000000000000000000000000000000000000000000000000000000000000000E0
:0200000490501A
:0C000000000204C81193110104D173E246
:0200000490600A
:0100000001FE
:00000001FF