:400000000010002011000000D50A0000D50A000008B500F079FDC04638B5134C23688022D20213432360182000F0F2FF22680F4B134023600E4A0F4B1A6010220E4B1A606E
:40004000802212060D4B1A60002525600C4A0D4B1A6009200C4900F081FF092000F068FF0A4B1D6038BDC04600010B40FFFFFBFF0600008004010B400802024008010B402D
:400080000E00008000000240211200000C020B4010B572B60122304B1A70002410E02F4863001A195200821891881B195B001A5AC31858880004104300F088FD0134E4B254
:4000C000012CECD92549081C0C30143100F064FDEE221202224B1A60EE22224B1A6099231B04214A1360214A1360214A1360214A13600522204B1A600132204B1A60204BC6
:400100001978043A0A431A701E4802783C218A4328390A430270197816220A431A708C22194B1A60194A1A4B1A604022194B1A60194A1A4B1A601A4A1A4B1A60D8221201AF
:40014000194B1A600322194B1A602132184B1A60FFF762FF10BDC0461C700F40581B00000C0001401000014000500F4010500F4020500F4030500F402000004000800F404D
:4001800000700F4001700F4000000440B60D400008000440000104401200180008010440B66D03000802044008030440000404400804044010B5064C2378002B07D1054B11
:4001C000002B02D0044800E000BF0123237010BD50010020000000002C1B000008B5084B002B03D00748084900E000BF07480368002B00D108BD064B002BFBD09847F9E70D
:40020000000000002C1B000054010020C80000200000000000B583B062B600F043FC062000F0E6FB00F038F800F0F6FA00200121002200F089FB642000F0C8FE00200021A1
:40024000002200F081FB01F03DF800280ED1053000F0BCFE01F036F8002803D100F0DAF800F032FA01F02EF80028FBD000F0ECFA0AE0684600F0C6FB009BD8B26B4619795A
:4002800000F020FB00F0FCFB00F0C6FB0128F0D100F00EFBD7E7C04608B5034801F044F8024801F083F808BDA90300005D06000008B5012000F090FC002000F099FC002016
:4002C00000F0A2FC002000F0ABFC032000F07EFE002000F081FC012000F08AFC002000F093FC002000F09CFC032000F06FFE002000F072FC002000F07BFC012000F084FCA9
:40030000002000F08DFC032000F060FE002000F063FC002000F06CFC002000F075FC012000F07EFC032000F051FE08BD08B5002000F052FC002000F05BFC002000F064FCA7
:40034000012000F06DFC032000F040FE002000F043FC002000F04CFC012000F055FC002000F05EFC032000F031FE002000F034FC012000F03DFC002000F046FC002000F011
:400380004FFC032000F022FE012000F025FC002000F02EFC002000F037FC002000F040FC032000F013FE08BD10B500F0B7FF184B01229A709B79002B0ED10020002100F091
:4003C000C3FA002402E0FFF7B1FF0134312CFAD901220F4B9A7110E0012B0ED100200021012200F0B1FA002402E0FFF761FF0134312CFAD90022064B9A710020002100220B
:4004000000F0A2FA00F09EFF00F07AFF10BDC046A401002008B51B4B00221A709A719A6006E001200021002200F08EFAFFF740FF00F06CFF01280FD1124B9B79002BF0D017
:400440000AE001200021002200F07EFAFFF76EFF0C4A93680133936000F058FF012803D1084B9B79012BECD000200021002200F06BFA044B0022DA609A68323A9A6001226A
:400480001A7008BDA401002038B5041C344B00221A711B78012B5AD1314DA8686043FF2101F0BAF9041CEB68834227D900200121002200F049FA2A4B00229A7001329A7162
:4004C000DD682D1B002406E0FFF730FF244AD368013BD3600134AC4203D2214B1B79002BF2D01F4B9B78012B02D100221C4BDA6000200021002200F027FA2DE098422BD9A5
:4005000000200121002200F01FFA154B00229A709A71DD68651B002406E0FFF7C9FE104AD3680133D3600134AC4203D20C4B1B79002BF2D00A4B9B78012B02D1084B9A68A3
:40054000DA6000200021002200F0FEF904E0FFF761FF201CFFF798FF0022014B9A7038BDA401002008B5012000F066FB002000F06FFB002000F078FB002000F081FB0320E7
:4005800000F024FD002000F057FB012000F060FB002000F069FB002000F072FB032000F015FD002000F048FB002000F051FB012000F05AFB002000F063FB032000F006FDAD
:4005C000002000F039FB002000F042FB002000F04BFB012000F054FB032000F0F7FC08BD08B5002000F028FB002000F031FB002000F03AFB012000F043FB032000F0E6FC34
:40060000002000F019FB002000F022FB012000F02BFB002000F034FB032000F0D7FC002000F00AFB012000F013FB002000F01CFB002000F025FB032000F0C8FC012000F09A
:40064000FBFA002000F004FB002000F00DFB002000F016FB032000F0B9FC08BD10B500F09FFE184B0122DA70DB79002B0ED10020002100F069F9002402E0FFF7B1FF0134BC
:40068000312CFAD901220F4BDA7110E0012B0ED100200021012200F057F9002402E0FFF761FF0134312CFAD90022064BDA7100200021002200F048F900F086FE00F060FECE
:4006C00010BDC046A401002008B51B4B00221A70DA711A6106E001200021002200F034F9FFF740FF00F052FE01280FD1124BDB79002BF0D00AE001200021002200F024F9F1
:40070000FFF76EFF0C4A13690133136100F03EFE012803D1084BDB79012BECD000200021002200F011F9044B00225A611A69323A1A6101225A7008BDA401002038B5041CAD
:40074000344B00225A715B78012B5AD1314D28696043FF2101F060F8041C6B69834226D900200121002200F0EFF82A4B0022DA705D692D1B002406E0FFF732FF254A53698A
:40078000013B53610134AC4203D2224B5B79002BF2D0204BDB78012B03D11E4A53693233536100200021002200F0CEF82EE098422CD900200121002200F0C6F8154B00228E
:4007C000DA70DA715D69651B002406E0FFF7CAFE104A5369013353610134AC4203D20D4B5B79002BF2D00B4BDB78012B03D1094A5369323B536100200021002200F0A4F87F
:4008000004E0FFF761FF201CFFF798FF0022014BDA7038BDA401002008B50948042100F019FB00F055FB00F0EDFA0648042100F02FFB00F053FB00F0F9FA00F043FA08BD55
:40084000CC000020BC01002000B583B000F0D4FAC30629D500200021012200F075F800F031FB042817D1114B1B78BE2B0ED10F4BDB78EF2B0AD100200121002200F064F848
:400880000A4B5878997800F0D1F804E001200021002200F059F800F021FB00F0C7FA00200021002200F050F803B000BDBC01002008B500F0A1FAC30703D500F009FB00F04D
:4008C000A1FA08BD10B5031C103BDAB2092A34D893001A4AD3589F46081CFFF7D5FD2CE0081CFFF72BFF28E0154C6070154BDA681002801A996800F08FFF0130A070FFF71E
:40090000D7FF1AE00E4C60700E4B5A691002801A196900F081FF0130A070FFF7C9FF0CE00122084B1A7108E00122064B5A7104E0FFF770FD01E0FFF7C7FE10BD301B0000F5
:40094000CC000020A401002038B50D1C141C002803D0002000F0C8FA02E0012000F0C4FA002D03D0002000F0CBFA02E0012000F0C7FA002C03D0002000F0CEFA02E001209F
:4009800000F0CAFA38BDC04670B582B0009101920368002B0BD0041C9D680C2000F0FAFF6B46021C42CB42C285602368986002B070BDC04630B583B0041C009101920C20AD
:4009C00000F0E8FF002806D06B46021C22CB22C200238360206003B030BDC04608B5002805D0031C006882681A6000F0DDFF08BD034A002313609B60536010725372704791
:400A00006C01002010B5034B1B68021C12CB12C210BDC0466C010020034B1B68002B01D1012000E0002070476C01002010B582B000900191114B5A7A1B7A9A421BD2FFF794
:400A4000EBFF01280CD00D4C201D0099019AFFF79BFF63689B686360637A013363720AE0064C201C0099019AFFF7A4FF23686360637A0133637202B010BDC0466C0100202B
:400A800010B5074C201CFFF7A9FF637A013B6372FFF7C2FF012802D10022014B5A6010BD6C010020084B01221A705A7000229A70DA701A715A719A71DA7104499960DA60B5
:400AC000034919615A617047A4010020840D0000C3050000FEE7C04608B5031C084A1068C318084A9A1A802A02DC054A136005E000F024FF0C2303600120404208BDC046EC
:400B0000D0000020F001002070B50F4E0F4D13E029686B68AC68002202E001C901C30432A242FAD1E868002202E0002102C304328242FAD11035013E002EE9D100F004FF96
:400B4000FFF768FBFEE7C04601000000D41B000008B500230AE0032B03D89A000A49505800E00A4899000A4A885001332F2BF2D9FFF78EFA0022074B1A608022D20511682B
:400B800001230B43136008BD00000000D50A000000000020C0000020F0B50025002711E0BB00C658F3B2FF22964308E06A008A181478A419527822700135013BDBB2002B8F
:400BC000F4D10137012FEBD9F0BDC04608B50A1C002100F0F3FE08BD04490A68EF231A400001DF3B184010430860704700020440031C04490868FE22024001201840104347
:400C0000086070470000044004490A68DF231A404001BF3B18401043086070470002044004490A68FD231A404000FB3B184010430860704700000440031C04490868FE2232
:400C40000240012018401043086070470002044004490A68FB231A408000F73B18401043086070470002044004490A68FD231A404000FB3B18401043086070470002044049
:400C800004490A68F7231A40C000EF3B18401043086070470002044008B50A2000F048F908BDC04608B500F03BF808BD08B5044A1368802109060B431360FFF7EDFF08BDE1
:400CC0000000064008B5064B1B78002B04D1FFF7E9FF0122024B1A70FFF7E8FF08BDC046780100200A4B1B68DB050DD5094B1B685B0409D4064B1968074A0A401A601A68DE
:400D0000802149000A431A600222044B1A6070470000064060000640FFFEFFFF6C00064010B51E4A11680C230B43136000241C4B1C601C4A1C4B1A601C4B1D4A13601D4A39
:400D400014601D491D4A11601D4A13601D4B1C600A2000F0F7F80A20012100F011F90A20194900F0FBF8194B1C60194B1C604C22FF32184B1A60184B1C60184B1C60184BE8
:400D80001C603C3AFF3A174B1A70174B1C70174B1C60174B1C60174B1C7010BD700006400000064077080040600006400701008000030640040306401000FE0010030640D1
:400DC0000002064004020640D5130000C80E0640880E0640480F0640080F0640C80F0640880F0640C0010020D8010020C4010020C8010020E4010020014B1878C0B27047D9
:400E0000D801002010B50A2000F09CF8064A14780F231C4013780D218B4313700A2000F087F8201C10BDC046D801002010B50A2000F088F8064B1C780F2294431978203202
:400E40000A401A700A2000F073F8201C10BDC046D801002038B5002810D00D1C041C0A2000F070F8064B1C60064B1D600023064A1360064A13600A2000F05AF838BDC046A6
:400E8000D4010020D0010020C4010020DC01002038B500280ED00D1C041C0A2000F052F8054B1C60054B1D600022054B1A600A2000F03EF838BDC046E0010020CC0100200C
:400EC000C8010020014B18687047C046C80100200022014B1A607047C40100200022014B1A607047C801002004490A68BF231A4080017F3B18401043086070470001044046
:400F000004490A68FB231A408000F73B18401043086070470000044004490A68F7231A40C000EF3B1840104308607047000004401F2318401E3B8340181C014B186070472A
:400F400000E100E01F2318401E3B8340181C014B1860704780E100E001BE704738B5041C0D1C1F2802D90020FFF7F6FFA400034B9C4664442068256038BDC046400000204D
:400F800070B5041C0E1E032E02D90020FFF7E4FF1F2C02D90020FFF7DFFF03252540ED00063500F02FFCA408A400074B9C46644423680322AA409343AE40351C1D43256011
:400FC00000F024FC70BDC04600E400E010B5041C06E0084B186800F00BFC074B9C46644480231B029C42F4D8024B5868604300F0FFFB10BDD40000200080FFFF08B5034B2B
:401000001B7A584300F0F4FB08BDC046D4000020F0B557464E46C0B483B0041C00F0F2FB0190E71E2D2F74D83F4B1B78DBB2A34208D33E4B1B78DBB29A463D4B1B78DBB28F
:40104000994631E03B4B1B78DBB2A34208D33A4B1B78DBB29A46394B1B78DBB2994623E0374B1B78DBB2A34208D3364B1B78DBB29A46354B1B78DBB2994615E0334B1B78A7
:40108000DBB2A34208D3324B1B78DBB29A46314B1B78DBB2994607E02F4B1B78DBB29A462E4B1B78DBB299462D4BDE5D2F2E09D92A2C07D919222B4B1A60052000F098FB17
:4010C000192503E0274B1D683F231D40AE4206D2234BDA5D234B1A60052000F089FB1F4B9C4664442378DBB21F4A13601F4B52461A601F4B4A461A600520FFF77FFFAE42BA
:401100000AD9174BDA5D174B1A60052000F070FB02E00020FFF720FF019800F077FB03B00CBC91469A46F0BDC0F1FF0FC1F1FF0FC2F1FF0FC3F1FF0FC4F1FF0FC5F1FF0F5D
:40114000C6F1FF0FC7F1FF0FC8F1FF0FC9F1FF0FCAF1FF0FCBF1FF0FCCF1FF0FCDF1FF0F7C1B00002CFF0B4028FF0B401CFF0B4020FF0B40034B1868C0231B02184000D0E6
:401180000120704700010B4008B500F03BFB044A1368C02109020B43136000F037FB08BD00010B4010B500F02DFB08490A68084B1A408024E40122430A600A681340802273
:4011C000120213430B6000F021FB10BD00010B40FF3FFFFF70B5061C00F014FB041CFFF7C9FF002803D0FFF7DDFF012500E000250848331C0340084A1068084908401843FD
:4012000010601368012D01D1FFF7BEFF201C00F0FDFA70BD0404040010020B40FBFBFBFF10B5244B1B685B0715D5234B1B685B070ED5224B9969042001401F4C22688A4398
:4012400022609A6982439A61DB68002B00D098470420FFF7BFFF174B1B685B0518D5164B1B685B0510D5154B99698022D2001140114802688A4302609969114A0A409A611E
:401280001B69002B00D098478020C000FFF7A2FF084B1B685B030CD5074B1B685B0304D5064B5B69002B00D098478020C002FFF791FF10BD10020B40E40000208001002012
:4012C000FFFBFFFF024B18680006C00F7047C04604000440014B18647047C0460000002010B5041C00F08EFA044A1368C0218B43A4011C43146000F089FA10BD00E400E059
:401300000122014B1A60704700E100E0024B1B68012018407047C04600E100E00122014B1A60704780E100E010B5041CFFF7F6FF201CFFF7CFFF0020FFF7D2FFFFF7E0FF18
:4013400010BDC0460122014B1A60704780E200E0014B98647047C0460000002010B5041C00F050FA044A1168044B0B40A4051C43146000F04BFA10BD00E400E0FFFF3FFF95
:401380000422014B1A60704700E100E0034B1B685B0701D5012000E00020704700E100E00422014B1A60704780E100E010B5041CFFF7F6FF201CFFF7CBFF0020FFF7CEFF94
:4013C000FFF7DEFF10BDC0460422014B1A60704780E200E010B5C04B1B68002B00D09847BE4B1B68DB0702D50022BD4B1A60BD4B1B789B061FD4BC4B1A680223FF331A42E1
:4014000019D0B84B1B78DB0709D5B84B1A7802218A431A70197809220A431A7008E0B34B1A7820218A431A70197890220A431A700022AC4B1A70AB4B1B789B0600D5B6E168
:40144000A84B1B78DB0600D48AE1A74B1B689B073ED50222A64B1A60A64A13680F211940136880221202134000D00123CB18A24A1278D2B29A4205D99C4A117804230B4326
:40148000137006E09C4A12789B1A9C490A68D31A0B609A4B1A689A4B1A600023994A1360954A1370984B1A68802149020A431A601968964A0A401A608C4B1A7802218A43B8
:4014C0001A70197801220A431A701022854B1A70854B1B681B0737D50822854B1A608C4B1B689B040CD414E08A4B1A688A4909688A188A490968C9B211701A6801321A60DD
:40150000874B1B681B07EFD1814A1168854B0B401360854B1B689B0604D5744A117840230B4313700022814B1A60814A7E4B1A606E4B1A7820218A431A70197810220A43F1
:401540001A70684B10221A70674B1B685B0641D50122784B1A60784B1B68DB060FD50F32684B1A60664B1A68644B1A605F4A117802230B43137012225A4B1A7024E06F4B48
:401580001B68644A12689B1A072B03D80422674B1A6011E0082B06D15D4A1368A02109020B43136008E05A4A1368802189010B43136008225D4B1A604C4A117820230B43D3
:4015C00013701122474B1A705D4A494B1A6001225C4B1A605C4B1B681B072AD5574B1B684C4A1068181A0838082802D9002408200EE001240CE0474B1A68474909688A1823
:4016000046490968C9B211701A6801321A6001380028F0D1002C08D03D4A1368802109020B4313600022414B1A6008223E4B1A6023E0454B1B685B071FD5384B1B68354AA4
:4016400011683E4A126891420DD201213D4A1160304A1168304800684118DBB20B7013680133136006E0FFF73DFB204A117840230B43137004222C4B1A60344B1B68DB0698
:401680001FD494E01D4B1A68314B1B689A420CD21A4B1A682F4909688A181278D2B22E490A601A6801321A600BE0FF222A4B1A60114B1B789B0604D40F4A13780133DBB288
:4016C00013700C4B1B680F221340082BDAD10132224B1A606BE0C0467C0100208C0E0640880E0640C00100204C0F0640D8010020400F064008020640E4010020DC01002005
:40170000C4010020880F064004020640FFFFFEFF60000640C8010020E00100204003064008030640FF5FFFFFC00F0640C80F0640ED0F0000800E064064000640CC01002041
:40174000FF0F00006C000640CC0F06408C0F0640D0010020D401002040020640800F0640134A13685B005B0813601021114B1970114B18681149014019601868104901403B
:40178000196000230F490B600F490B600F49104B19601049104B19601049114B19601149114B19601368802109060B43136010BD00000640C001002060000640FF5FFFFF6F
:4017C000FFFCFFFFC80F0640880F0640ED0F0000800F0640F3070000C00F0640FF0F0000400F064017030000000F0640000000000230800804D0C0460138FDD1C046C0465D
:40180000C0467047EFF3108072B6704780F310887047C046C046C046002243088B4274D303098B425FD3030A8B4244D3030B8B4228D3030C8B420DD3FF22090212BA030CB0
:401840008B4202D31212090265D0030B8B4219D300E0090AC30B8B4201D3CB03C01A5241830B8B4201D38B03C01A5241430B8B4201D34B03C01A5241030B8B4201D30B036D
:40188000C01A5241C30A8B4201D3CB02C01A5241830A8B4201D38B02C01A5241430A8B4201D34B02C01A5241030A8B4201D30B02C01A5241CDD2C3098B4201D3CB01C01A69
:4018C000524183098B4201D38B01C01A524143098B4201D34B01C01A524103098B4201D30B01C01A5241C3088B4201D3CB00C01A524183088B4201D38B00C01A5241430850
:401900008B4201D34B00C01A5241411A00D20146524110467047FFE701B5002000F00CF802BDC0460029F7D003B5FFF775FF0EBC4243891A1847C0467047C046014B1868D3
:401940007047C046480100200E4B70B500251E1C0D4CE41AA410A54204D0AB00F35898470135F8E700F024F9084B00251E1C084CE41AA410A54204D0AB00F3589847013529
:40198000F8E770BDBC1B0000BC1B0000BC1B0000C41B000008B5034B011C186800F05CF808BDC0464801002008B5034B011C186800F00CF808BDC04648010020031C82180E
:4019C000934202D019700133FAE7704730B500293ED004390B68002B00DAC9181D4A1368141C002B02D14B60116031E099420DD208680A189A4203D11368C3180B60536884
:401A00004B60216024E08A4203D8131C5A68002AF9D11D685C198C420BD10968691858181960904214D110685268091819605A600EE08C4202D90C23036009E008680C1888
:401A4000944203D114685268001908604A60596030BDC046A0010020032370B5CC1C9C430834051C0C2C01D20C2405E0002C03DA0C2300202B6042E08C42F9D3204A1368DB
:401A8000101C191C002913D00A68121B0DD40B2A02D90A608B181FE08B4202D15A6802601BE04A685A600B1C17E00B1C4968E9E7144E3368002B03D1281C00F025F830604F
:401AC000281C211C00F020F8031C421CD0D00322C61C964386420AD11C60181C07210B301A1D8843821A0AD05142995007E0311A281C00F009F8431CBAD0331CECE770BD17
:401B0000A00100209C01002038B50023064C051C081C2360FEF7E0FF431C03D12368002B00D02B6038BDC046E801002000000000D8080000E0080000E8080000040900001C
:401B40003A0900003A0900002009000028090000300900003609000000300F40000400400F40000404400F4004410F406B406F10DA80DC20034007109F50C0300304050605
:401B80000708090A0B0C0E0F101112131415161718191B1C1D1E1F2021222325262728292A2B2E2F303132333435000043000000F8B5C046F8BC08BC9E467047DD01000060
:401BC000510B0000F8B5C046F8BC08BC9E467047B5010000E81B0000C800002088000000A00000000000000000000000BEEEEEEFF00100200000E02EC05D0000180000001D
:401C000000366E01040404000000000000000000000000000000000000000000000000000000000000000000AC1B000000000000000000000000000000000000000000002C
:401C400000000000000000000000000000000000000000000000000000000000000000000000000000000000E800002000000000000000000000000000000000000000005C
:401C80000000000000000000000000000000000000000000000000000000000000000000000000000000000000000000000000000000000000000000000000000000000024
:401CC00000000000000000000000000000000000000000000000000000000000000000000000000000000000000000000000000000000000000000000000000000000000E4
:401D000000000000000000000000000000000000000000000000000000000000000000000000000000000000000000000000000000000000000000000000000000000000A3
:401D40000000000000000000000000000000000000000000000000000000000000000000000000000000000000000000000000000000000000000000000000000000000063
:0200000490303A
:020000004DC1F0
:0200000490402A
:200000000000000000000000000000000000000000000000000000000000000000000000E0
:0200000490501A
:0C000000000204C81193110104D15F54E8
:0200000490600A
:0100000001FE
:00000001FF