:4000000000100020110000002D0B00002D0B000008B500F0A5FDC04638B5134C23688022D20213432360182001F024F822680F4B134023600E4A0F4B1A6010220E4B1A6064
:40004000802212060D4B1A60002525600C4A0D4B1A6009200C4900F0B3FF092000F09AFF0A4B1D6038BDC04600010B40FFFFFBFF0600008004010B400802024008010B40C9
:400080000E00008000000240851200000C020B4010B572B60122304B1A70002410E02F4863001A195200821891881B195B001A5AC31858880004104300F0B4FD0134E4B2C4
:4000C000012CECD92549081C0C30143100F090FDEE221202224B1A60EE22224B1A6099231B04214A1360214A1360214A1360214A13600522204B1A600132204B1A60204B9A
:400100001978043A0A431A701E4802783C218A4328390A430270197816220A431A708C22194B1A60194A1A4B1A604022194B1A60194A1A4B1A601A4A1A4B1A60D8221201AF
:40014000194B1A600322194B1A602132184B1A60FFF762FF10BDC0461C700F40B81B00000C0001401000014000500F4010500F4020500F4030500F402000004000800F40ED
:4001800000700F4001700F4000000440B60D400008000440000104401200180008010440B66D03000802044008030440000404400804044010B5064C2378002B07D1054B11
:4001C000002B02D0044800E000BF0123237010BD58010020000000008C1B000008B5084B002B03D00748084900E000BF07480368002B00D108BD064B002BFBD09847F9E7A5
:40020000000000008C1B00005C010020C80000200000000000B583B062B600F001FC00F03BF800F07BFB01F07FF800280ED1053000F0FEFE01F078F8002803D100F0E0F887
:4002400000F04AFA01F070F80028FBD000F0FEFB012812D00E4B1B78002B0ED10D4B1B78002B0AD1684600F0E7FB009BD8B26B46197900F07BFB00F011FC322000F0D8FEC0
:4002800000F06AFB0023024A1370024A1370CAE77D0100207F01002008B5034801F076F8024801F0B5F808BD7D0500005108000008B5FF20044B196801F0DEFA034B1B78F4
:4002C0005843C0B208BDC046CC0000207401002008B5FF20044B596801F0CEFA034B1B795843C0B208BDC046CC00002074010020014B18787047C046CC000020014B187963
:400300007047C046CC00002008B5012000F090FC002000F099FC002000F0A2FC002000F0ABFC032000F084FE002000F081FC012000F08AFC002000F093FC002000F09CFCB0
:40034000032000F075FE002000F072FC002000F07BFC012000F084FC002000F08DFC032000F066FE002000F063FC002000F06CFC002000F075FC012000F07EFC032000F04B
:4003800057FE08BD08B5002000F052FC002000F05BFC002000F064FC012000F06DFC032000F046FE002000F043FC002000F04CFC012000F055FC002000F05EFC032000F0DA
:4003C00037FE002000F034FC012000F03DFC002000F046FC002000F04FFC032000F028FE012000F025FC002000F02EFC002000F037FC002000F040FC032000F019FE08BD6E
:4004000008B500231B4A13721B4A136006E001200021002200F0E4FAFFF776FF00F0A8FF01280FD1134B1B7A002BF0D00AE001200021002200F0D4FAFFF7A4FF0E4A1368A1
:400440000133136000F094FF012803D1094B1B7A012BECD00022074B1A60074B1A68323A1A6001221A7200200021002200F0B8FA08BDC04674010020CC00002070B5041C97
:40048000354B1B7A012B5ED1334B18686043FF2101F0F2F9041E314B1B689C4229D22F4D00236B7200200121002200F099FA01232B722D682D1B002406E0FFF763FF274A61
:4004C0001368013B13600134AC4203D2234B5B7A002BF2D0214B5B7A012B02D100221F4B1A6000221D4B5A720020002100F078FA2EE098422CD9194D00266E7200200121D0
:40050000002200F06DFA2E722D68651B002406E0FFF7FAFE114A1368013313600134AC4203D20E4B5B7A002BF2D00C4B5B7A012B03D1094B1A68094B1A60002000210022D2
:4005400000F04EFA04E0FFF75BFF201CFFF796FF0022024B5A7270BDCC0000207401002008B5002000F064FB002000F06DFB002000F076FB002000F07FFB08BD10B500F036
:40058000FFFE164C01236372FFF7EAFF00200021012200F025FA237A002B05D000240DE0FFF7F0FE013400E00024312CF8D901220A4B1A7207E0FFF7A7FE0134312CFAD9AD
:4005C0000022064B1A7200200021002200F008FA00F0EAFE00F0C6FE10BDC0467401002008B5012000F054FB002000F05DFB002000F066FB002000F06FFB032000F018FD1B
:40060000002000F045FB012000F04EFB002000F057FB002000F060FB032000F009FD002000F036FB002000F03FFB012000F048FB002000F051FB032000F0FAFC002000F0D6
:4006400027FB002000F030FB002000F039FB012000F042FB032000F0EBFC08BD08B5002000F016FB002000F01FFB002000F028FB012000F031FB032000F0DAFC002000F05B
:4006800007FB002000F010FB012000F019FB002000F022FB032000F0CBFC002000F0F8FA012000F001FB002000F00AFB002000F013FB032000F0BCFC012000F0E9FA0020D0
:4006C00000F0F2FA002000F0FBFA002000F004FB032000F0ADFC08BD08B500231B4A93721B4A536006E001200021002200F078F9FFF776FF00F07CFE01280FD1134B9B7A2B
:40070000002BF0D00AE001200021002200F068F9FFF7A4FF0E4A53680133536000F068FE012803D1094B9B7A012BECD00022074B5A60074B5A68323A5A6001225A72002081
:400740000021002200F04CF908BDC04674010020CC00002070B5041C344B5B7A012B5BD1324B58686043FF2101F086F8041E304B5B689C4226D22E4D0023EB7200200121E2
:40078000002200F02DF96D682D1B002406E0FFF765FF274A5368013B53600134AC4203D2234BDB7A002BF2D0214BDB7A012B03D11F4A53683233536000200021002200F06D
:4007C0000FF92EE098422CD9194D0026EE7200200121002200F004F9AE726D68651B002406E0FFF7FDFE124A5368013353600134AC4203D20E4BDB7A002BF2D00C4BDB7A1A
:40080000012B03D10A4A5368323B536000200021002200F0E5F804E0FFF75EFF201CFFF799FF0022024BDA7270BDC046CC0000207401002008B5002000F02AFA002000F0E8
:4008400033FA002000F03CFA002000F045FA08BD10B500F0D7FD184C0123E372FFF7EAFF00200021012200F0BBF8A37A002B04D00AE0FFF7F3FE013400E00024312CF8D951
:4008800001220D4B9A720CE0012B0AD103E0FFF7A7FE013400E00024312CF8D90022064B9A7200200021002200F09AF800F0BEFD00F098FD10BDC0467401002000B583B0F5
:4008C00000F0CCFAC30620D500F02EFB042818D10F4B1B78012B14D10D4BDB78172B10D10B4B5878102803D101220A4B1A7004E0112802D10122084B1A70054B997800F015
:40090000F3F800F01DFB00F0C3FA03B000BDC046B40100207D0100207F01002008B50B48042100F0C9FA00F005FB00F09DFA0848042100F0DFFA00F003FB00F0A9FA054823
:4009400000F0FCF900F0EAF908BDC046D8000020B4010020BD08000008B500F07FFAC30703D500F0E7FA00F07FFA08BD10B5031C103BDAB2092A2ED89300174AD3589F46A3
:40098000081CFFF77BFD26E0081CFFF7E3FE22E0124C6070FFF78CFCA0701CE00F4C6070FFF796FCA07016E00C4C6070FFF7A0FCA07010E0094C6070FFF7A0FCA0700AE0C6
:4009C000FFF7CEFD07E0FFF735FF04E0FFF718FD01E0FFF781FE10BD901B0000D800002038B50D1C141C002803D0002000F0AEFA02E0012000F0AAFA002D03D0002000F0D0
:400A0000B1FA02E0012000F0ADFA002C03D0002000F0B4FA02E0012000F0B0FA38BDC0460023034A13609B60024A13607047C046AC010020B001002010B5034B1B68021C70
:400A400012CB12C210BDC046AC010020034B1B68002B01D1012000E000207047AC01002030B583B0041C009101920C2000F0C2FF002806D06B46021C22CB22C200238360D5
:400A8000206003B030BDC04608B5002805D0031C006882681A6000F0B7FF08BD08B50548FFF7F2FFFFF7D2FF012802D10022024B1A6008BDAC010020B001002070B582B0A9
:400AC000009101920368002B0BD0041C9D680C2000F090FF6B46021C42CB42C285602368986002B070BDC04610B582B000900191FFF7ACFF012809D00A4C201C0099019AE2
:400B0000FFF7DCFF23689B68236008E0064C201C0099019AFFF7A4FF2268024B1A6002B010BDC046B0010020AC010020FEE7C04608B5031C084A1068C318084A9A1A802A00
:400B400002DC054A136005E000F028FF0C2303600120404208BDC046DC000020E801002070B50F4E0F4D13E029686B68AC68002202E001C901C30432A242FAD1E8680022A2
:400B800002E0002102C304328242FAD11035013E002EE9D100F008FFFFF73CFBFEE7C04601000000381C000008B500230AE0032B03D89A000A49505800E00A4899000A4A51
:400BC000885001332F2BF2D9FFF762FA0022074B1A608022D205116801230B43136008BD000000002D0B000000000020C0000020F0B50025002711E0BB00C658F3B2FF222F
:400C0000964308E06A008A181478A419527822700135013BDBB2002BF4D10137012FEBD9F0BDC04608B50A1C002100F0F7FE08BD031C04490868FE220240012018401043BC
:400C4000086070470002044004490A68FB231A408000F73B18401043086070470002044004490A68FD231A404000FB3B18401043086070470002044004490A68F7231A4024
:400C8000C000EF3B18401043086070470002044004490A68EF231A400001DF3B184010430860704700020440031C04490868FE220240012018401043086070470000044077
:400CC00004490A68DF231A404001BF3B18401043086070470002044004490A68FD231A404000FB3B18401043086070470000044008B50A2000F04EF908BDC04608B500F03B
:400D000041F808BD08B5044A1368802109060B431360FFF7EDFF08BD0000064008B5064B1B78002B04D1FFF7E9FF0122024B1A70FFF7E8FF08BDC04680010020014B58600B
:400D40007047C046800100200A4B1B68DB050DD5094B1B685B0409D4064B1968074A0A401A601A68802149000A431A600222044B1A6070470000064060000640FFFEFFFFC3
:400D80006C00064010B51E4A11680C230B43136000241C4B1C601C4A1C4B1A601C4B1D4A13601D4A14601D491D4A11601D4A13601D4B1C600A2000F0F7F80A20032100F03E
:400DC00011F90A20194900F0FBF8194B1C60194B1C604C22FF32184B1A60184B1C60184B1C60184B1C603C3AFF3A174B1A70174B1C70174B1C60174B1C60174B1C7010BDA1
:400E0000700006400000064077080040600006400701008000030640040306401000FE0010030640000206400402064039140000C80E0640880E0640480F0640080F0640F9
:400E4000C80F0640880F0640B8010020D0010020BC010020C0010020DC010020014B1878C0B27047D001002010B50A2000F09CF8064A14780F231C4013780D218B43137016
:400E80000A2000F087F8201C10BDC046D001002010B50A2000F088F8064B1C780F229443197820320A401A700A2000F073F8201C10BDC046D001002038B5002810D00D1CF3
:400EC000041C0A2000F070F8064B1C60064B1D600023064A1360064A13600A2000F05AF838BDC046CC010020C8010020BC010020D401002038B500280ED00D1C041C0A2097
:400F000000F052F8054B1C60054B1D600022054B1A600A2000F03EF838BDC046D8010020C4010020C0010020014B18687047C046C00100200022014B1A607047BC01002002
:400F40000022014B1A607047C001002004490A68BF231A4080017F3B18401043086070470001044004490A68FB231A408000F73B18401043086070470000044004490A68F6
:400F8000F7231A40C000EF3B1840104308607047000004401F2318401E3B8340181C014B1860704700E100E01F2318401E3B8340181C014B1860704780E100E001BE704783
:400FC00038B5041C0D1C1F2802D90020FFF7F6FFA400034B9C4664442068256038BDC0464000002070B5041C0E1E032E02D90020FFF7E4FF1F2C02D90020FFF7DFFF0325F2
:401000002540ED00063500F02DFCA408A400074B9C46644423680322AA409343AE40351C1D43256000F022FC70BDC04600E400E010B5041C06E0084B186800F009FC074B60
:401040009C46644480231B029C42F4D8024B5868604300F0FDFB10BDE00000200080FFFF08B5034B1B7A584300F0F2FB08BDC046E0000020F0B557464E46C0B483B0041C19
:4010800000F0F0FB0190E71E2D2F74D83F4B1B78DBB2A34208D33E4B1B78DBB29A463D4B1B78DBB2994631E03B4B1B78DBB2A34208D33A4B1B78DBB29A46394B1B78DBB2FD
:4010C000994623E0374B1B78DBB2A34208D3364B1B78DBB29A46354B1B78DBB2994615E0334B1B78DBB2A34208D3324B1B78DBB29A46314B1B78DBB2994607E02F4B1B786D
:40110000DBB29A462E4B1B78DBB299462D4BDE5D2F2E09D92A2C07D919222B4B1A60052000F096FB192503E0274B1D683F231D40AE4206D2234BDA5D234B1A60052000F090
:4011400087FB1F4B9C4664442378DBB21F4A13601F4B52461A601F4B4A461A600520FFF77FFFAE420AD9174BDA5D174B1A60052000F06EFB02E00020FFF720FF019800F006
:4011800075FB03B00CBC91469A46F0BDC0F1FF0FC1F1FF0FC2F1FF0FC3F1FF0FC4F1FF0FC5F1FF0FC6F1FF0FC7F1FF0FC8F1FF0FC9F1FF0FCAF1FF0FCBF1FF0FCCF1FF0FDF
:4011C000CDF1FF0FE01B00002CFF0B4028FF0B401CFF0B4020FF0B40034B1868C0231B02184000D00120704700010B4008B500F039FB044A1368C02109020B43136000F00F
:4012000035FB08BD00010B4010B500F02BFB08490A68084B1A408024E40122430A600A6813408022120213430B6000F01FFB10BD00010B40FF3FFFFF70B5061C00F012FBEB
:40124000041CFFF7C9FF002803D0FFF7DDFF012500E000250848331C0340084A106808490840184310601368012D01D1FFF7BEFF201C00F0FBFA70BD0404040010020B40A3
:40128000FBFBFBFF10B5244B1B685B0715D5234B1B685B070ED5224B9969042001401F4C22688A4322609A6982439A61DB68002B00D098470420FFF7BFFF174B1B685B05F0
:4012C00018D5164B1B685B0510D5154B99698022D2001140114802688A4302609969114A0A409A611B69002B00D098478020C000FFF7A2FF084B1B685B030CD5074B1B68DE
:401300005B0304D5064B5B69002B00D098478020C002FFF791FF10BD10020B40F000002088010020FFFBFFFF024B18680006C00F7047C04604000440014B18647047C04698
:401340000000002010B5041C00F08CFA044A1368C0218B43A4011C43146000F087FA10BD00E400E00122014B1A60704700E100E0024B1B68012018407047C04600E100E0D8
:401380000122014B1A60704780E100E010B5041CFFF7F6FF201CFFF7CFFF0320FFF7D2FFFFF7E0FF10BDC0460122014B1A60704780E200E0014B98647047C04600000020E3
:4013C00010B5041C00F04EFA044A1168044B0B40A4051C43146000F049FA10BD00E400E0FFFF3FFF0422014B1A60704700E100E0034B1B685B0701D5012000E000207047AE
:4014000000E100E00422014B1A60704780E100E010B5041CFFF7F6FF201CFFF7CBFF0320FFF7CEFFFFF7DEFF10BDC0460422014B1A60704780E200E010B5C04B1B68002B4C
:4014400000D09847BE4B1B68DB0702D50022BD4B1A60BD4B1B789B061FD4BC4B1A680223FF331A4219D0B84B1B78DB0709D5B84B1A7802218A431A70197809220A431A7088
:4014800008E0B34B1A7820218A431A70197890220A431A700022AC4B1A70AB4B1B789B0600D5B6E1A84B1B78DB0600D48AE1A74B1B689B073ED50222A64B1A60A64A1368FF
:4014C0000F211940136880221202134000D00123CB18A24A1278D2B29A4205D99C4A117804230B43137006E09C4A12789B1A9C490A68D31A0B609A4B1A689A4B1A6000234A
:40150000994A1360954A1370984B1A68802149020A431A601968964A0A401A608C4B1A7802218A431A70197801220A431A701022854B1A70854B1B681B0737D50822854B41
:401540001A608C4B1B689B040CD414E08A4B1A688A4909688A188A490968C9B211701A6801321A60874B1B681B07EFD1814A1168854B0B401360854B1B689B0604D5744AE4
:40158000117840230B4313700022814B1A60814A7E4B1A606E4B1A7820218A431A70197810220A431A70684B10221A70674B1B685B0641D50122784B1A60784B1B68DB06D9
:4015C0000FD50F32684B1A60664B1A68644B1A605F4A117802230B43137012225A4B1A7024E06F4B1B68644A12689B1A072B03D80422674B1A6011E0082B06D15D4A136818
:40160000A02109020B43136008E05A4A1368802189010B43136008225D4B1A604C4A117820230B4313701122474B1A705D4A494B1A6001225C4B1A605C4B1B681B072AD518
:40164000574B1B684C4A1068181A0838082802D9002408200EE001240CE0474B1A68474909688A1846490968C9B211701A6801321A6001380028F0D1002C08D03D4A136865
:40168000802109020B4313600022414B1A6008223E4B1A6023E0454B1B685B071FD5384B1B68354A11683E4A126891420DD201213D4A1160304A1168304800684118DBB277
:4016C0000B7013680133136006E0FFF73DFB204A117840230B43137004222C4B1A60344B1B68DB061FD494E01D4B1A68314B1B689A420CD21A4B1A682F4909688A18127812
:40170000D2B22E490A601A6801321A600BE0FF222A4B1A60114B1B789B0604D40F4A13780133DBB213700C4B1B680F221340082BDAD10132224B1A606BE0C046840100203E
:401740008C0E0640880E0640B80100204C0F0640D0010020400F064008020640DC010020D4010020BC010020880F064004020640FFFFFEFF60000640C0010020D8010020EA
:401780004003064008030640FF5FFFFFC00F0640C80F0640ED0F0000800E064064000640C4010020FF0F00006C000640CC0F06408C0F0640C8010020CC0100204002064042
:4017C000800F0640134A13685B005B0813601021114B1970114B1868114901401960186810490140196000230F490B600F490B600F49104B19601049104B19601049114BBB
:4018000019601149114B19601368802109060B43136010BD00000640B801002060000640FF5FFFFFFFFCFFFFC80F0640880F0640ED0F0000800F0640F3070000C00F064053
:40184000FF0F0000400F064017030000000F06400230800804D0C0460138FDD1C046C046C0467047EFF3108072B6704780F310887047C046C046C046002243088B4274D34C
:4018800003098B425FD3030A8B4244D3030B8B4228D3030C8B420DD3FF22090212BA030C8B4202D31212090265D0030B8B4219D300E0090AC30B8B4201D3CB03C01A524129
:4018C000830B8B4201D38B03C01A5241430B8B4201D34B03C01A5241030B8B4201D30B03C01A5241C30A8B4201D3CB02C01A5241830A8B4201D38B02C01A5241430A8B4200
:4019000001D34B02C01A5241030A8B4201D30B02C01A5241CDD2C3098B4201D3CB01C01A524183098B4201D38B01C01A524143098B4201D34B01C01A524103098B4201D333
:401940000B01C01A5241C3088B4201D3CB00C01A524183088B4201D38B00C01A524143088B4201D34B00C01A5241411A00D20146524110467047FFE701B5002000F00CF8BE
:4019800002BDC0460029F7D003B5FFF775FF0EBC4243891A1847C0467047C046014B18687047C046540100200E4B70B500251E1C0D4CE41AA410A54204D0AB00F3589847C6
:4019C0000135F8E700F026F9084B00251E1C084CE41AA410A54204D0AB00F35898470135F8E770BD201C0000201C0000201C0000281C000008B5034B011C186800F05CF855
:401A000008BDC0465401002008B5034B011C186800F00CF808BDC04654010020031C8218934202D019700133FAE7704730B500293ED004390B68002B00DAC9181D4A136841
:401A4000141C002B02D14B60116031E099420DD208680A189A4203D11368C3180B6053684B60216024E08A4203D8131C5A68002AF9D11D685C198C420BD1096869185818D1
:401A80001960904214D110685268091819605A600EE08C4202D90C23036009E008680C18944203D114685268001908604A60596030BDC046A8010020032370B5CC1C9C4338
:401AC0000834051C0C2C01D20C2405E0002C03DA0C2300202B6042E08C42F9D3204A1368101C191C002913D00A68121B0DD40B2A02D90A608B181FE08B4202D15A68026018
:401B00001BE04A685A600B1C17E00B1C4968E9E7144E3368002B03D1281C00F025F83060281C211C00F020F8031C421CD0D00322C61C964386420AD11C60181C07210B305F
:401B40001A1D8843821A0AD05142995007E0311A281C00F009F8431CBAD0331CECE770BDA8010020A401002038B50023064C051C081C2360FEF7DCFF431C03D12368002B61
:401B800000D02B6038BDC046E0010020000000008009000088090000900900009C090000A8090000B4090000C0090000C6090000CC090000D209000000300F4000040040FD
:401BC0000F40000404400F4005410F406B806F20DA80DC20032007809F80A720C0300000030405060708090A0B0C0E0F101112131415161718191B1C1D1E1F2021222325A9
:401C0000262728292A2B2E2F303132333435000043000000F8B5C046F8BC08BC9E467047DD010000A90B0000F8B5C046F8BC08BC9E467047B5010000481C0000C8000020C2
:401C4000900000009000000000000000840D0000C30500000101000001EEEE17E80100200000E02EC05D00001800000000366E0104040400000000000000000000000000F8
:401C80000000000000000000000000000000000000000000101C000000000000000000000000000000000000000000000000000000000000000000000000000000000000F8
:401CC0000000000000000000000000000000000000000000F400002000000000000000000000000000000000000000000000000000000000000000000000000000000000D0
:401D000000000000000000000000000000000000000000000000000000000000000000000000000000000000000000000000000000000000000000000000000000000000A3
:401D40000000000000000000000000000000000000000000000000000000000000000000000000000000000000000000000000000000000000000000000000000000000063
:401D80000000000000000000000000000000000000000000000000000000000000000000000000000000000000000000000000000000000000000000000000000000000023
:401DC00000000000000000000000000000000000000000000000000000000000000000000000000000000000000000000000000000000000000000000000000000000000E3
:0200000490303A
:02000000710588
:0200000490402A
:200000000000000000000000000000000000000000000000000000000000000000000000E0
:0200000490501A
:0C000000000204C81193110104D1829881
:0200000490600A
:0100000001FE
:00000001FF