:400000000010002011000000CD0A0000CD0A000008B500F075FDC04638B5194C23688022D20213432360182001F02AF82268154B13402360144A154B1A603022144B1A6012
:40004000103A144B1A60103A134B1A6080221206124B1A6000252560114A124B1A60124A124B1A60124A134B1A600920124900F0ADFF092000F094FF104B1D6038BDC046C8
:4000800000010B40FFFFFBFF0600008004010B4008020240140202401802024008010B40FE00008000000240FE0000C0400002400E00008080000240911200000C020B4086
:4000C00010B572B60122384B1A70002410E0374863001A195200821891881B195B001A5AC31858880004104300F06CFD0134E4B2012CECD92D49081C0C30243100F048FD2A
:40010000EE2212022A4B1A60EE222A4B1A6099231B04294A1360294A1360294A1360294A136080229205284B1A600522274B1A600132274B1A60274B1978043A0A431A70CA
:40014000254802783C218A4328390A430270197816220A431A708C22204B1A60204A214B1A606422204B1A60C02252031F4B1A6024231F4A13601F491F4A116030221F4926
:400180000A60D82000011E4908601E490A600F211D4A11601D4A13600C221D4B1A60FFF73BFF00F035FD10BD1C700F40741B00000C0001401000014000500F4010500F40D5
:4001C00020500F4030500F4038500F402000004000800F4000700F4001700F4000000440B62D410008000440000104400801044018010440B66D030008020440000304408E
:40020000080304401803044000040440080404401804044010B5064C2378002B07D1054B002B02D0044800E000BF0123237010BD5001002000000000701B000008B5084B9B
:40024000002B03D00748084900E000BF07480368002B00D108BD064B002BFBD09847F9E700000000701B000054010020C80000200000000000B583B062B600F0A1FB00F05C
:400280002DF800F0D3FA01F055F800280ED1053000F0D4FE01F04EF8002803D100F0B2F800F0F6F901F046F80028FBD000F0D6FA0AE0684600F090FB009BD8B26B46197917
:4002C00000F0F6FA00F0BAFB00F090FB0128F0D1313000F0B3FE00F0E1FAD4E708B5034801F05AF8024801F099F808BD39050000C5070000014B18787047C0466C01002080
:40030000014B18797047C0466C01002008B5012000F084FC002000F08DFC002000F096FC002000F09FFC032000F088FE002000F075FC012000F07EFC002000F087FC00200A
:4003400000F090FC032000F079FE002000F066FC002000F06FFC012000F078FC002000F081FC032000F06AFE002000F057FC002000F060FC002000F069FC012000F072FC3A
:40038000032000F05BFE08BD08B5002000F046FC002000F04FFC002000F058FC012000F061FC032000F04AFE002000F037FC002000F040FC012000F049FC002000F052FC32
:4003C000032000F03BFE002000F028FC012000F031FC002000F03AFC002000F043FC032000F02CFE012000F019FC002000F022FC002000F02BFC002000F034FC032000F08F
:400400001DFE08BD08B500221A4B1A7206E001200021002200F0B4FAFFF778FF00F0AEFF01280FD1134B1B7A002BF0D00AE001200021002200F0A4FAFFF7A6FF0D4A1368EA
:400440000133136000F09AFF012803D1094B1B7A012BECD00022084B1A60064B1A68643A1A6001225A7200200021002200F088FA08BDC0466C010020B401002038B5041CA6
:40048000244B5B7A012B3ED1224B18686043FF2101F0E4F9041E204B1B689C4218D200200121002200F06CFA1B4B1D682D1B002406E0FFF769FF184A1368013B1360013451
:4004C000AC42F6D300200021002200F059FA1FE098421DD900200121002200F051FA0E4B1D68651B002406E0FFF710FF0A4A1368013313600134AC42F6D3002000210022FF
:4005000000F03EFA04E0FFF77DFF201CFFF7B6FF38BDC0466C010020B401002008B5002000F07CFB002000F085FB002000F08EFB002000F097FB08BD10B500F027FFFFF754
:40054000EDFF00200021012200F01AFA114B1B7A002B05D000240DE0FFF716FF013400E00024312CF8D901220A4B1A7207E0FFF7CDFE0134312CFAD90022064B1A72002083
:400580000021002200F0FCF900F014FF00F0F0FE10BDC0466C01002008B5012000F06EFB002000F077FB002000F080FB002000F089FB032000F042FD002000F05FFB01201D
:4005C00000F068FB002000F071FB002000F07AFB032000F033FD002000F050FB002000F059FB012000F062FB002000F06BFB032000F024FD002000F041FB002000F04AFBEC
:40060000002000F053FB012000F05CFB032000F015FD08BD08B5002000F030FB002000F039FB002000F042FB012000F04BFB032000F004FD002000F021FB002000F02AFBB5
:40064000012000F033FB002000F03CFB032000F0F5FC002000F012FB012000F01BFB002000F024FB002000F02DFB032000F0E6FC012000F003FB002000F00CFB002000F01A
:4006800015FB002000F01EFB032000F0D7FC08BD08B500221A4B9A7206E001200021002200F06EF9FFF778FF00F0A8FE01280FD1134B9B7A002BF0D00AE0012000210022AD
:4006C00000F05EF9FFF7A6FF0D4A53680133536000F094FE012803D1094B9B7A012BECD00022084B1A60064B5A68643A5A600122DA7200200021002200F042F908BDC0462D
:400700006C010020B001002038B5041C244BDB7A012B3ED1224B58686043FF2101F09EF8041E204B1B689C4218D200200121002200F026F91B4B1D682D1B002406E0FFF75A
:4007400069FF184A1368013B13600134AC42F6D300200021002200F013F91FE098421DD900200121002200F00BF90E4B1D68651B002406E0FFF710FF0A4A13680133136030
:400780000134AC42F6D300200021002200F0F8F804E0FFF77DFF201CFFF7B6FF38BDC0466C010020B001002008B5002000F066FA002000F06FFA002000F078FA002000F03C
:4007C00081FA08BD10B500F023FEFFF7EDFF00200021012200F0D4F8134B9B7A002B04D00AE0FFF717FF013400E00024312CF8D901220D4B9A720CE0012B0AD103E0FFF7BF
:40080000CBFE013400E00024312CF8D90022064B9A7200200021002200F0B2F800F00CFE00F0E6FD10BDC0466C01002008B50948042100F031FB00F06DFB00F005FB0648FA
:40084000042100F047FB00F06BFB00F011FB00F05BFA08BDCC000020AC01002000B583B000F0ECFAC30614D500F04EFB04280CD1094B1B78012B08D1074BDB78172B04D1B2
:40088000054B5878997800F0FFF800F049FB00F0EFFA03B000BDC046AC01002008B500F0CDFAC30703D500F035FB00F0CDFA08BD10B5152846D00CD812281FD004D81028E5
:4008C00014D0112816D055E0132825D0142831D050E0182844D004D816283BD017283CD048E019283FD0902840D043E0081CFFF7C5FD3FE0081CFFF707FF3BE01E4B587095
:400900001E4B1B68002B01D0DBB200E0BA231A4A9370FFF7C3FF2DE0174B5870174B1B68002B01D0DBB200E0AF23134A9370FFF7B5FF1FE0104C6070FFF7DCFCA070FFF706
:40094000ADFF17E00C4C6070FFF7DAFCA070FFF7A5FF0FE0FFF7E2FD0CE0FFF725FF09E0FFF750FD06E0FFF793FE03E0FFF74AFDFFF78EFE10BDC046CC000020B40100209D
:4009800038B50D1C141C002803D0002000F0CEFA02E0012000F0CAFA002D03D0002000F0D1FA02E0012000F0CDFA002C03D0002000F0D4FA02E0012000F0D0FA38BDC0463D
:4009C0000023034A13609B60024A13607047C046A4010020A801002010B5034B1B68021C12CB12C210BDC046A4010020034B1B68002B01D1012000E000207047A4010020A7
:400A000030B583B0041C009101920C2000F0E4FF002806D06B46021C22CB22C200238360206003B030BDC04608B5002805D0031C006882681A6000F0D9FF08BD08B5054855
:400A4000FFF7F2FFFFF7D2FF012802D10022024B1A6008BDA4010020A801002070B582B0009101920368002B0BD0041C9D680C2000F0B2FF6B46021C42CB42C28560236862
:400A8000986002B070BDC04610B582B000900191FFF7ACFF012809D00A4C201C0099019AFFF7DCFF23689B68236008E0064C201C0099019AFFF7A4FF2268024B1A6002B0AF
:400AC00010BDC046A8010020A4010020FEE7C04608B5031C084A1068C318084A9A1A802A02DC054A136005E000F04AFF0C2303600120404208BDC046D0000020E8010020C2
:400B000070B50F4E0F4D13E029686B68AC68002202E001C901C30432A242FAD1E868002202E0002102C304328242FAD11035013E002EE9D100F02AFFFFF79CFBFEE7C046F9
:400B4000010000001C1C000008B500230AE0032B03D89A000A49505800E00A4899000A4A885001332F2BF2D9FFF7AAFA0022074B1A608022D205116801230B43136008BD60
:400B800000000000CD0A000000000020C0000020F0B50025002711E0BB00C658F3B2FF22964308E06A008A181478A419527822700135013BDBB2002BF4D10137052FEBD94C
:400BC000F0BDC04608B50A1C002100F019FF08BD0C4B1B68002803D080221206134301E05B005B08074A1360074B1B68002803D080229204134301E0044A1340024A13608A
:400C00007047C04680031A4008010B40FFFFFFFD08B50120FFF7DCFF08BDC04604490A68F7231A40C000EF3B18401043086070470002044004490A68FD231A404000FB3B76
:400C400018401043086070470002044004490A68FB231A408000F73B184010430860704700020440031C04490868FE220240012018401043086070470002044004490A683D
:400C8000FD231A404000FB3B18401043086070470000044004490A68DF231A404001BF3B184010430860704700020440031C04490868FE22024001201840104308607047A7
:400CC0000000044004490A68EF231A400001DF3B18401043086070470002044008B50A2000F05EF908BDC04608B500F03BF808BD08B5044A1368802109060B431360FFF7CF
:400D0000EDFF08BD0000064008B5064B1B78002B04D1FFF7E9FF0122024B1A70FFF7E8FF08BDC046780100200A4B1B68DB050DD5094B1B685B0409D4064B1968074A0A40E8
:400D40001A601A68802149000A431A600222044B1A6070470000064060000640FFFEFFFF6C00064010B51E4A11680C230B43136000241C4B1C601C4A1C4B1A601C4B1D4AD7
:400D800013601D4A14601D491D4A11601D4A13601D4B1C600A2000F00DF90A20032100F027F90A20194900F011F9194B1C60194B1C604C22FF32184B1A60184B1C60184B67
:400DC0001C60184B1C603C3AFF3A174B1A70174B1C70174B1C60174B1C60174B1C7010BD700006400000064077080040600006400701008000030640040306401000FE000B
:400E000010030640000206400402064045140000C80E0640880E0640480F0640080F0640C80F0640880F0640B8010020D0010020BC010020C0010020DC010020014B18781F
:400E4000C0B27047D001002010B50A2000F0B2F8064A14780F231C4013780D218B4313700A2000F09DF8201C10BDC046D001002010B50A2000F09EF8064B1C780F2294434A
:400E8000197820320A401A700A2000F089F8201C10BDC046D001002038B5002810D00D1C041C0A2000F086F8064B1C60064B1D600023064A1360064A13600A2000F070F844
:400EC00038BDC046CC010020C8010020BC010020D401002038B500280ED00D1C041C0A2000F068F8054B1C60054B1D600022054B1A600A2000F054F838BDC046D8010020BA
:400F0000C4010020C0010020014B18687047C046C00100200022014B1A607047BC0100200022014B1A607047C001002004490A68BF231A4080017F3B184010430860704785
:400F40000001044004490A68FB231A408000F73B18401043086070470000044004490A68F7231A40C000EF3B184010430860704700000440000000000230800804D0C04676
:400F80000138FDD1C046C046C0467047EFF3108072B6704780F310887047C046C046C0461F2318401E3B8340181C014B1860704700E100E01F2318401E3B8340181C014BE0
:400FC0001860704780E100E001BE704738B5041C0D1C1F2802D90020FFF7F6FFA400034B9C4664442068256038BDC0464000002070B5041C0E1E032E02D90020FFF7E4FF4E
:401000001F2C02D90020FFF7DFFF03252540ED000635FFF7BBFFA408A400074B9C46644423680322AA409343AE40351C1D432560FFF7B0FF70BDC04600E400E010B5041CF0
:4010400006E0084B1868FFF797FF074B9C46644480231B029C42F4D8024B58686043FFF78BFF10BDD40000200080FFFF08B5034B1B7A5843FFF780FF08BDC046D400002007
:40108000F0B557464E46C0B483B0041CFFF77EFF0190E71E2D2F74D83F4B1B78DBB2A34208D33E4B1B78DBB29A463D4B1B78DBB2994631E03B4B1B78DBB2A34208D33A4B6C
:4010C0001B78DBB29A46394B1B78DBB2994623E0374B1B78DBB2A34208D3364B1B78DBB29A46354B1B78DBB2994615E0334B1B78DBB2A34208D3324B1B78DBB29A46314BBC
:401100001B78DBB2994607E02F4B1B78DBB29A462E4B1B78DBB299462D4BDE5D2F2E09D92A2C07D919222B4B1A600520FFF724FF192503E0274B1D683F231D40AE4206D2A7
:40114000234BDA5D234B1A600520FFF715FF1F4B9C4664442378DBB21F4A13601F4B52461A601F4B4A461A600520FFF77FFFAE420AD9174BDA5D174B1A600520FFF7FCFED5
:4011800002E00020FFF720FF0198FFF703FF03B00CBC91469A46F0BDC0F1FF0FC1F1FF0FC2F1FF0FC3F1FF0FC4F1FF0FC5F1FF0FC6F1FF0FC7F1FF0FC8F1FF0FC9F1FF0F05
:4011C000CAF1FF0FCBF1FF0FCCF1FF0FCDF1FF0FC41B00002CFF0B4028FF0B401CFF0B4020FF0B40034B1868C0231B02184000D00120704700010B4008B5FFF7C7FE044A4E
:401200001368C02109020B431360FFF7C3FE08BD00010B4010B5FFF7B9FE08490A68084B1A408024E40122430A600A6813408022120213430B60FFF7ADFE10BD00010B408E
:40124000FF3FFFFF70B5061CFFF7A0FE041CFFF7C9FF002803D0FFF7DDFF012500E000250848331C0340084A106808490840184310601368012D01D1FFF7BEFF201CFFF711
:4012800089FE70BD0404040010020B40FBFBFBFF10B5244B1B685B0715D5234B1B685B070ED5224B9969042001401F4C22688A4322609A6982439A61DB68002B00D09847F0
:4012C0000420FFF7BFFF174B1B685B0518D5164B1B685B0510D5154B99698022D2001140114802688A4302609969114A0A409A611B69002B00D098478020C000FFF7A2FFAB
:40130000084B1B685B030CD5074B1B685B0304D5064B5B69002B00D098478020C002FFF791FF10BD10020B40E400002080010020FFFBFFFF024B18680006C00F7047C0468F
:4013400004000440014B18647047C0460000002010B5041CFFF71AFE044A1368C0218B43A4011C431460FFF715FE10BD00E400E00122014B1A60704700E100E0024B1B68D2
:40138000012018407047C04600E100E00122014B1A60704780E100E010B5041CFFF7F6FF201CFFF7CFFF0320FFF7D2FFFFF7E0FF10BDC0460122014B1A60704780E200E011
:4013C000014B98647047C0460000002010B5041CFFF7DCFD044A1168044B0B40A4051C431460FFF7D7FD10BD00E400E0FFFF3FFF0422014B1A60704700E100E0034B1B686B
:401400005B0701D5012000E00020704700E100E00422014B1A60704780E100E010B5041CFFF7F6FF201CFFF7CBFF0320FFF7CEFFFFF7DEFF10BDC0460422014B1A607047FC
:4014400080E200E010B5C04B1B68002B00D09847BE4B1B68DB0702D50022BD4B1A60BD4B1B789B061FD4BC4B1A680223FF331A4219D0B84B1B78DB0709D5B84B1A780221B2
:401480008A431A70197809220A431A7008E0B34B1A7820218A431A70197890220A431A700022AC4B1A70AB4B1B789B0600D5B6E1A84B1B78DB0600D48AE1A74B1B689B0722
:4014C0003ED50222A64B1A60A64A13680F211940136880221202134000D00123CB18A24A1278D2B29A4205D99C4A117804230B43137006E09C4A12789B1A9C490A68D31A91
:401500000B609A4B1A689A4B1A600023994A1360954A1370984B1A68802149020A431A601968964A0A401A608C4B1A7802218A431A70197801220A431A701022854B1A7068
:40154000854B1B681B0737D50822854B1A608C4B1B689B040CD414E08A4B1A688A4909688A188A490968C9B211701A6801321A60874B1B681B07EFD1814A1168854B0B4067
:401580001360854B1B689B0604D5744A117840230B4313700022814B1A60814A7E4B1A606E4B1A7820218A431A70197810220A431A70684B10221A70674B1B685B0641D562
:4015C0000122784B1A60784B1B68DB060FD50F32684B1A60664B1A68644B1A605F4A117802230B43137012225A4B1A7024E06F4B1B68644A12689B1A072B03D80422674B28
:401600001A6011E0082B06D15D4A1368A02109020B43136008E05A4A1368802189010B43136008225D4B1A604C4A117820230B4313701122474B1A705D4A494B1A600122ED
:401640005C4B1A605C4B1B681B072AD5574B1B684C4A1068181A0838082802D9002408200EE001240CE0474B1A68474909688A1846490968C9B211701A6801321A600138E8
:401680000028F0D1002C08D03D4A1368802109020B4313600022414B1A6008223E4B1A6023E0454B1B685B071FD5384B1B68354A11683E4A126891420DD201213D4A116041
:4016C000304A1168304800684118DBB20B7013680133136006E0FFF727FB204A117840230B43137004222C4B1A60344B1B68DB061FD494E01D4B1A68314B1B689A420CD26B
:401700001A4B1A682F4909688A181278D2B22E490A601A6801321A600BE0FF222A4B1A60114B1B789B0604D40F4A13780133DBB213700C4B1B680F221340082BDAD101321F
:40174000224B1A606BE0C0467C0100208C0E0640880E0640B80100204C0F0640D0010020400F064008020640DC010020D4010020BC010020880F064004020640FFFFFEFF95
:4017800060000640C0010020D80100204003064008030640FF5FFFFFC00F0640C80F0640ED0F0000800E064064000640C4010020FF0F00006C000640CC0F06408C0F064020
:4017C000C8010020CC01002040020640800F0640134A13685B005B0813601021114B1970114B1868114901401960186810490140196000230F490B600F490B600F49104BB8
:4018000019601049104B19601049114B19601149114B19601368802109060B43136010BD00000640B801002060000640FF5FFFFFFFFCFFFFC80F0640880F0640ED0F0000DC
:40184000800F0640F3070000C00F0640FF0F0000400F064017030000000F0640002243088B4274D303098B425FD3030A8B4244D3030B8B4228D3030C8B420DD3FF22090237
:4018800012BA030C8B4202D31212090265D0030B8B4219D300E0090AC30B8B4201D3CB03C01A5241830B8B4201D38B03C01A5241430B8B4201D34B03C01A5241030B8B4234
:4018C00001D30B03C01A5241C30A8B4201D3CB02C01A5241830A8B4201D38B02C01A5241430A8B4201D34B02C01A5241030A8B4201D30B02C01A5241CDD2C3098B4201D3ED
:40190000CB01C01A524183098B4201D38B01C01A524143098B4201D34B01C01A524103098B4201D30B01C01A5241C3088B4201D3CB00C01A524183088B4201D38B00C01A47
:40194000524143088B4201D34B00C01A5241411A00D20146524110467047FFE701B5002000F00CF802BDC0460029F7D003B5FFF775FF0EBC4243891A1847C0467047C04681
:40198000014B18687047C046480100200E4B70B500251E1C0D4CE41AA410A54204D0AB00F35898470135F8E700F026F9084B00251E1C084CE41AA410A54204D0AB00F35830
:4019C00098470135F8E770BD041C0000041C0000041C00000C1C000008B5034B011C186800F05CF808BDC0464801002008B5034B011C186800F00CF808BDC046480100204E
:401A0000031C8218934202D019700133FAE7704730B500293ED004390B68002B00DAC9181D4A1368141C002B02D14B60116031E099420DD208680A189A4203D11368C318B0
:401A40000B6053684B60216024E08A4203D8131C5A68002AF9D11D685C198C420BD10968691858181960904214D110685268091819605A600EE08C4202D90C23036009E0B6
:401A800008680C18944203D114685268001908604A60596030BDC046A0010020032370B5CC1C9C430834051C0C2C01D20C2405E0002C03DA0C2300202B6042E08C42F9D3EC
:401AC000204A1368101C191C002913D00A68121B0DD40B2A02D90A608B181FE08B4202D15A6802601BE04A685A600B1C17E00B1C4968E9E7144E3368002B03D1281C00F0D7
:401B000025F83060281C211C00F020F8031C421CD0D00322C61C964386420AD11C60181C07210B301A1D8843821A0AD05142995007E0311A281C00F009F8431CBAD0331C29
:401B4000ECE770BDA00100209C01002038B50023064C051C081C2360FEF7BAFF431C03D12368002B00D02B6038BDC046E00100200000000000300F40000400400F400004B9
:401B800004300F4001310F4001330F4007400F4003420F4006430F4038803E4058045F011801B4010A400D0169026E40C230DA80DC206C407008DC036102A102B448B502A7
:401BC000D802EC08030405060708090A0B0C0E0F101112131415161718191B1C1D1E1F2021222325262728292A2B2E2F303132333435000043000000F8B5C046F8BC08BCB9
:401C00009E4670473D020000490B0000F8B5C046F8BC08BC9E46704715020000301C0000C80000208800000098000000000000000000000001EEEE17E80100200000E02E3A
:401C4000C05D00001800000000366E01040404000000000000000000000000000000000000000000000000000000000000000000F41B00000000000000000000000000006F
:401C8000000000000000000000000000000000000000000000000000000000000000000000000000000000000000000000000000E80000200000000000000000000000001C
:401CC00000000000000000000000000000000000000000000000000000000000000000000000000000000000000000000000000000000000000000000000000000000000E4
:401D000000000000000000000000000000000000000000000000000000000000000000000000000000000000000000000000000000000000000000000000000000000000A3
:401D40000000000000000000000000000000000000000000000000000000000000000000000000000000000000000000000000000000000000000000000000000000000063
:401D80000000000000000000000000000000000000000000000000000000000000000000000000000000000000000000000000000000000000000000000000000000000023
:0200000490303A
:020000008082FC
:0200000490402A
:200000000000000000000000000000000000000000000000000000000000000000000000E0
:0200000490501A
:0C000000000204C81193110104D19215F4
:0200000490600A
:0100000001FE
:00000001FF