:400000000010002011000000490400004904000008B500F033FAC04638B51D4C23688022D20213432360182000F086FB2268194B13402360184A194B1A601022184B1A6019
:400040002032184B1A60103A174B1A600132174B1A6080221206164B1A6000252560154A154B1A60154A164B1A60164A164B1A60164A174B1A60174A174B1A60092017492D
:4000800000F000FB092000F0E7FA154B1D6038BD00010B40FFFFFBFF0600008004010B40080202400C020240340202403C02024008010B400E000080000002401700008020
:4000C00040000240CF00008080000240ED020080040002407F0200C044000240490900000C020B4010B572B601222D4B1A70002410E02C4863001A195200821891881B19DD
:400100005B001A5AC31858880004104300F018FA0134E4B2012CECD92249081C0C302C3100F0F4F999231B041F4A1360EE2109021E4A1160EE211E4A11601E4A13601E4A45
:40014000136005221D4B1A6001321D4B1A601D4B1978043A0A431A701B4802783C218A4328390A430270197816220A431A70C422164B1A702023164A13601649164A116002
:40018000164A1360D8221201154B1A600322154B1A60154A154B1A60FFF73EFF10BDC0461C700F4038200000000001400C0001401000014000500F4030500F402000004067
:4001C00000800F4000700F4001700F40DB300F40000004409913030008000440180004400803044000040440240000020804044010B5064C2378002B07D1054B002B02D0AD
:40020000044800E000BF0123237010BD5001002000000000C41F000008B5084B002B03D00748084900E000BF07480368002B00D108BD064B002BFBD09847F9E7000000002D
:40024000C41F000054010020C80000200000000010B5074C074B236000F0E6FB2368181A3A2101F081F920600022034B9A7010BD6C0100201C000100CC000020034B02222E
:400280005A7008325A71043ADA717047CC00002038B5054D4400605D01302B19597801F049FA615538BDC046CC00002008B5074800F0C6F90020FFF7EBFF0220FFF7E8FF32
:4002C0000320FFF7E5FF00F083FE08BDC81F000010B562B600F04EF9FFF7D0FF00F0B2FE4D4800F059FE00F0D1FB4C4800F0FEFB022000F00FFE022000F0FAFD00F02EFC14
:40030000474980230B707D3B4B7029200222002300F0FAFC00F098FC4307FBD4414B1B78002B08D1012000F061FB0A2000F0FAF9002000F05BFB3B4B9B78002B12D10122BC
:40034000384B9A70012000F0DFFB374C374B1A68201C374901F02EFA201C00F071F9002000F0D2FB2F4B9B79002B0DD1314800F067F900F0D5FB002803D02F4800F060F95B
:4003800002E02E4800F05CF9FA20800000F0B2F92349AC230B7029200122AA3B00F0B4FC00F052FC0307FBD5292025490222032300F020FD00F048FC0307FBD5204A11789D
:4003C00053781B02CB18194A53601549AE230B7029200122AB3B00F097FC00F035FC0307FBD5292016490222012300F003FD00F02BFC4307FBD4124A117853781B02CB18E2
:400400000A4A9360084C5268201C0E4901F0D2F9201C00F015F981E7AD0200005102000048020020CC000020B00100206C010020D01F0000E41F0000F41F00000420000097
:400440005002002014200000FEE7C04608B5031C084A1068C318084A9A1A802A02DC054A136005E001F072F90C2303600120404208BDC046D40000208002002070B50F4EC1
:400480000F4D13E029686B68AC68002202E001C901C30432A242FAD1E868002202E0002102C304328242FAD11035013E002EE9D101F052F9FFF70CFFFEE7C046010000006A
:4004C000D422000008B500230AE0032B03D89A000A49505800E00A4899000A4A885001332F2BF2D9FFF7FEFD0022074B1A608022D205116801230B43136008BD00000000D3
:400500004904000000000020C0000020F0B50025002711E0BB00C658F3B2FF22964308E06A008A181478A419527822700135013BDBB2002BF4D10137072FEBD9F0BDC046A7
:4005400008B50A1C002101F02DF908BD08B500F069F808BD08B500F01DF808BD08B5044A1368802109060B431360FFF7EFFF08BD0000074008B5064B1B78002B04D1FFF7C3
:40058000E9FF0122024B1A70FFF7E8FF08BDC0467801002010B5124A124B1A600023124A13600121114A1160114A12480260072411480460114803601148016011490A6007
:4005C000114A1360114A1360114A1360114A1360114A1360114A1360114A136010BDC0460B00000200000740400007404800074007000080000307400403074010030740A3
:40060000440007400002074004020740880E0740C80E0740480F0740080F0740C80F0740880F0740044A1168044B0B40902109040B4313607047C04600000140FFFF0FFFBD
:4006400038B5051C002402E000F00CFD0134285D0028F9D138BDC0461F2318401E3B8340181C014B1860704700E100E01F2318401E3B8340181C014B1860704780E100E0FA
:4006800001BE704738B5041C0D1C1F2802D90020FFF7F6FFA400034B9C4664442068256038BDC0464000002070B5041C0E1E032E02D90020FFF7E4FF1F2C02D90020FFF7CB
:4006C000DFFF03252540ED00063500F0E3FCA408A400074B9C46644423680322AA409343AE40351C1D43256000F0D8FC70BDC04600E400E010B5041C06E0084B186800F08F
:40070000BFFC074B9C46644480231B029C42F4D8024B5868604300F0B3FC10BDD80000200080FFFF08B5034B1B7A584300F0A8FC08BDC046D8000020F0B557464E46C0B44A
:4007400083B0041C00F0A6FC0190E71E2D2F74D83F4B1B78DBB2A34208D33E4B1B78DBB29A463D4B1B78DBB2994631E03B4B1B78DBB2A34208D33A4B1B78DBB29A46394B5C
:400780001B78DBB2994623E0374B1B78DBB2A34208D3364B1B78DBB29A46354B1B78DBB2994615E0334B1B78DBB2A34208D3324B1B78DBB29A46314B1B78DBB2994607E0A3
:4007C0002F4B1B78DBB29A462E4B1B78DBB299462D4BDE5D2F2E09D92A2C07D919222B4B1A60052000F04CFC192503E0274B1D683F231D40AE4206D2234BDA5D234B1A602B
:40080000052000F03DFC1F4B9C4664442378DBB21F4A13601F4B52461A601F4B4A461A600520FFF77FFFAE420AD9174BDA5D174B1A60052000F024FC02E00020FFF720FF55
:40084000019800F02BFC03B00CBC91469A46F0BDC0F1FF0FC1F1FF0FC2F1FF0FC3F1FF0FC4F1FF0FC5F1FF0FC6F1FF0FC7F1FF0FC8F1FF0FC9F1FF0FCAF1FF0FCBF1FF0FB3
:40088000CCF1FF0FCDF1FF0F482200002CFF0B4028FF0B401CFF0B4020FF0B40034B1868C0231B02184000D00120704700010B4008B500F0EFFB044A1368C02109020B43CB
:4008C000136000F0EBFB08BD00010B4010B500F0E1FB08490A68084B1A408024E40122430A600A6813408022120213430B6000F0D5FB10BD00010B40FF3FFFFF70B5061CAD
:4009000000F0C8FB041CFFF7C9FF002803D0FFF7DDFF012500E000250848331C0340084A106808490840184310601368012D01D1FFF7BEFF201C00F0B1FB70BD04040400DF
:4009400010020B40FBFBFBFF10B5244B1B685B0715D5234B1B685B070ED5224B9969042001401F4C22688A4322609A6982439A61DB68002B00D098470420FFF7BFFF174BBF
:400980001B685B0518D5164B1B685B0510D5154B99698022D2001140114802688A4302609969114A0A409A611B69002B00D098478020C000FFF7A2FF084B1B685B030CD519
:4009C000074B1B685B0304D5064B5B69002B00D098478020C002FFF791FF10BD10020B40E80000207C010020FFFBFFFF04490A68FB231A408000F73B18401043086070479A
:400A000000000440014B18707047C04681000F40014B1878C0B2704761000F40014B18807047C04640100F40014B188880B2704780100F40014B18807047C04600100F4068
:400A400008B501E0FFF7F0FFFFF7E2FF0307F9D408BDC04610B50B4C201CFFF7DFFF201CFFF7E8FF00F016FB074A117810230B43137000F013FBFFF7E3FF0220FFF7C2FFA7
:400A800010BDC046FFFF000091000F4008B5054B1B78002B04D1FFF7DDFF0122014B1A7008BDC04698010020014B18647047C0460000002010B5041C00F0ECFA044A13686D
:400AC000C0218B43A4011C43146000F0E7FA10BD00E400E00122014B1A60704700E100E00122014B1A60704780E100E010B5041CFFF7F6FF201CFFF7D7FF0320FFF7DAFF61
:400B0000FFF7E8FF10BDC04604490A68FD231A404000FB3B184010430860704700000440024B18680007C00F7047C0460400044008B50A20FFF790FD08BDC04608B500F0BE
:400B40001DF808BD08B5044A1368802109060B431360FFF7EDFF08BD0000064008B5064B1B78002B04D1FFF7E9FF0122024B1A70FFF7E8FF08BDC0469C01002010B51D4AAD
:400B800011680C230B43136000241B4B1C601B4A1B4B1A601B4B1C4A13601C4A14601C4A14601C4A13601C4B1C600A20FFF75EFD0A200321FFF778FD0A201849FFF762FDBE
:400BC000174B1C60174B1C60174B1C601422FF32164B1A60164B1C60164B1C60043AFF3A154B1A70154B1C80154B1C60154B1C6010BDC0467000064000000640770800807C
:400C000060000640070100800003064004030640100306400002064004020640A9100000C80E0640880E0640480F0640080F0640C80F0640880F064055020020760200204F
:400C4000580200205C02002010B50A20FFF70EFD074B1B889BB21C1C064A1278920601D504241C430A20FFF7F7FC201C10BDC046760200205502002010B51F4B1C6800F06F
:400C800041F90028FBD0002000F04EF91B4A13680F218B4313601A4A13685B005B081360A3060FD5002000F03FF90A20FFF73AFD012000F039F900F043F90028FBD00A2097
:400CC000FFF730FD002000F02FF90A20FFF72AFD01220C4B1A600A4A1368802109060B43136006490B680F229343013A13430B60012000F019F910BD64000640100001406E
:400D00000000064068000640F0B583B001900C1C171C1D1C002919D0284B1B78102B0AD10A20FFF7A3FC264B1B68DB0701D508260FE000260DE0214B1B78602B08D1214A2B
:400D4000138808218B431380002602E0042600E00426002E2BD12822184B1A7000231A4A13601A4A13601A4B1F601A4B1C60EAB2194B1A70019B5C00FF231C40114A138825
:400D800002218B431380154A154B1A604023154A1360154A1360EB0704D5FFF76DFF134B1C6004E0114B1C600222114B1A600A20FFF752FC301C03B0F0BDC046550200201B
:400DC0006400064076020020700200205C02002064020020600200207402002017030000000F0640800F0640880F06404002064068000640F0B583B001900C1C171C1D1CAF
:400E0000002919D02D4B1B78102B0AD10A20FFF72DFC2B4B1B68DB0701D508260FE000260DE0264B1B78602B08D1264A138808218B431380002602E0042600E00426002EEE
:400E400035D129221D4B1A7000221F4B1A601F4A17601F4B1C60EBB21E490B70019B5C00FF231C400120044316490B8883430B8019491A4B19601368072B03D80422184B72
:400E80001A6008E0174A1368802149000B4313600822134B1A60EB0704D5FFF7EDFE124B1C6004E0104B1C600222104B1A600A20FFF7D2FB301C03B0F0BDC04655020020F8
:400EC000640006407602002058020020680200206C0200207402002017030000000F0640C80F0640600006404002064068000640034A136838218B43C000184310607047EF
:400F000008040440024B18688007C00F7047C04604040440034A136807218B43184310607047C04608040440031C04490868FE22024001201840104308607047000404402E
:400F4000024B1868012318407047C04604040440014B98647047C0460000002010B5041C00F098F8044A1168044B0B40A4051C43146000F093F810BD00E400E0FFFF3FFF70
:400F80000422014B1A60704700E100E00422014B1A60704780E100E010B5041CFFF7F6FF201CFFF7D5FF0320FFF7D8FFFFF7E8FF10BDC046024A117880230B431370704773
:400FC00072000F40014B18707047C04682000F40014B1878C0B2704762000F40014B18707047C04622000F40014B1878C0B2704742000F40014B18707047C04602000F409E
:4010000008B501E0FFF7F0FFFFF7E2FF0307F9D408BDC04608B56320FFF7E0FF6320FFF7E9FF00F037F8064A117810230B43137000F034F8FFF7E4FF0120FFF7C3FF08BDAF
:4010400092000F4008B5064B1B78002B04D1FFF7E1FF0122024B1A70FFF7ACFF08BDC046A4010020044B1B680F221340082BF9D0024B18607047C04608020740400207403F
:401080000230800804D0C0460138FDD1C046C046C0467047EFF3108072B6704780F310887047C046C046C04610B5C04B1B68002B00D09847BE4B1B68DB0702D50022BD4B0B
:4010C0001A60BD4B1B789B0628D5BC4B1B68DB0507D5BB4A1188C0239B000B431380012300E00023B54A1268D20706D5B44A118890239B000B4313800123002B0FD0AE4ABA
:401100001278D20701D5012200E00222AC49088802430A800021A84A117000E00023A64A1278920600D414E1A44A1268D20611D51022A44B1A60A04B1B78DB0701D501236E
:4011400000E002239E4A11880B43138010229A4B1A7029E1984A1278120720D5974A126892070AD50222974B1A60954A118888239B000B431380012311E08F4A1278D207A0
:4011800003D525218C4A117009E024218A4A11708D4A1268002A02D014398C4A1160864A1278520700D4ABE0834A1278D20749D5874A1268120727D5864A1268864909680C
:4011C0000F240C40854909686418141B082C09D8002C16D1824A1168824B0B401360012308340EE008240CE07C4A11687E48006841187E480068C0B208701168013111602E
:40120000013C002CF0D119E0714A1268520715D5724A116874480068411874480068C0B2087011680131116011686A4A1268914203D204216E4A116000E001236D496E4A28
:4012400011605DE05D4A1268920726D502225D4B1A606A4A13680F211940136880221202134000D00123CB18654A1168CB1A13601268644B1A60524A118884239B000B43CA
:401280001380614B1A68802149020A431A6019685E4A0A401A60012332E05D4A1268D20612D424E0564A1168474A1268914211D2534A11685748006841180978C9B25648CA
:4012C00001601168013111604C4A12680F210A40082AE7D14A4A11683B4A1268914202D140213A4A11604D494D4A116008E0484A1268520604D5424B1A68424B1A600123F8
:40130000002B51D0364A1168364B0B4013600023444A13602D4A1360434B1B789B070ED5254B1B78DB0701D5092300E00A23244A11880B43138060221F4B1A7034E03B4B89
:401340001B689B0601D5182200E01022284B1A602AE0194B1B78DB0626D4354A13685B005B0813601021144B19701D4B1868314901401960186830490140196000232949B6
:401380000B6012490B601B49254B196023491A4B19602A492A4B19602A490A4B19601368802109060B43136010BDC046A00100208C0E0640880E0640550200200C0F0640AF
:4013C00076020020000F064064020020880F0640CC0F064068020020080306405802002060000640FFFEFFFF6C0200204003064068000640ED0F0000C00F06400802064060
:40140000700200205C02002004020640FFFFFEFF8C0F06406002002040020640F3070000800F0640C80F0640740200206400064000000640FF5FFFFFFFFCFFFFFF0F000095
:40144000400F064017030000002243088B4274D303098B425FD3030A8B4244D3030B8B4228D3030C8B420DD3FF22090212BA030C8B4202D31212090265D0030B8B4219D3DA
:4014800000E0090AC30B8B4201D3CB03C01A5241830B8B4201D38B03C01A5241430B8B4201D34B03C01A5241030B8B4201D30B03C01A5241C30A8B4201D3CB02C01A5241E9
:4014C000830A8B4201D38B02C01A5241430A8B4201D34B02C01A5241030A8B4201D30B02C01A5241CDD2C3098B4201D3CB01C01A524183098B4201D38B01C01A524143093D
:401500008B4201D34B01C01A524103098B4201D30B01C01A5241C3088B4201D3CB00C01A524183088B4201D38B00C01A524143088B4201D34B00C01A5241411A00D201464B
:40154000524110467047FFE701B5002000F0FCF802BDC0460029F7D003B5FFF775FF0EBC4243891A1847C04603460B437FD4002243088B4274D303098B425FD3030A8B42AD
:4015800044D3030B8B4228D3030C8B420DD3FF22090212BA030C8B4202D31212090265D0030B8B4219D300E0090AC30B8B4201D3CB03C01A5241830B8B4201D38B03C01A7A
:4015C0005241430B8B4201D34B03C01A5241030B8B4201D30B03C01A5241C30A8B4201D3CB02C01A5241830A8B4201D38B02C01A5241430A8B4201D34B02C01A5241030AFF
:401600008B4201D30B02C01A5241CDD2C3098B4201D3CB01C01A524183098B4201D38B01C01A524143098B4201D34B01C01A524103098B4201D30B01C01A5241C3088B42C0
:4016400001D3CB00C01A524183088B4201D38B00C01A524143088B4201D34B00C01A5241411A00D201465241104670475DE0CA0F00D04942031000D34042534000229C4612
:4016800003098B422DD3030A8B4212D3FC22890112BA030A8B420CD3890192118B4208D3890192118B4204D389013AD0921100E08909C3098B4201D3CB01C01A52418309E4
:4016C0008B4201D38B01C01A524143098B4201D34B01C01A524103098B4201D30B01C01A5241C3088B4201D3CB00C01A524183088B4201D38B00C01A5241D9D243088B42F9
:4017000001D34B00C01A5241411A00D20146634652415B10104601D34042002B00D54942704763465B1000D3404201B5002000F00BF802BD0029F8D003B5FFF715FF0EBCA6
:401740004243891A1847C0467047C046014B18687047C0464C0100200E4B70B500251E1C0D4CE41AA410A54204D0AB00F35898470135F8E700F09CFD084B00251E1C084C0D
:40178000E41AA410A54204D0AB00F35898470135F8E770BDBC220000BC220000BC220000C4220000031C8218934202D019700133FAE770470EB410B59DB002A902900861F6
:4017C0000B48822488604861012040421FABC881084804CBA400006801938C8100F06CF80023029A13701DB010BC08BC03B01847FFFFFF7F4C010020F0B58E6885B0071CFC
:401800000C1C03920193B34245D390238A89DB001A423DD003250969236801985B1A029363695D43EB0F5D19029B6D1001331B189D4200D21D1C381C53050FD5291C00F06C
:4018400025FB061E13D0029A216900F0BCFAA289184B134080221343A38111E02A1C00F06DFB061E0CD1381C216900F0C9FA0C23402201203B60A38940421343A38117E0EB
:40188000029B2661F61826606561019EED1AA560019BB34200D2019E321C2068039900F09BFA0020A3689B1BA36023689E19266005B0F0BD7FFBFFFFF0B59FB00290059362
:4018C0008B890E1C171C1B0610D50B69002B0DD1402100F0DBFA30603061002804D10C23029A01381360D0E040237361002306AD6B6120336B761033AB763C1C2378002BFA
:4019000003D1E31B049312D003E0252BF9D00134F4E7049B0298311C3A1CFFF76DFF431C00D1ACE06A69049B944663446B612378002B00D1A3E00122002352426A6002A92E
:401940005432521801342B60EB60AB601370AB654F4F2178381C052200F02AFA002808D0C01B01278740381C2B68013418432860EEE72B68DA0604D55322202102A8121894
:4019800011701A0704D553222B2102A81218117022782A2A01D0099B0EE0059A111D12680591002A01DB099204E05242EA60022213432B60013409E02278303A092A04D8CF
:4019C0000A214B4301349B18F6E7099323782E2B18D163782A2B09D1059B02341A1D1B680592002B0DDA01235B420AE0002301342278303A092A04D80A214B4301349B18F6
:401A0000F6E70793234F2178381C032200F0D0F9002807D0C01B40278740381C2B6801341843286021781C480622671C297600F0BFF9002812D0194B002B06D10722059BC3
:401A4000073393430833059314E005AB00930298291C321C124B00E000BF07E005AB00930298291C321C0E4B00F08AF80390039B013304D06B69039A9B186B613DE7B38978
:401A80000B985B0601D5012040421FB0F0BDC0467A220000802200008422000000000000F9170000F7B5171C01930A698B6800900C1C934200DA131C221C3B6043321278EC
:401AC000002A01D001333B6023689B0602D53B6802333B60062523681D401ED0231C43331B785A1E9341226892061CD53020E1184031C870211C5A1C45310978A218403236
:401B00000233D1700FE0221C0123009801991932089EB047431C0ED00135E3683A689B1A9D42F0DBDAE7221C009801994332089DA847431C02D10120404220E00623206845
:401B4000E1683A6803400025042B03D18D1AEB43DB171D40A3682269934201DD9B1AED180027AF420ADA221C0123009801991A32089EB047431CDED00137F2E70020FEBD76
:401B8000F0B58BB006920A1C43320793059004920A7E0C1C109B6E2A00D1A8E011D8632A22D009D8002A00D1B2E0582A00D0C2E045310A707C4A4FE0642A1DD0692A1BD059
:401BC000B9E0732A00D1A7E009D86F2A29D0702A00D0B0E0202209680A43226037E0752A1FD0782A33D0A6E00E1C1A684236111D196013683370A1E021681A68080606D43B
:401C0000490604D5111D19600023D55E02E0111D19601568002D3BDA2D23049A6D42137036E021681A68080606D4490604D51568111D1960ADB202E0111D196015685A4BB8
:401C4000227E03930A276F2A1DD108271BE0221C782145321170554A19680392081D226818600D68100602D4500600D5ADB2D30702D520231A4322601027002D03D1202368
:401C800022689A432260231C002243331A7002E00A27454B03936368A360002B03DB0422216891432160002D02D1049E002B0ED0049E281C391CFFF74DFC039B013E5B5C0D
:401CC000281C3370391CFFF7BFFB051EF1D1082F09D12368DB0706D563682269934202DC3023013E3370049B9B1B23612BE009681A68080607D4490605D5111D1960136871
:401D0000A28A1A8004E0111D1960136862691A600023049E236116E01A68111D196016680021301C626800F043F8002801D0801B6060636803E0261C423632700123236144
:401D40000023049A1370079B05980093211C069B09AAFFF7A7FE431C02D10120404221E0236905980699321C079DA847431CF4D023689B0705D4099BE068984212DA181C93
:401D800010E00025E368099A9B1A9D42F3DA221C0123059806991932079EB047431CDCD00135EFE70BB0F0BD8B2200009C220000C9B28218904204D003788B4202D001304A
:401DC000F8E700207047002310B5934203D0CC5CC4540133F9E710BD10B5814208D28B18984205D29B1A013A09D3995C8154FAE70023934203D0CC5CC4540133F9E710BD63
:401E000030B500293ED004390B68002B00DAC9181D4A1368141C002B02D14B60116031E099420DD208680A189A4203D11368C3180B6053684B60216024E08A4203D8131C35
:401E40005A68002AF9D11D685C198C420BD10968691858181960904214D110685268091819605A600EE08C4202D90C23036009E008680C18944203D11468526800190860E9
:401E80004A60596030BDC046AC010020032370B5CC1C9C430834051C0C2C01D20C2405E0002C03DA0C2300202B6042E08C42F9D3204A1368101C191C002913D00A68121BE0
:401EC0000DD40B2A02D90A608B181FE08B4202D15A6802601BE04A685A600B1C17E00B1C4968E9E7144E3368002B03D1281C00F04BF83060281C211C00F046F8031C421CC5
:401F0000D0D00322C61C964386420AD11C60181C07210B301A1D8843821A0AD05142995007E0311A281C00F02FF8431CBAD0331CECE770BDAC010020A8010020F8B5061C4D
:401F40000C1C151C002904D1111CFFF79FFF041C18E0002A03D1FFF753FF2C1C12E000F025F8A8420ED2301C291CFFF78FFF071E07D0211C2A1CFFF726FF301C211CFFF7AC
:401F80003FFF3C1C201CF8BD38B50023064C051C081C2360FEF75AFA431C03D12368002B00D02B6038BDC046780200200B1F1A68101F002A04DA891804390B68D0180438F6
:401FC0007047000000000000426561740D0A000044697374616E63653A20256920636D0A0D00000050495220646574656B74657265722000626576616567656C73650A0DF9
:4020000000000000696B6B65206E6F6765740A0D000000004C756D656E206368616E6E656C303A2025692C206368616E6E656C313A2025690A0D000000300F40000400407E
:402040000F40000402000F404F300F402D310F4039320F402A330F4009400F4005410F4002600F40810F820D40234106420449FF4AFF4BFF4F0150185A045D015F0160409F
:40208000624064406540668068806A806C806E80800E8302840885088601871088028A018B018C0E900A9137951097099A0E9B639C049F04A34BAA0FB001B107B330B540A6
:4020C000B60EB708BE01BF50C023C106C204C5ECC620C80BC9FFCAFFCBFFCD83CE03CF01D018D403D604D804D904DA04DB04DC11DD11DF05E040E240E440E540E680E88042
:40210000EA80EC80EE800620074A0E010F4817101E411F402404252027512F40375A3E223F0840044220430145204620470149204D204F0556205E605F05660267407D02C0
:402140008A028D218F02C0F0C2D0C440CA80CCF0CEE0D0E7D224D6F0D880DE80E010E2800240030204200502060107010A2B0C200E06164017021A101B041E231F022439B2
:402180002604282B29022B043040322033063418350136073A803B083E01401645EC4702481349FF4AFF4BFF4F015018528054015604580459045A045B045C115D335F0140
:4021C0006040624064406540668068806A806C806E80054007580C080E0916281C401D401E2827182D202E20354037183E093F0847404C084D044F0154085C405D045F0155
:40220000678077408740920199209F08A304A610AB04C0F0C2E0C460CA20CC70CEC0D010D220D6D0D880032005046D10712089108D04C030DA80DC208520A520AB20E2106F
:40224000EC20010A100A0000030405060708090A0B0C0E0F101112131415161718191B1C1D1E1F2021222325262728292A2B2E2F30313233343500004300232D302B20002F
:40228000686C4C006566674546470030313233343536373839414243444546003031323334353637383961626364656600000000F8B5C046F8BC08BC9E4670471902000015
:4022C000C5040000F8B5C046F8BC08BC9E467047F1010000E8220000C80000208800000030010000000000000000000001FF01FF01FF01FF800200200000E02EC05D0000E5
:402300001800000000366E0104040400000000000000000000000000000000000000000000000000000000000000000078220000000000000000000000000000000000003A
:402340000000000000000000000000000000000000000000000000000000000000000000000000000000000000000000EC0000200000000000000000000000000000000051
:40238000000000000000000000000000000000000000000000000000000000000000000000000000000000000000000000000000000000000000000000000000000000001D
:4023C00000000000000000000000000000000000000000000000000000000000000000000000000000000000000000000000000000000000000000000000000000000000DD
:40240000000000000000000000000000000000000000000000000000000000000000000000000000000000000000000000000000000000000000000000000000000000009C
:40244000000000000000000000000000000000000000000000000000000000000000000000000000000000000000000000000000000000000000000000000000000000005C
:0200000490303A
:020000003ECCF4
:0200000490402A
:200000000000000000000000000000000000000000000000000000000000000000000000E0
:0200000490501A
:0C000000000204C81193110104D3505FEA
:0200000490600A
:0100000001FE
:00000001FF