:400000000010002011000000D50C0000D50C000008B500F079FEC04638B5204C23688022D20213432360182000F02EFF22681C4B134023601B4A1C4B1A6010221B4B1A60EC
:4000400010321B4B1A6030231A4A13601A4A13601A4A13601A4A136021221A4B1A6080221206194B1A6000252560184B184A1360184A1360184A194B1A60194A194B1A60BD
:40008000194A1A4B1A600920194900F0BBFE092000F0A2FE174B1D6038BDC04600010B40FFFFFBFF0600008004010B40080202400C02024020020240240202402802024049
:4000C000340202403C02024008010B400E0000800000024040000240170000808000024076010080040002403F0100C044000240991000000C020B4010B572B60122394BB0
:400100001A70002410E0384863001A195200821891881B195B001A5AC31858880004104300F054FE0134E4B2012CECD92E49081C0C30343100F030FE03222C4B1A60CC2195
:4001400089032B4B19602B492B4B1960EE212B4B196099231B042A490B60A820C0032949086029490B6029490B60B020C0052849086028490B600521274B19600131274BCC
:400180001960274B1878043901431970254C21783C20814328380143217018781621014319708421204B19708339204B196035311F4B19601F4B3439196030231E490B60D0
:4001C0001E490B601E491F4B19601F4B1A601F491F4B19601F4B1A6021321F4B1A60FFF71BFF10BD1C700F40A42E00000000014008000140EEEE00000C000140100001400B
:4002000000500F4008500F4010500F4020500F4028500F4030500F402000004000800F4000700F4001700F40DB300F40000004400800044000010440080104400002044004
:40024000F16203000802044000030440A40D000208030440000404400804044010B5064C2378002B07D1054B002B02D0044800E000BF0123237010BD6801002000000000FF
:40028000FC2C000008B5084B002B03D00748084900E000BF07480368002B00D108BD064B002BFBD09847F9E700000000FC2C00006C010020C80000200000000010B500F0F6
:4002C0004FFF80246402241A0D4B181A3A2101F0D3FF0C4B8822985004329B58A34203DD8B3A094BDA7207E00024084B1C70002001F004FD044B5C72012001F033F810BD61
:400300001D000100C8010020CC00002084010020044B03225A70013A1A71013ADA715A737047C046CC00002070B5084E45002D18A85D01307319597802F084F8C9B2A955A6
:40034000002902D174190123A37070BDCC00002008B500F0BDFF0020FFF7E6FF0220FFF7E3FF0420FFF7E0FF08BDC046F0B54F4680B484B0204C206800F09EFC051C606879
:4003800000F09AFC401B80B2031C00B20A2800DD0A231A1C1BB20A3301DA184B1A8893B29946154C9127E35D9026A05D9225615D12B2009001911248124902F047F9104833
:4003C00000F0E8FF4B466A46D373D37BE05D1818C0B2E055A25D9A18A255625D9B18635501F07EFAA05D01F0F9F9605D01F0FAFA04B004BC9146F0BDC8010020002D000072
:400400005C020020042D000030B58DB062B600F0FBFB00F0D7FE704800F004FF01F032FA01F0B2FA01F032FBFFF772FF00F08AFF6A4800F031FF062000F040FA00F0C8F9F2
:4004400000F0DEF900F052FA012815D003A800F043FA039C049DE0B2E9B200F093FA604B1A78009505A85F49231C02F0EFF805A800F090FF00F072FA00F0E2F95A4B9B785F
:40048000002B0ED00022584B9A70002000F06AFF012000F073FF0A2000F0ECFC002000F06DFF514BDB7A002B19D04F4A0023D372537A0133DBB253724C4A1278002A0ED168
:4004C000002B0CD00A32484B5A72093A474B1A70012001F013FC4420FF2100F053FA424B1B7A002B1CD000223F4B1A728523404AD35C002B10D000F0A3FE041E08D084220B
:400500003B498A5C824203D04520FF2100F03AFA8423374AD45403E000218423344AD154314B9B7B002B2CD000222F4B9A7385232F4AD35C002B24D08423D35C002B16D0BB
:40054000141C01229323E25401F01EFA01F09AF901F09CFA9123E05C01F0C2F99023E05C01F03CF99223E05C01F03CFA09E0002193231F4AD15401F095F901F011F901F0A6
:4005800013FA194B5B79002B00D159E70022164B5A7100F04FFB051C164C201C291C00F03FF8201C00F052F8083C20609323E35C002B05D00E4B5B68002B01D0FFF7D6FEF6
:4005C0000D4C0B4B1B68201C0C492A1C02F03EF8201C00F0DFFE33E7BD02000051030000F8020020242D0000CC00002084010020C8010020D00100205C020020402D0000D3
:40060000002304E09A0001214942115001331D2BF8DD002378228354013283547047C04638B5041C7825405D8300195101301E2101F008FF61557922A35C0133DBB2A354BB
:400640001E2B02D95B3A7923E25438BD10B57923C25C002A0DD00024002303E09900095864180133111E9942F8DC201C01F004FE00E0002010BDC04638B5002902D00129AE
:4006800005D001E0464C03E08024E40000E0454C002800D124016243950A5C43A40A002D04D0A002291C01F057FD00E00020411C4908049B002B02D0012B16D02CE0402969
:4006C0002DD9802930D9C02932D980235B00994231D93833994232D96233994234D9324B994234D8122318204FE0432932D9852935D9C82937D985235B00994236D94E230B
:40070000FF33994235D94D33994237D9264B994239D82B23372038E00023002035E0DF235B00F920400030E0204B852080002CE01F4B204829E0204B9C20800025E0FE23B7
:400740005B007020FF3020E0FB23D2201DE0002300201AE0AE23FF338120800015E0174B8A20800011E0164B16480EE0164B17480BE0DE23FF337820FF3006E02823FF33CA
:400780000220FF3001E000230020021C6A435C43101B80239B019C466044800B38BDC04617750000E70F00009A020000D10200007B0300003F020000FE030000C102000070
:4007C0006303000053020000DF0300008202000008B50948042101F047FA01F083FA01F01BFA0648042101F05DFA01F081FA01F027FA01F071F908BDDC000020F402002094
:4008000000B583B001F002FAC30614D501F064FA04280CD1094B1B78BE2B08D1074BDB78EF2B04D1054B5878997800F069F801F05FFA01F005FA03B000BDC046F402002054
:4008400008B501F0E3F9C30703D501F04BFA01F0E3F908BD70B582B0009101920368002B0BD0041C9D680C2001F024FE6B46021C42CB42C285602368986002B070BDC04607
:4008800030B583B0041C009101920C2001F012FE002806D06B46021C22CB22C200238360206003B030BDC04608B5002805D0031C006882681A6001F007FE08BD044A002314
:4008C00013609B6053601072024A13707047C04688010020F802002010B5034B1B68021C12CB12C210BDC04688010020034B1B68002B01D1012000E00020704788010020D6
:4009000010B582B000900191124B1A78124B1B7A9A421DD2FFF7EAFF01280DD00E4C201D0099019AFFF796FF63689B686360094A1378013313700BE0074C201C0099019AE3
:40094000FFF79EFF23686360024A13780133137002B010BDF80200208801002008B50748FFF7A2FF064A1378013B1370FFF7BEFF012802D10022014B5A6008BD8801002044
:40098000F802002070B50C1C031C303BDAB2152A00D911E19300894AD3589F46884B5870884D91242A5D9A70874800F0F3FC285D00F0FEFC00F00CFDFEE0824D9126A9550C
:4009C000081C00F08DFF00F0DFFF01229323EA547E4800F0DFFCA85D00F0EAFC00F0F8FCEAE0774B5870774D90242A5D9A70784800F0D0FC285D00F0DBFC00F0E9FCDBE06D
:400A0000704D9026A955081C00F0E8FE00F03AFF01229323EA546F4800F0BCFCA85D00F0C7FC00F0D5FCC7E0654B5870654D92242A5D9A70684800F0ADFC285D00F0B8FCA9
:400A400000F0C6FCB8E05F4D9226A955081C00F0C9FF01F01BF801229323EA545F4800F099FCA85D00F0A4FC00F0B2FCA4E0544B5870544D93242A5D9A70594800F08AFC89
:400A8000285D00F095FC00F0A3FC95E093234D4AD154002906D000F077FF00F0F3FE00F0F5FF05E000F0FEFE00F07AFE00F07CFF4C4800F06FFC9323424AD05C00F078FC2B
:400AC00000F086FC78E03E4C60703E4B186800F0F3F8A070444800F05DFCA07800F068FC00F076FC68E0081C00F0F0F8354C60603E4800F04FFC207900F05AFC00F068FCC2
:400B00005AE02F4B587088232E4AD358FE2B01DCDBB200E0FF232A4CA370354800F03AFCA07800F045FC00F053FC45E03A235C43244E8C2574512F4800F02CFC705D00F04D
:400B400037FC00F045FC37E01D4B587099702A4800F020FC201C00F02BFC00F039FC2BE0174B58708423174AD35C002B00D0FF23134A9370214800F00DFC8423114AD05C52
:400B800000F016FC00F024FC16E00E4E852571551B4800F0FFFB705D00F00AFC00F018FC0AE0074B58709970164800F0F3FB201C00F0FEFB00F00CFC70BDC046542D000033
:400BC000DC000020C8010020AC2D0000B82D0000C42D0000D42D0000E42D0000F02D0000FC2D00000C2E00001C2E00002C2E00003C2E00004C2E00005C2E0000702E00001F
:400C0000802E0000902E000008B50948002343608C228350073A83540E328354023A8354013A8354023283540830FFF7E9FC08BDC801002010B584B002A9AC230B7029209C
:400C40000122AA3B00F09CFC00F03AFC0307FBD5292003A90222032300F008FD00F030FC0307FBD503AB1A785C782402141902A9AE230B7029200122AB3B00F081FC00F0AD
:400C80001FFC0307FBD5292003A90222012300F0EDFC00F015FC4307FBD403AA117853781B02CB180022009200200221221CFFF7E3FC04B010BDC04608B5062101F04CFA62
:400CC000FE2801DCC0B200E0FF2008BD4300181840007047FEE7C04608B5031C084A1068C318084A9A1A802A02DC054A136005E001F0B4FB0C2303600120404208BDC04610
:400D0000E00000205003002070B50F4E0F4D13E029686B68AC68002202E001C901C30432A242FAD1E868002202E0002102C304328242FAD11035013E002EE9D101F094FB95
:400D4000FFF762FBFEE7C04601000000C831000008B500230AE0032B03D89A000A49505800E00A4899000A4A885001332F2BF2D9FFF7C2F90022074B1A608022D2051168F2
:400D800001230B43136008BD00000000D50C000000000020C0000020F0B50025002711E0BB00C658F3B2FF22964308E06A008A181478A419527822700135013BDBB2002B8B
:400DC000F4D10137092FEBD9F0BDC04608B50A1C002101F083FB08BD1F2318401E3B8340181C014B1860704700E100E01F2318401E3B8340181C014B1860704780E100E043
:400E000001BE704738B5041C0D1C1F2802D90020FFF7F6FFA400034B9C4664442068256038BDC0464000002070B5041C0E1E032E02D90020FFF7E4FF1F2C02D90020FFF743
:400E4000DFFF03252540ED00063500F06FFFA408A400074B9C46644423680322AA409343AE40351C1D43256000F064FF70BDC04600E400E008B5034B1B7A584300F04CFF01
:400E800008BDC046E4000020F0B557464E46C0B483B0041C00F04AFF0190E71E2D2F74D83F4B1B78DBB2A34208D33E4B1B78DBB29A463D4B1B78DBB2994631E03B4B1B78AB
:400EC000DBB2A34208D33A4B1B78DBB29A46394B1B78DBB2994623E0374B1B78DBB2A34208D3364B1B78DBB29A46354B1B78DBB2994615E0334B1B78DBB2A34208D3324B68
:400F00001B78DBB29A46314B1B78DBB2994607E02F4B1B78DBB29A462E4B1B78DBB299462D4BDE5D2F2E09D92A2C07D919222B4B1A60052000F0F0FE192503E0274B1D68EF
:400F40003F231D40AE4206D2234BDA5D234B1A60052000F0E1FE1F4B9C4664442378DBB21F4A13601F4B52461A601F4B4A461A600520FFF77FFFAE420AD9174BDA5D174B1A
:400F80001A60052000F0C8FE02E00020FFF738FF019800F0CFFE03B00CBC91469A46F0BDC0F1FF0FC1F1FF0FC2F1FF0FC3F1FF0FC4F1FF0FC5F1FF0FC6F1FF0FC7F1FF0F64
:400FC000C8F1FF0FC9F1FF0FCAF1FF0FCBF1FF0FCCF1FF0FCDF1FF0F283100002CFF0B4028FF0B401CFF0B4020FF0B40034B1868C0231B02184000D00120704700010B400D
:4010000008B500F093FE044A1368C02109020B43136000F08FFE08BD00010B4010B500F085FE08490A68084B1A408024E40122430A600A6813408022120213430B6000F042
:4010400079FE10BD00010B40FF3FFFFF70B5061C00F06CFE041CFFF7C9FF002803D0FFF7DDFF012500E000250848331C0340084A106808490840184310601368012D01D1A2
:40108000FFF7BEFF201C00F055FE70BD0404040010020B40FBFBFBFF10B5244B1B685B0715D5234B1B685B070ED5224B9969042001401F4C22688A4322609A6982439A6164
:4010C000DB68002B00D098470420FFF7BFFF174B1B685B0518D5164B1B685B0510D5154B99698022D2001140114802688A4302609969114A0A409A611B69002B00D0984787
:401100008020C000FFF7A2FF084B1B685B030CD5074B1B685B0304D5064B5B69002B00D098478020C002FFF791FF10BD10020B40F400002094010020FFFBFFFF014B187001
:401140007047C04681000F40014B1878C0B2704761000F40014B18807047C04640100F40014B188880B2704780100F40014B18807047C04600100F4008B501E0FFF7F0FFB6
:40118000FFF7E2FF0307F9D408BDC04610B50B4C201CFFF7DFFF201CFFF7E8FF00F0C6FD074A117810230B43137000F0C3FDFFF7E3FF0220FFF7C2FF10BDC046FFFF0000AE
:4011C00091000F4008B5054B1B78002B04D1FFF7DDFF0122014B1A7008BDC046B0010020014B18647047C0460000002010B5041C00F09CFD044A1368C0218B43A4011C4379
:40120000146000F097FD10BD00E400E00122014B1A60704700E100E00122014B1A60704780E100E010B5041CFFF7F6FF201CFFF7D7FF0320FFF7DAFFFFF7E8FF10BDC04669
:40124000024B18680007C00F7047C04604020440014B98647047C0460000002010B5041C00F064FD044A1168044B0B40A4051C43146000F05FFD10BD00E400E0FFFF3FFF73
:401280000422014B1A60704700E100E00422014B1A60704780E100E010B5041CFFF7F6FF201CFFF7D5FF0320FFF7D8FFFFF7E8FF10BDC046024A117880230B431370704770
:4012C00072000F40014B18707047C04682000F40014B1878C0B2704762000F40014B18707047C04622000F40014B1878C0B2704742000F40014B18707047C04602000F409B
:4013000008B501E0FFF7F0FFFFF7E2FF0307F9D408BDC04608B56320FFF7E0FF6320FFF7E9FF00F003FD064A117810230B43137000F000FDFFF7E4FF0120FFF7C3FF08BD0A
:4013400092000F4008B5064B1B78002B04D1FFF7E1FF0122024B1A70FFF7ACFF08BDC046B101002004490A68FB231A408000F73B18401043086070470002044004490A6825
:40138000FD231A404000FB3B18401043086070470002044038B5051C0078012404E000F01FF8285D0134E4B20028F8D138BDC04638B5041C0309054DE85C00F011F80F2381
:4013C0001C40285D00F00CF838BDC0465831000008B50D2000F004F80A2000F001F808BDFEB5494652465B460EB407462E4909688A462E4A12682E48022100F0ADFE03007B
:401400002A480068C0182A4900F0A6FE06001F3EB346234A126801219140C9430C000125002600F083FC814651460B6823400B605846043000F070FC3800F040284090407D
:401440000B68234003430B60584600F065FC0136072EF1D900200130012090400B68234003430B605846063000F056FC484600F061FCC046C046C0460EBC894692469B46A2
:40148000FEBDC046C046C046C046C046C046C046C046C046C046C046C046C046C046C04600010020FC000020F8000020F000002080250000C046C046C046C046C046C046E9
:4014C00010B50B20FFF792FC074B1B889BB21C1C064A1278920601D504241C430B20FFF77BFC201C10BDC04610030020F902002010B51F4B1C6800F037F90028FBD0002054
:4015000000F03AF91B4A13680F218B4313601A4A13685B005B081360A3060FD5002000F02BF90A20FFF7A6FC012000F025F900F02FF90028FBD00A20FFF79CFC002000F0A2
:401540001BF90A20FFF796FC01220C4B1A600A4A1368802109060B43136006490B680F229343013A13430B60012000F005F910BD640007400C0001400000074068000740E2
:40158000F0B583B001900C1C171C1D1C002919D0284B1B78102B0AD10B20FFF727FC264B1B68DB0701D508260FE000260DE0214B1B78602B08D1214A138808218B431380ED
:4015C000002602E0042600E00426002E2BD12822184B1A7000231A4A13601A4A13601A4B1F601A4B1C60EAB2194B1A70019B5C00FF231C40114A138802218B431380154ADF
:40160000154B1A604023154A1360154A1360EB0704D5FFF76DFF134B1C6004E0114B1C600222114B1A600B20FFF7D6FB301C03B0F0BDC046F902002064000740100300206F
:4016400014030020FC02002008030020000300201803002017030000000F0740800F0740880F07404002074068000740F0B583B001900C1C171C1D1C002919D02D4B1B7816
:40168000102B0AD10B20FFF7B1FB2B4B1B68DB0701D508260FE000260DE0264B1B78602B08D1264A138808218B431380002602E0042600E00426002E35D129221D4B1A70BC
:4016C00000221F4B1A601F4A17601F4B1C60EBB21E490B70019B5C00FF231C400120044316490B8883430B8019491A4B19601368072B03D80422184B1A6008E0174A1368EF
:40170000802149000B4313600822134B1A60EB0704D5FFF7EDFE124B1C6004E0104B1C600222104B1A600B20FFF756FB301C03B0F0BDC046F90200206400074010030020A6
:401740000C030020040300201C0300201803002017030000000F0740C80F0740600007404002074068000740024B18688007C00F7047C04604030440031C04490868FE2205
:4017800002400120184010430860704700030440024B1868012318407047C0460403044008B500F0C3FA044A136802218B43136000F0C0FA08BDC046000005400004000C03
:4017C000014B18607047C046480105400004000C014B18607047C046540105400004000C014B18607047C0464C01054038B5041C0D1C00F09BFAAC40024B1C6000F09AFA98
:4018000038BDC0460800054008B500F08FFA064A116802230B43136000F08CFA02201821FFF7E4FF08BDC04600000540014B18607047C0467801054010B50F4C8023DB04E0
:401840002360236823600020FFF7B8FF23688022920013432360F53AFF3A084B1A600020FFF7E4FF3122064B1A60FF20FFF7AEFF0020FFF7B3FF10BD40010540640105409F
:401880006801054008B5064B1B78002B04D1FFF7D3FF0122024B1A70FFF7B6FF08BDC046B201002008B500F041FA044A136804218B43136000F03EFA08BDC046000005407F
:4018C0000004000C014B18607047C046880105400004000C014B18607047C046940105400004000C014B18607047C0468C01054038B5041C0D1C00F019FAAC40024B1C60CD
:4019000000F018FA38BDC0460800054008B500F00DFA064A116804230B43136000F00AFA04201821FFF7E4FF08BDC04600000540014B18607047C046B801054010B50F4C1F
:401940008023DB042360236823600020FFF7B8FF23688022920013432360F53AFF3A084B1A600020FFF7E4FF3122064B1A60FF20FFF7AEFF0020FFF7B3FF10BD8001054086
:40198000A4010540A801054008B5064B1B78002B04D1FFF7D3FF0122024B1A70FFF7B6FF08BDC046B301002008B500F0BFF9044A136801218B43136000F0BCF908BDC046A1
:4019C000000005400004000C014B18607047C046080105400004000C014B18607047C046140105400004000C014B18607047C0460C01054038B5041C0D1C00F097F9AC4053
:401A0000024B1C6000F096F938BDC0460800054008B500F08BF9064A116801230B43136000F088F901201821FFF7E4FF08BDC04600000540014B18607047C0463801054084
:401A400010B50F4C8023DB042360236823600020FFF7B8FF23688022920013432360F53AFF3A084B1A600020FFF7E4FF3122064B1A60FF20FFF7AEFF0020FFF7B3FF10BD2B
:401A800000010540240105402801054008B5064B1B78002B04D1FFF7D3FF0122024B1A70FFF7B6FF08BDC046B401002008B50A20FFF792F908BDC04608B500F03BF808BD82
:401AC00008B5044A1368802109060B431360FFF7EDFF08BD0000064008B5064B1B78002B04D1FFF7E9FF0122024B1A70FFF7E8FF08BDC046B80100200A4B1B68DB050DD56E
:401B0000094B1B685B0409D4064B1968074A0A401A601A68802149000A431A600222044B1A6070470000064060000640FFFEFFFF6C00064010B51E4A11680C230B431360A5
:401B400000241C4B1C601C4A1C4B1A601C4B1D4A13601D4A14601D491D4A11601D4A13601D4B1C600A20FFF741F90A200121FFF75BF90A201949FFF745F9194B1C60194B0B
:401B80001C604C22FF32184B1A60184B1C60184B1C60184B1C603C3AFF3A174B1A70174B1C70174B1C60174B1C60174B1C7010BD700006400000064077080040600006402F
:401BC0000701008000030640040306402000FE00100306400002064004020640411D0000C80E0640880E0640480F0640080F0640C80F0640880F06402003002038030020D4
:401C0000240300202803002044030020014B1878C0B270473803002010B50A20FFF7E6F8064A14780F231C4013780D218B4313700A20FFF7D1F8201C10BDC04638030020C1
:401C400010B50A20FFF7D2F8064B1C780F229443197820320A401A700A20FFF7BDF8201C10BDC0463803002038B5002810D00D1C041C0A20FFF7BAF8064B1C60064B1D6027
:401C80000023064A1360064A13600A20FFF7A4F838BDC0463403002030030020240300203C03002038B500280ED00D1C041C0A20FFF79CF8054B1C60054B1D600022054B79
:401CC0001A600A20FFF788F838BDC046400300202C03002028030020014B18687047C046280300200022014B1A607047240300200022014B1A6070472803002004490A686F
:401D0000FD231A404000FB3B184010430860704700000440000000000230800804D0C0460138FDD1C046C046C0467047EFF3108072B6704780F310887047C046C046C0461C
:401D400010B5C04B1B68002B00D09847BE4B1B68DB0702D50022BD4B1A60BD4B1B789B061FD4BC4B1A680223FF331A4219D0B84B1B78DB0709D5B84B1A7802218A431A7094
:401D8000197809220A431A7008E0B34B1A7820218A431A70197890220A431A700022AC4B1A70AB4B1B789B0600D5B6E1A84B1B78DB0600D48AE1A74B1B689B073ED5022239
:401DC000A64B1A60A64A13680F211940136880221202134000D00123CB18A24A1278D2B29A4205D99C4A117804230B43137006E09C4A12789B1A9C490A68D31A0B609A4B6F
:401E00001A689A4B1A600023994A1360954A1370984B1A68802149020A431A601968964A0A401A608C4B1A7802218A431A70197801220A431A701022854B1A70854B1B685C
:401E40001B0737D50822854B1A608C4B1B689B040CD414E08A4B1A688A4909688A188A490968C9B211701A6801321A60874B1B681B07EFD1814A1168854B0B401360854B6E
:401E80001B689B0604D5744A117840230B4313700022814B1A60814A7E4B1A606E4B1A7820218A431A70197810220A431A70684B10221A70674B1B685B0641D50122784BB6
:401EC0001A60784B1B68DB060FD50F32684B1A60664B1A68644B1A605F4A117802230B43137012225A4B1A7024E06F4B1B68644A12689B1A072B03D80422674B1A6011E09A
:401F0000082B06D15D4A1368A02109020B43136008E05A4A1368802189010B43136008225D4B1A604C4A117820230B4313701122474B1A705D4A494B1A6001225C4B1A602E
:401F40005C4B1B681B072AD5574B1B684C4A1068181A0838082802D9002408200EE001240CE0474B1A68474909688A1846490968C9B211701A6801321A6001380028F0D117
:401F8000002C08D03D4A1368802109020B4313600022414B1A6008223E4B1A6023E0454B1B685B071FD5384B1B68354A11683E4A126891420DD201213D4A1160304A11682E
:401FC000304800684118DBB20B7013680133136006E0FFF791FD204A117840230B43137004222C4B1A60344B1B68DB061FD494E01D4B1A68314B1B689A420CD21A4B1A6802
:402000002F4909688A181278D2B22E490A601A6801321A600BE0FF222A4B1A60114B1B789B0604D40F4A13780133DBB213700C4B1B680F221340082BDAD10132224B1A6016
:402040006BE0C046BC0100208C0E0640880E0640200300204C0F064038030020400F064008020640440300203C03002024030020880F064004020640FFFFFEFF600006407B
:4020800028030020400300204003064008030640FF5FFFFFC00F0640C80F0640ED0F0000800E0640640006402C030020FF0F00006C000640CC0F06408C0F0640300300202C
:4020C0003403002040020640800F0640134A13685B005B0813601021114B1970114B1868114901401960186810490140196000230F490B600F490B600F49104B196010495C
:40210000104B19601049114B19601149114B19601368802109060B43136010BD000006402003002060000640FF5FFFFFFFFCFFFFC80F0640880F0640ED0F0000800F064066
:40214000F3070000C00F0640FF0F0000400F064017030000000F0640002243088B4274D303098B425FD3030A8B4244D3030B8B4228D3030C8B420DD3FF22090212BA030C28
:402180008B4202D31212090265D0030B8B4219D300E0090AC30B8B4201D3CB03C01A5241830B8B4201D38B03C01A5241430B8B4201D34B03C01A5241030B8B4201D30B0324
:4021C000C01A5241C30A8B4201D3CB02C01A5241830A8B4201D38B02C01A5241430A8B4201D34B02C01A5241030A8B4201D30B02C01A5241CDD2C3098B4201D3CB01C01A20
:40220000524183098B4201D38B01C01A524143098B4201D34B01C01A524103098B4201D30B01C01A5241C3088B4201D3CB00C01A524183088B4201D38B00C01A5241430806
:402240008B4201D34B00C01A5241411A00D20146524110467047FFE701B5002000F0FCF802BDC0460029F7D003B5FFF775FF0EBC4243891A1847C04603460B437FD4002217
:4022800043088B4274D303098B425FD3030A8B4244D3030B8B4228D3030C8B420DD3FF22090212BA030C8B4202D31212090265D0030B8B4219D300E0090AC30B8B4201D3FB
:4022C000CB03C01A5241830B8B4201D38B03C01A5241430B8B4201D34B03C01A5241030B8B4201D30B03C01A5241C30A8B4201D3CB02C01A5241830A8B4201D38B02C01A68
:402300005241430A8B4201D34B02C01A5241030A8B4201D30B02C01A5241CDD2C3098B4201D3CB01C01A524183098B4201D38B01C01A524143098B4201D34B01C01A524129
:4023400003098B4201D30B01C01A5241C3088B4201D3CB00C01A524183088B4201D38B00C01A524143088B4201D34B00C01A5241411A00D201465241104670475DE0CA0FA1
:4023800000D04942031000D34042534000229C4603098B422DD3030A8B4212D3FC22890112BA030A8B420CD3890192118B4208D3890192118B4204D389013AD0921100E041
:4023C0008909C3098B4201D3CB01C01A524183098B4201D38B01C01A524143098B4201D34B01C01A524103098B4201D30B01C01A5241C3088B4201D3CB00C01A5241830884
:402400008B4201D38B00C01A5241D9D243088B4201D34B00C01A5241411A00D20146634652415B10104601D34042002B00D54942704763465B1000D3404201B5002000F07C
:402440000BF802BD0029F8D003B5FFF715FF0EBC4243891A1847C0467047C046014B18687047C046640100200E4B70B500251E1C0D4CE41AA410A54204D0AB00F35898474D
:402480000135F8E700F08EFE084B00251E1C084CE41AA410A54204D0AB00F35898470135F8E770BDB0310000B0310000B0310000B831000008B5034B011C186800F05CF889
:4024C00008BDC0466401002008B5034B011C186800F00CF808BDC04664010020031C8218934202D019700133FAE7704730B500293ED004390B68002B00DAC9181D4A136857
:40250000141C002B02D14B60116031E099420DD208680A189A4203D11368C3180B6053684B60216024E08A4203D8131C5A68002AF9D11D685C198C420BD109686918581806
:402540001960904214D110685268091819605A600EE08C4202D90C23036009E008680C18944203D114685268001908604A60596030BDC046C4010020032370B5CC1C9C4351
:402580000834051C0C2C01D20C2405E0002C03DA0C2300202B6042E08C42F9D3204A1368101C191C002913D00A68121B0DD40B2A02D90A608B181FE08B4202D15A6802604D
:4025C0001BE04A685A600B1C17E00B1C4968E9E7144E3368002B03D1281C00F025F83060281C211C00F020F8031C421CD0D00322C61C964386420AD11C60181C07210B3095
:402600001A1D8843821A0AD05142995007E0311A281C00F009F8431CBAD0331CECE770BDC4010020C001002038B50023064C051C081C2360FEF750FB431C03D12368002BEE
:4026400000D02B6038BDC046480300200EB410B59DB002A9029008610B48822488604861012040421FABC881084804CBA400006801938C8100F06CF80023029A13701DB0B0
:4026800010BC08BC03B01847FFFFFF7F64010020F0B58E6885B0071C0C1C03920193B34245D390238A89DB001A423DD003250969236801985B1A029363695D43EB0F5D1978
:4026C000029B6D1001331B189D4200D21D1C381C53050FD5291CFFF74FFF061E13D0029A216900F0BCFAA289184B134080221343A38111E02A1C00F0CFFA061E0CD1381C41
:402700002169FFF7F3FE0C23402201203B60A38940421343A38117E0029B2661F61826606561019EED1AA560019BB34200D2019E321C2068039900F09BFA0020A3689B1BB9
:40274000A36023689E19266005B0F0BD7FFBFFFFF0B59FB0029005938B890E1C171C1B0610D50B69002B0DD14021FFF705FF30603061002804D10C23029A01381360D0E002
:4027800040237361002306AD6B6120336B761033AB763C1C2378002B03D1E31B049312D003E0252BF9D00134F4E7049B0298311C3A1CFFF76DFF431C00D1ACE06A69049BC7
:4027C000944663446B612378002B00D1A3E00122002352426A6002A95432521801342B60EB60AB601370AB654F4F2178381C052200F02AFA002808D0C01B01278740381CA6
:402800002B68013418432860EEE72B68DA0604D55322202102A8121811701A0704D553222B2102A81218117022782A2A01D0099B0EE0059A111D12680591002A01DB0992E2
:4028400004E05242EA60022213432B60013409E02278303A092A04D80A214B4301349B18F6E7099323782E2B18D163782A2B09D1059B02341A1D1B680592002B0DDA012302
:402880005B420AE0002301342278303A092A04D80A214B4301349B18F6E70793234F2178381C032200F0D0F9002807D0C01B40278740381C2B6801341843286021781C48CD
:4028C0000622671C297600F0BFF9002812D0194B002B06D10722059B073393430833059314E005AB00930298291C321C124B00E000BF07E005AB00930298291C321C0E4BBA
:4029000000F08AF80390039B013304D06B69039A9B186B613DE7B3890B985B0601D5012040421FB0F0BDC0466E31000074310000783100000000000091260000F7B5171C1A
:4029400001930A698B6800900C1C934200DA131C221C3B6043321278002A01D001333B6023689B0602D53B6802333B60062523681D401ED0231C43331B785A1E9341226890
:4029800092061CD53020E1184031C870211C5A1C45310978A21840320233D1700FE0221C0123009801991932089EB047431C0ED00135E3683A689B1A9D42F0DBDAE7221C27
:4029C000009801994332089DA847431C02D10120404220E006232068E1683A6803400025042B03D18D1AEB43DB171D40A3682269934201DD9B1AED180027AF420ADA221C5F
:402A00000123009801991A32089EB047431CDED00137F2E70020FEBDF0B58BB006920A1C43320793059004920A7E0C1C109B6E2A00D1A8E011D8632A22D009D8002A00D1F6
:402A4000B2E0582A00D0C2E045310A707C4A4FE0642A1DD0692A1BD0B9E0732A00D1A7E009D86F2A29D0702A00D0B0E0202209680A43226037E0752A1FD0782A33D0A6E0A5
:402A80000E1C1A684236111D196013683370A1E021681A68080606D4490604D5111D19600023D55E02E0111D19601568002D3BDA2D23049A6D42137036E021681A680806FD
:402AC00006D4490604D51568111D1960ADB202E0111D196015685A4B227E03930A276F2A1DD108271BE0221C782145321170554A19680392081D226818600D68100602D482
:402B0000500600D5ADB2D30702D520231A4322601027002D03D1202322689A432260231C002243331A7002E00A27454B03936368A360002B03DB0422216891432160002D32
:402B400002D1049E002B0ED0049E281C391CFFF789FB039B013E5B5C281C3370391CFFF7FBFA051EF1D1082F09D12368DB0706D563682269934202DC3023013E3370049B4C
:402B80009B1B23612BE009681A68080607D4490605D5111D19601368A28A1A8004E0111D1960136862691A600023049E236116E01A68111D196016680021301C626800F08B
:402BC00043F8002801D0801B6060636803E0261C42363270012323610023049A1370079B05980093211C069B09AAFFF7A7FE431C02D10120404221E0236905980699321C66
:402C0000079DA847431CF4D023689B0705D4099BE068984212DA181C10E00025E368099A9B1A9D42F3DA221C0123059806991932079EB047431CDCD00135EFE70BB0F0BD8A
:402C40007F31000090310000C9B28218904204D003788B4202D00130F8E700207047002310B5934203D0CC5CC4540133F9E710BD10B5814208D28B18984205D29B1A013AD0
:402C800009D3995C8154FAE70023934203D0CC5CC4540133F9E710BDF8B5061C0C1C151C002904D1111CFFF767FC041C18E0002A03D1FFF71BFC2C1C12E000F013F8A842B3
:402CC0000ED2301C291CFFF757FC071E07D0211C2A1CFFF7C4FF301C211CFFF707FC3C1C201CF8BD0B1F1A68101F002A04DA891804390B68D0180438704700000000000008
:402D0000F6FF000044656C74613A2025692C205247423A2025692C2025692C2025690A0D0000000051756575653A20256920436D643A2025692043616C3A2025690A0D00BA
:402D40004C75783A2025752C206D65616E3A2025690A0D00BA090000000A0000460A0000E60A00008C0A00009C090000E2090000280A0000C60A00006E0A0000B80B0000CA
:402D8000B80B0000B80B0000B80B0000B80B0000B80B00002C0B00008A0B0000020B0000600B0000480B0000A20B0000636D64476574526564200000636D6453657452655A
:402DC00064200000636D64476574477265656E2000000000636D64536574477265656E2000000000636D64476574426C75652000636D64536574426C75652000636D6447FA
:402E00006574506F7765722000000000636D64536574506F7765722000000000636D644765744C756D656E2000000000636D645365744C756D656E2000000000636D64478E
:402E4000657444697374616E63652000636D6453657444697374616E63652000636D6444697374616E6365416C65727420000000636D644765744D6F76656D656E7420004D
:402E8000636D645365744D6F76656D656E742000636D644D6F76656D656E74416C6572742000000000300F40000400400F40000402000F405B300F403B310F403D320F40F6
:402EC00037330F4006400F4005410F4006420F4008430F4002600F40810F820D04010A0212011403150123012701320337013F4040234106420549FF4AFF4BFF4F015018E1
:402F0000580459045A045C015D015F016040624064406540668068806A806C806E8083028507861F88208B019020921C930494209703983C9C089E22A01CA303A410A60120
:402F4000A701A804AA21AC14B001B220B402B61CB707BE11C063C102C205C5ECC620C80BC9FFCAFFCBFFCD83CE03CF01D018D403D604D804D904DA04DB04DC11DD11DF05A9
:402F8000E040E240E440E540E680E880EA80EC80EE80001001080504070808040A200B400C400E110F48162A1702181019041C041E611F802002270229082A082B802D0896
:402FC0002F80330835043702380C3E223F08400442204404462048014A024B204C044E024F0556205E605F0566027E107F108748C066C2FCC4F0CAC3CCC2CEE0D066D23CB1
:40300000D6F0D880DE40E6020208030106030A010B01150116061A081B02220324032701280129012A042B023008320735033A083B203E01401645EC4702481349FF4AFF6A
:403040004BFF4F015018528054015604580459045A045B045C115D335F016040624064406540668068806A806C806E808A0193029503A701A901B103B201D804D904DC11C6
:40308000DF010208030C050807480E100F0814441501170419081E5021022610270829082B082C042D083004310236183D013E1047404C084D044F01540857045D045E40AA
:4030C0005F0165017740961098449D099F08A308AA10AB04AE02B501C072C260C470CA66CC63CEA0D010D220D6D0D880E280EE4453046F207308D420DA80DC208B04970878
:40310000AF20B708EE10004860118404C00AD602D802180119081C1089089411A840C60EE201010A100A0000030405060708090A0B0C0E0F101112131415161718191B1C7A
:403140001D1E1F2021222325262728292A2B2E2F303132333435000030313233343536373839414243444546000000004300232D302B2000686C4C006566674546470030C7
:40318000313233343536373839414243444546003031323334353637383961626364656600000000F8B5C046F8BC08BC9E46704785020000510D0000F8B5C046F8BC08BC65
:4031C0009E4670475D020000D8310000C8000020A0000000E80100000000000001FF0001FF0001FF0001FF0001FF0000BEEEEEEF500300200000E02EC05D0000180000001C
:4032000000366E010404040000010440010000000100000000000000000000000000000000000000000000000000000000000000000000006C3100000000000000000000F9
:403240000000000000000000000000000000000000000000000000000000000000000000000000000000000000000000000000000000000004010020000000000000000029
:40328000000000000000000000000000000000000000000000000000000000000000000000000000000000000000000000000000000000000000000000000000000000000E
:4032C00000000000000000000000000000000000000000000000000000000000000000000000000000000000000000000000000000000000000000000000000000000000CE
:40330000000000000000000000000000000000000000000000000000000000000000000000000000000000000000000000000000000000000000000000000000000000008D
:40334000000000000000000000000000000000000000000000000000000000000000000000000000000000000000000000000000000000000000000000000000000000004D
:0200000490303A
:0200000085E495
:0200000490402A
:200000000000000000000000000000000000000000000000000000000000000000000000E0
:0200000490501A
:0C000000000204C81193110104D8977786
:0200000490600A
:0100000001FE
:00000001FF