:400000000010002011000000AD0B0000AD0B000008B500F0E5FDC04638B5204C23688022D20213432360182000F0B2FE22681C4B134023601B4A1C4B1A6010221B4B1A6050
:4000400010321B4B1A6030231A4A13601A4A13601A4A13601A4A136021221A4B1A6080221206194B1A6000252560184B184A1360184A1360184A194B1A60194A194B1A60BD
:40008000194A1A4B1A600920194900F027FE092000F00EFE174B1D6038BDC04600010B40FFFFFBFF0600008004010B40080202400C02024020020240240202402802024071
:4000C000340202403C02024008010B400E0000800000024040000240170000808000024076010080040002403F0100C044000240A10F00000C020B4038B572B60122384B82
:400100001A70002410E0374863001A195200821891881B195B001A5AC31858880004104300F0C0FD0134E4B2012CECD92D49081C0C30343100F09CFD03222B4B1A60CC21C2
:4001400089032A4B19602A492A4B1960EE212A4B196099231B0429490B60A820C0032849086028490B6028490B60B020C0052749086027490B600521264B19600131264BD8
:400180001960264B1C78022020431870244D28783C24A043283C204328701C7816202043187084201F4B187001231F4803601F4801601F4803601F4B19602A311E4B196016
:4001C0001E491F4B19601F4B1A601F491F4B19601F4B1A6021321F4B1A60FFF71DFF38BD1C700F40543200000000014008000140EEEE00000C0001401000014000500F4060
:4002000008500F4010500F4020500F4028500F4030500F402000004000800F4000700F4001700F40DB300F400000044008000440000104400801044000020440F16203004D
:400240000802044000030440A40D000208030440000404400804044010B5064C2378002B07D1054B002B02D0044800E000BF0123237010BD6801002000000000EC30000039
:4002800008B5084B002B03D00748084900E000BF07480368002B00D108BD064B002BFBD09847F9E700000000EC3000006C010020C80000200000000010B500F0D5FE8024B3
:4002C0006402241A0C4B181A3A2102F0CDF90B4B8822985008329B58A34203DD8F3A084BDA7204E00023074A1370054A5372012000F0BCFF10BDC0461D000100CC010020E3
:40030000CC00002084010020034B03225A70013A1A71013ADA717047CC00002070B5084E45002D18A85D01307319597802F082FAC9B2A955002902D174190123A37070BD94
:40034000CC00002008B500F047FF0020FFF7E6FF0120FFF7E3FF0220FFF7E0FF0420FFF7DDFF08BD30B585B062B600F0B1FB00F0ADFE4C4800F0DAFE00F0BCFB01F0B2FAEF
:4003800001F032FB01F0B2FBFFF7BEFF00F05EFF454800F005FF00F0C3F900F099F90AE0684600F0C9F9009BD8B26B46197900F03DFA00F0F3F900F0C9F90128F0D1313020
:4003C00000F0C4FC00F0A2F9384B9B78002B0ED00022364B9A70002000F048FF012000F051FF0A2000F0CAFC002000F04BFF2F4BDB7A002B16D02D4A0023D372537A0133C4
:40040000DBB253722A4A1278002A0BD1012B09D90A32264B5A72093A254B1A704420FF2100F004FA214B1B7A002B1CD000221F4B1A7285231F4AD35C002B10D000F084FE43
:40044000041E08D084221B498A5C824203D04520FF2100F0EBF98423164AD45403E000218423144AD154114B5B79002BA3D000220E4B5A7100F058FB051C0F4C201C291CF1
:4004800000F02EF8201C00F041F8031C083C206068460A492A1C02F0D1FA684600F0FEFE89E7C046B902000045030000CC00002084010020CC010020D4010020F030000034
:4004C000002304E09A0001214942115001331D2BF8DD002378228354013283547047C04638B5041C7825405D8300195101301E2102F0A0F961557922A35C0133DBB2A3546A
:400500001E2B02D95B3A7923E25438BD10B57923C25C002A0DD00024002303E09900095864180133111E9942F8DC201C02F09CF800E0002010BDC04638B5002902D001295C
:4005400005D001E0464C03E08024E40000E0454C002800D124016243950A5C43A40A002D04D0A002291C01F0EFFF00E00020411C4908049B002B02D0012B16D02CE0402910
:400580002DD9802930D9C02932D980235B00994231D93833994232D96233994234D9324B994234D8122318204FE0432932D9852935D9C82937D985235B00994236D94E234C
:4005C000FF33994235D94D33994237D9264B994239D82B23372038E00023002035E0DF235B00F920400030E0204B852080002CE01F4B204829E0204B9C20800025E0FE23F9
:400600005B007020FF3020E0FB23D2201DE0002300201AE0AE23FF338120800015E0174B8A20800011E0164B16480EE0164B17480BE0DE23FF337820FF3006E02823FF330B
:400640000220FF3001E000230020021C6A435C43101B80239B019C466044800B38BDC04617750000E70F00009A020000D10200007B0300003F020000FE030000C1020000B1
:400680006303000053020000DF0300008202000000B583B001F0F0FAC30614D501F052FB04280CD1094B1B78012B08D1074BDB78172B04D1054B5878997800F095F801F016
:4006C0004DFB01F0F3FA03B000BDC0466802002008B50B48042101F0FDFA01F039FB01F0D1FA0848042101F013FB01F037FB01F0DDFA054801F030FA01F01EFA08BDC0463B
:40070000DC000020680200209106000008B501F0B3FAC30703D501F01BFB01F0B3FA08BD0023034A13609B60024A13607047C046C80100206402002010B5034B1B68021CB8
:4007400012CB12C210BDC046C8010020034B1B68002B01D1012000E000207047C801002030B583B0041C009101920C2002F09AF8002806D06B46021C22CB22C200238360CD
:40078000206003B030BDC04608B5002805D0031C006882681A6002F08FF808BD08B50548FFF7F2FFFFF7D2FF012802D10022024B1A6008BDC80100206402002070B582B008
:4007C000009101920368002B0BD0041C9D680C2002F068F86B46021C42CB42C285602368986002B070BDC04610B582B000900191FFF7ACFF012809D00A4C201C0099019A12
:40080000FFF7DCFF23689B68236008E0064C201C0099019AFFF7A4FF2268024B1A6002B010BDC04664020020C801002070B5051C0C1C031C303BDAB2152A00D91FE193001F
:400840008F4AD3589F468F4B58708F4D95242A5D9A70FFF75BFF8D4800F020FD285D00F02BFD00F039FD0AE1874E95257155081C01F066F8864800F011FD705D00F01CFD7D
:4008800000F02AFDFBE07F4B58707F4D94242A5D9A70FFF73BFF7F4800F000FD285D00F00BFD00F019FDEAE0774E94257155081C00F0C4FF784800F0F1FC705D00F0FCFC01
:4008C00000F00AFDDBE06F4B58706F4D96242A5D9A70FFF71BFF714800F0E0FC285D00F0EBFC00F0F9FCCAE0674E96257155081C01F0A8F86A4800F0D1FC705D00F0DCFC4E
:4009000000F0EAFCBBE05F4B58705F4D97242A5D9A70FFF7FBFE634800F0C0FC285D00F0CBFC00F0D9FCAAE09723574AD154002906D001F059F800F0D5FF01F0D7F805E0E1
:4009400000F0E0FF00F05CFF01F05EF8564800F0A5FC97234C4AD05C00F0AEFC00F0BCFC8DE0494B18680302181A504901F0ECFD444B5D70FE2801DCC0B200E0FF20414CA1
:40098000A070FFF7C3FE4A4800F088FCA07800F093FC00F0A1FC72E044484843FF2101F063FE394C6060434800F078FC207900F083FC00F091FC62E0324B58708823324A04
:4009C000D358FE2B01DCDBB200E0FF232D4CA370FFF79CFE384800F061FCA07800F06CFC00F07AFC4BE03A204443274E90257451324800F053FC705D00F05EFC00F06CFC55
:400A00003DE0204B58709970FFF780FE2C4800F045FC201C00F050FC00F05EFC2FE0194B58708423184AD35C002B00D0FF23154A9370FFF76BFE234800F030FC8423124AA7
:400A4000D05C00F039FC00F047FC18E00E4E852571551D4800F022FC705D00F02DFC00F03BFC0CE0074B58709970FFF74FFE174800F014FC201C00F01FFC00F02DFC70BD70
:400A800004310000DC000020CC0100205C31000068310000743100008431000094310000A0310000AC310000BC310000FA050000CC310000DC310000EC310000FC310000E5
:400AC0000C32000020320000303200004032000008B507480023436090228350012107328154123A83540830FFF7EAFC08BDC046CC01002000B583B0022000F063FE02209F
:400B000000F04EFE00F082FC01A980230B707D3B4B7029200222002300F04EFD00F0ECFC4307FBD403B000BD10B584B002A9AC230B7029200122AA3B00F03EFD00F0DCFC72
:400B40000307FBD5292003A90222032300F0AAFD00F0D2FC0307FBD503AB1A785C782402141902A9AE230B7029200122AB3B00F023FD00F0C1FC0307FBD5292003A90222CD
:400B8000012300F08FFD00F0B7FC4307FBD403AA117853781B02CB180022009200200221221CFFF7C9FC04B010BDC046FEE7C04608B5031C084A1068C318084A9A1A802A45
:400BC00002DC054A136005E001F040FE0C2303600120404208BDC046E0000020C002002070B50F4E0F4D13E029686B68AC68002202E001C901C30432A242FAD1E86800222D
:400C000002E0002102C304328242FAD11035013E002EE9D101F020FEFFF7A4FBFEE7C046010000007835000008B500230AE0032B03D89A000A49505800E00A4899000A4AF7
:400C4000885001332F2BF2D9FFF756FA0022074B1A608022D205116801230B43136008BD00000000AD0B000000000020C0000020F0B50025002711E0BB00C658F3B2FF223A
:400C8000964308E06A008A181478A419527822700135013BDBB2002BF4D10137092FEBD9F0BDC04608B50A1C002101F00FFE08BD1F2318401E3B8340181C014B18607047C0
:400CC00000E100E01F2318401E3B8340181C014B1860704780E100E001BE704738B5041C0D1C1F2802D90020FFF7F6FFA400034B9C4664442068256038BDC04640000020D0
:400D000070B5041C0E1E032E02D90020FFF7E4FF1F2C02D90020FFF7DFFF03252540ED00063501F02BF8A408A400074B9C46644423680322AA409343AE40351C1D4325609A
:400D400001F020F870BDC04600E400E010B5041C06E0084B186801F007F8074B9C46644480231B029C42F4D8024B5868604300F0FBFF10BDE40000200080FFFF08B5034BAB
:400D80001B7A584300F0F0FF08BDC046E4000020F0B557464E46C0B483B0041C00F0EEFF0190E71E2D2F74D83F4B1B78DBB2A34208D33E4B1B78DBB29A463D4B1B78DBB202
:400DC000994631E03B4B1B78DBB2A34208D33A4B1B78DBB29A46394B1B78DBB2994623E0374B1B78DBB2A34208D3364B1B78DBB29A46354B1B78DBB2994615E0334B1B782A
:400E0000DBB2A34208D3324B1B78DBB29A46314B1B78DBB2994607E02F4B1B78DBB29A462E4B1B78DBB299462D4BDE5D2F2E09D92A2C07D919222B4B1A60052000F094FF99
:400E4000192503E0274B1D683F231D40AE4206D2234BDA5D234B1A60052000F085FF1F4B9C4664442378DBB21F4A13601F4B52461A601F4B4A461A600520FFF77FFFAE423C
:400E80000AD9174BDA5D174B1A60052000F06CFF02E00020FFF720FF019800F073FF03B00CBC91469A46F0BDC0F1FF0FC1F1FF0FC2F1FF0FC3F1FF0FC4F1FF0FC5F1FF0FE0
:400EC000C6F1FF0FC7F1FF0FC8F1FF0FC9F1FF0FCAF1FF0FCBF1FF0FCCF1FF0FCDF1FF0FD83400002CFF0B4028FF0B401CFF0B4020FF0B40034B1868C0231B02184000D0F4
:400F00000120704700010B4008B500F037FF044A1368C02109020B43136000F033FF08BD00010B4010B500F029FF08490A68084B1A408024E40122430A600A6813408022F5
:400F4000120213430B6000F01DFF10BD00010B40FF3FFFFF70B5061C00F010FF041CFFF7C9FF002803D0FFF7DDFF012500E000250848331C0340084A10680849084018437F
:400F800010601368012D01D1FFF7BEFF201C00F0F9FE70BD0404040010020B40FBFBFBFF10B5244B1B685B0715D5234B1B685B070ED5224B9969042001401F4C22688A431B
:400FC00022609A6982439A61DB68002B00D098470420FFF7BFFF174B1B685B0518D5164B1B685B0510D5154B99698022D2001140114802688A4302609969114A0A409A61A1
:401000001B69002B00D098478020C000FFF7A2FF084B1B685B030CD5074B1B685B0304D5064B5B69002B00D098478020C002FFF791FF10BD10020B40F4000020880100207C
:40104000FFFBFFFF014B18707047C04681000F40014B1878C0B2704761000F40014B18807047C04640100F40014B188880B2704780100F40014B18807047C04600100F406E
:4010800008B501E0FFF7F0FFFFF7E2FF0307F9D408BDC04610B50B4C201CFFF7DFFF201CFFF7E8FF00F06AFE074A117810230B43137000F067FEFFF7E3FF0220FFF7C2FFB3
:4010C00010BDC046FFFF000091000F4008B5054B1B78002B04D1FFF7DDFF0122014B1A7008BDC046A4010020014B18647047C0460000002010B5041C00F040FE044A1368C3
:40110000C0218B43A4011C43146000F03BFE10BD00E400E00122014B1A60704700E100E00122014B1A60704780E100E010B5041CFFF7F6FF201CFFF7D7FF0320FFF7DAFFC2
:40114000FFF7E8FF10BDC046024B18680007C00F7047C04604020440014B98647047C0460000002010B5041C00F008FE044A1168044B0B40A4051C43146000F003FE10BD7A
:4011800000E400E0FFFF3FFF0422014B1A60704700E100E00422014B1A60704780E100E010B5041CFFF7F6FF201CFFF7D5FF0320FFF7D8FFFFF7E8FF10BDC046024A11789C
:4011C00080230B431370704772000F40014B18707047C04682000F40014B1878C0B2704762000F40014B18707047C04622000F40014B1878C0B2704742000F40014B18707F
:401200007047C04602000F4008B501E0FFF7F0FFFFF7E2FF0307F9D408BDC04608B56320FFF7E0FF6320FFF7E9FF00F0A7FD064A117810230B43137000F0A4FDFFF7E4FF53
:401240000120FFF7C3FF08BD92000F4008B5064B1B78002B04D1FFF7E1FF0122024B1A70FFF7ACFF08BDC046A501002004490A68FB231A408000F73B184010430860704799
:401280000002044004490A68FD231A404000FB3B18401043086070470002044038B5051C0078012404E000F02BF8285D0134E4B20028F8D138BDC04638B5041C0309054DE0
:4012C000E85C00F01DF80F231C40285D00F018F838BDC0460835000008B50D2000F010F80A2000F00DF808BD00000000000000000000000000000000000000000000000094
:40130000FEB5494652465B460EB407462E4909688A462E4A12682E48022101F015F903002A480068C0182A4901F00EF906001F3EB346234A126801219140C9430C0001254D
:40134000002600F01BFD814651460B6823400B605846043000F008FD3800F040284090400B68234003430B60584600F0FDFC0136072EF1D900200130012090400B682340DD
:4013800003430B605846063000F0EEFC484600F0F9FCC046C046C0460EBC894692469B46FEBDC046C046C046C046C046C046C046C046C046C046C046C046C046C046C046E2
:4013C000A8010020FC000020F8000020F000002080250000C046C046C046C046C046C04608B50B20FFF764FC08BDC04608B500F01DF808BD08B5044A1368802109060B4303
:401400001360FFF7EDFF08BD0000074008B5064B1B78002B04D1FFF7E9FF0122024B1A70FFF7E8FF08BDC046AC01002010B51D4A11680C230B43136000241B4B1C601B4A5D
:401440001B4B1A601B4B1C4A13601C4A14601C4A14601C4A13601C4B1C600B20FFF732FC0B200321FFF74CFC0B201849FFF736FC174B1C60174B1C60174B1C601422FF324C
:40148000164B1A60164B1C60164B1C60043AFF3A154B1A70154B1C80154B1C60154B1C6010BDC04670000740000007407708008060000740070100800003074004030740EB
:4014C000100307400002074004020740911D0000C80E0740880E0740480F0740080F0740C80F0740880F07406C02002084020020800200207002002010B50B20FFF7E2FB31
:40150000074B1B889BB21C1C064A1278920601D504241C430B20FFF7CBFB201C10BDC046840200206C02002010B51F4B1C6800F041F90028FBD0002000F04EF91B4A136831
:401540000F218B4313601A4A13685B005B081360A3060FD5002000F03FF90A20FFF70EFC012000F039F900F043F90028FBD00A20FFF704FC002000F02FF90A20FFF7FEFB18
:4015800001220C4B1A600A4A1368802109060B43136006490B680F229343013A13430B60012000F019F910BD640007400C0001400000074068000740F0B583B001900C1CC3
:4015C000171C1D1C002919D0284B1B78102B0AD10B20FFF777FB264B1B68DB0701D508260FE000260DE0214B1B78602B08D1214A138808218B431380002602E0042600E0DD
:401600000426002E2BD12822184B1A7000231A4A13601A4A13601A4B1F601A4B1C60EAB2194B1A70019B5C00FF231C40114A138802218B431380154A154B1A604023154A14
:401640001360154A1360EB0704D5FFF76DFF134B1C6004E0114B1C600222114B1A600B20FFF726FB301C03B0F0BDC0466C0200206400074084020020880200207002002059
:401680007C020020740200208C02002017030000000F0740800F0740880F07404002074068000740F0B583B001900C1C171C1D1C002919D02D4B1B78102B0AD10B20FFF79B
:4016C00001FB2B4B1B68DB0701D508260FE000260DE0264B1B78602B08D1264A138808218B431380002602E0042600E00426002E35D129221D4B1A7000221F4B1A601F4AF4
:4017000017601F4B1C60EBB21E490B70019B5C00FF231C400120044316490B8883430B8019491A4B19601368072B03D80422184B1A6008E0174A1368802149000B43136072
:401740000822134B1A60EB0704D5FFF7EDFE124B1C6004E0104B1C600222104B1A600B20FFF7A6FA301C03B0F0BDC0466C02002064000740840200208002002078020020A0
:40178000900200208C02002017030000000F0740C80F0740600007404002074068000740034A136838218B43C00018431060704708030440024B18688007C00F7047C046FC
:4017C00004030440034A136807218B43184310607047C04608030440031C04490868FE2202400120184010430860704700030440024B1868012318407047C0460403044048
:4018000008B500F0BBFA044A136802218B43136000F0B8FA08BDC046000005400004000C014B18607047C046480105400004000C014B18607047C046540105400004000C0D
:40184000014B18607047C0464C01054038B5041C0D1C00F093FAAC40024B1C6000F092FA38BDC0460800054008B500F087FA064A116802230B43136000F084FA0220182183
:40188000FFF7E4FF08BDC04600000540014B18607047C0467801054010B50F4C8023DB042360236823600020FFF7B8FF23688022920013432360F53AFF3A084B1A60002013
:4018C000FFF7E4FF3122064B1A60FF20FFF7AEFF0020FFF7B3FF10BD40010540640105406801054008B5064B1B78002B04D1FFF7D3FF0122024B1A70FFF7B6FF08BDC046E3
:40190000B401002008B500F039FA044A136804218B43136000F036FA08BDC046000005400004000C014B18607047C046880105400004000C014B18607047C04694010540C9
:401940000004000C014B18607047C0468C01054038B5041C0D1C00F011FAAC40024B1C6000F010FA38BDC0460800054008B500F005FA064A116804230B43136000F002FA93
:4019800004201821FFF7E4FF08BDC04600000540014B18607047C046B801054010B50F4C8023DB042360236823600020FFF7B8FF23688022920013432360F53AFF3A084B0F
:4019C0001A600020FFF7E4FF3122064B1A60FF20FFF7AEFF0020FFF7B3FF10BD80010540A4010540A801054008B5064B1B78002B04D1FFF7D3FF0122024B1A70FFF7B6FF53
:401A000008BDC046B501002008B500F0B7F9044A136801218B43136000F0B4F908BDC046000005400004000C014B18607047C046080105400004000C014B18607047C0465F
:401A4000140105400004000C014B18607047C0460C01054038B5041C0D1C00F08FF9AC40024B1C6000F08EF938BDC0460800054008B500F083F9064A116801230B43136030
:401A800000F080F901201821FFF7E4FF08BDC04600000540014B18607047C0463801054010B50F4C8023DB042360236823600020FFF7B8FF23688022920013432360F53AB4
:401AC000FF3A084B1A600020FFF7E4FF3122064B1A60FF20FFF7AEFF0020FFF7B3FF10BD00010540240105402801054008B5064B1B78002B04D1FFF7D3FF0122024B1A70F1
:401B0000FFF7B6FF08BDC046B601002008B50A20FFF7CEF808BDC04608B500F041F808BD08B5044A1368802109060B431360FFF7EDFF08BD0000064008B5064B1B78002B8F
:401B400004D1FFF7E9FF0122024B1A70FFF7E8FF08BDC046B8010020014B58607047C046B80100200A4B1B68DB050DD5094B1B685B0409D4064B1968074A0A401A601A6887
:401B8000802149000A431A600222044B1A6070470000064060000640FFFEFFFF6C00064010B51E4A11680C230B43136000241C4B1C601C4A1C4B1A601C4B1D4A13601D4AAB
:401BC00014601D491D4A11601D4A13601D4B1C600A20FFF777F80A200321FFF791F80A201949FFF77BF8194B1C60194B1C604C22FF32184B1A60184B1C60184B1C60184BC7
:401C00001C603C3AFF3A174B1A70174B1C70174B1C60174B1C60174B1C7010BD700006400000064077080040600006400701008000030640040306402000FE001003064032
:401C4000000206400402064031210000C80E0640880E0640480F0640080F0640C80F0640880F064094020020AC020020980200209C020020B8020020014B1878C0B27047B7
:401C8000AC02002010B50A20FFF71CF8064A14780F231C4013780D218B4313700A20FFF707F8201C10BDC046AC02002010B50A20FFF708F8064B1C780F2294431978203238
:401CC0000A401A700A20FEF7F3FF201C10BDC046AC02002038B5002810D00D1C041C0A20FEF7F0FF064B1C60064B1D600023064A1360064A13600A20FEF7DAFF38BDC0469F
:401D0000A8020020A402002098020020B002002038B500280ED00D1C041C0A20FEF7D2FF054B1C60054B1D600022054B1A600A20FEF7BEFF38BDC046B4020020A002002067
:401D40009C020020014B18687047C0469C0200200022014B1A607047980200200022014B1A6070479C0200200230800804D0C0460138FDD1C046C046C0467047EFF31080D2
:401D800072B6704780F310887047C046C046C04610B5C04B1B68002B00D09847BE4B1B68DB0702D50022BD4B1A60BD4B1B789B0628D5BC4B1B68DB0507D5BB4A1188C0235A
:401DC0009B000B431380012300E00023B54A1268D20706D5B44A118890239B000B4313800123002B0FD0AE4A1278D20701D5012200E00222AC49088802430A800021A84A60
:401E0000117000E00023A64A1278920600D414E1A44A1268D20611D51022A44B1A60A04B1B78DB0701D5012300E002239E4A11880B43138010229A4B1A7029E1984A1278AA
:401E4000120720D5974A126892070AD50222974B1A60954A118888239B000B431380012311E08F4A1278D20703D525218C4A117009E024218A4A11708D4A1268002A02D0CC
:401E800014398C4A1160864A1278520700D4ABE0834A1278D20749D5874A1268120727D5864A1268864909680F240C40854909686418141B082C09D8002C16D1824A11686E
:401EC000824B0B401360012308340EE008240CE07C4A11687E48006841187E480068C0B20870116801311160013C002CF0D119E0714A1268520715D5724A11687448006803
:401F0000411874480068C0B2087011680131116011686A4A1268914203D204216E4A116000E001236D496E4A11605DE05D4A1268920726D502225D4B1A606A4A13680F2107
:401F40001940136880221202134000D00123CB18654A1168CB1A13601268644B1A60524A118884239B000B431380614B1A68802149020A431A6019685E4A0A401A60012340
:401F800032E05D4A1268D20612D424E0564A1168474A1268914211D2534A11685748006841180978C9B2564801601168013111604C4A12680F210A40082AE7D14A4A116844
:401FC0003B4A1268914202D140213A4A11604D494D4A116008E0484A1268520604D5424B1A68424B1A600123002B51D0364A1168364B0B4013600023444A13602D4A136057
:40200000434B1B789B070ED5254B1B78DB0701D5092300E00A23244A11880B43138060221F4B1A7034E03B4B1B689B0601D5182200E01022284B1A602AE0194B1B78DB06F9
:4020400026D4354A13685B005B0813601021144B19701D4B18683149014019601868304901401960002329490B6012490B601B49254B196023491A4B19602A492A4B196095
:402080002A490A4B19601368802109060B43136010BDC046B00100208C0E0740880E07406C0200200C0F074084020020000F07407C020020880F0740CC0F0740780200206D
:4020C000080307408002002060000740FFFEFFFF900200204003074068000740ED0F0000C00F074008020740880200207002002004020740FFFFFEFF8C0F07407402002000
:4021000040020740F3070000800F0740C80F07408C0200206400074000000740FF5FFFFFFFFCFFFFFF0F0000400F07401703000010B5C04B1B68002B00D09847BE4B1B68BC
:40214000DB0702D50022BD4B1A60BD4B1B789B061FD4BC4B1A680223FF331A4219D0B84B1B78DB0709D5B84B1A7802218A431A70197809220A431A7008E0B34B1A782021FD
:402180008A431A70197890220A431A700022AC4B1A70AB4B1B789B0600D5B6E1A84B1B78DB0600D48AE1A74B1B689B073ED50222A64B1A60A64A13680F2119401368802205
:4021C0001202134000D00123CB18A24A1278D2B29A4205D99C4A117804230B43137006E09C4A12789B1A9C490A68D31A0B609A4B1A689A4B1A600023994A1360954A13702B
:40220000984B1A68802149020A431A601968964A0A401A608C4B1A7802218A431A70197801220A431A701022854B1A70854B1B681B0737D50822854B1A608C4B1B689B0479
:402240000CD414E08A4B1A688A4909688A188A490968C9B211701A6801321A60874B1B681B07EFD1814A1168854B0B401360854B1B689B0604D5744A117840230B4313708D
:402280000022814B1A60814A7E4B1A606E4B1A7820218A431A70197810220A431A70684B10221A70674B1B685B0641D50122784B1A60784B1B68DB060FD50F32684B1A6037
:4022C000664B1A68644B1A605F4A117802230B43137012225A4B1A7024E06F4B1B68644A12689B1A072B03D80422674B1A6011E0082B06D15D4A1368A02109020B431360D0
:4023000008E05A4A1368802189010B43136008225D4B1A604C4A117820230B4313701122474B1A705D4A494B1A6001225C4B1A605C4B1B681B072AD5574B1B684C4A106865
:40234000181A0838082802D9002408200EE001240CE0474B1A68474909688A1846490968C9B211701A6801321A6001380028F0D1002C08D03D4A1368802109020B4313601E
:402380000022414B1A6008223E4B1A6023E0454B1B685B071FD5384B1B68354A11683E4A126891420DD201213D4A1160304A1168304800684118DBB20B701368013313603A
:4023C00006E0FFF7CFFB204A117840230B43137004222C4B1A60344B1B68DB061FD494E01D4B1A68314B1B689A420CD21A4B1A682F4909688A181278D2B22E490A601A6829
:4024000001321A600BE0FF222A4B1A60114B1B789B0604D40F4A13780133DBB213700C4B1B680F221340082BDAD10132224B1A606BE0C046BC0100208C0E0640880E064024
:40244000940200204C0F0640AC020020400F064008020640B8020020B002002098020020880F064004020640FFFFFEFF600006409C020020B40200204003064008030640B4
:40248000FF5FFFFFC00F0640C80F0640ED0F0000800E064064000640A0020020FF0F00006C000640CC0F06408C0F0640A4020020A802002040020640800F0640134A1368CB
:4024C0005B005B0813601021114B1970114B1868114901401960186810490140196000230F490B600F490B600F49104B19601049104B19601049114B19601149114B1960B3
:402500001368802109060B43136010BD000006409402002060000640FF5FFFFFFFFCFFFFC80F0640880F0640ED0F0000800F0640F3070000C00F0640FF0F0000400F06406E
:4025400017030000000F0640002243088B4274D303098B425FD3030A8B4244D3030B8B4228D3030C8B420DD3FF22090212BA030C8B4202D31212090265D0030B8B4219D309
:4025800000E0090AC30B8B4201D3CB03C01A5241830B8B4201D38B03C01A5241430B8B4201D34B03C01A5241030B8B4201D30B03C01A5241C30A8B4201D3CB02C01A5241D8
:4025C000830A8B4201D38B02C01A5241430A8B4201D34B02C01A5241030A8B4201D30B02C01A5241CDD2C3098B4201D3CB01C01A524183098B4201D38B01C01A524143092C
:402600008B4201D34B01C01A524103098B4201D30B01C01A5241C3088B4201D3CB00C01A524183088B4201D38B00C01A524143088B4201D34B00C01A5241411A00D201463A
:40264000524110467047FFE701B5002000F0FCF802BDC0460029F7D003B5FFF775FF0EBC4243891A1847C04603460B437FD4002243088B4274D303098B425FD3030A8B429C
:4026800044D3030B8B4228D3030C8B420DD3FF22090212BA030C8B4202D31212090265D0030B8B4219D300E0090AC30B8B4201D3CB03C01A5241830B8B4201D38B03C01A69
:4026C0005241430B8B4201D34B03C01A5241030B8B4201D30B03C01A5241C30A8B4201D3CB02C01A5241830A8B4201D38B02C01A5241430A8B4201D34B02C01A5241030AEE
:402700008B4201D30B02C01A5241CDD2C3098B4201D3CB01C01A524183098B4201D38B01C01A524143098B4201D34B01C01A524103098B4201D30B01C01A5241C3088B42AF
:4027400001D3CB00C01A524183088B4201D38B00C01A524143088B4201D34B00C01A5241411A00D201465241104670475DE0CA0F00D04942031000D34042534000229C4601
:4027800003098B422DD3030A8B4212D3FC22890112BA030A8B420CD3890192118B4208D3890192118B4204D389013AD0921100E08909C3098B4201D3CB01C01A52418309D3
:4027C0008B4201D38B01C01A524143098B4201D34B01C01A524103098B4201D30B01C01A5241C3088B4201D3CB00C01A524183088B4201D38B00C01A5241D9D243088B42E8
:4028000001D34B00C01A5241411A00D20146634652415B10104601D34042002B00D54942704763465B1000D3404201B5002000F00BF802BD0029F8D003B5FFF715FF0EBC95
:402840004243891A1847C0467047C046014B18687047C046600100200E4B70B500251E1C0D4CE41AA410A54204D0AB00F35898470135F8E700F06EFE084B00251E1C084C15
:40288000E41AA410A54204D0AB00F35898470135F8E770BD6035000060350000603500006835000008B5034B011C186800F05CF808BDC0466001002008B5034B011C186858
:4028C00000F00CF808BDC04660010020031C8218934202D019700133FAE7704730B500293ED004390B68002B00DAC9181D4A1368141C002B02D14B60116031E099420DD23A
:4029000008680A189A4203D11368C3180B6053684B60216024E08A4203D8131C5A68002AF9D11D685C198C420BD10968691858181960904214D110685268091819605A6061
:402940000EE08C4202D90C23036009E008680C18944203D114685268001908604A60596030BDC046C4010020032370B5CC1C9C430834051C0C2C01D20C2405E0002C03DA7D
:402980000C2300202B6042E08C42F9D3204A1368101C191C002913D00A68121B0DD40B2A02D90A608B181FE08B4202D15A6802601BE04A685A600B1C17E00B1C4968E9E7A2
:4029C000144E3368002B03D1281C00F025F83060281C211C00F020F8031C421CD0D00322C61C964386420AD11C60181C07210B301A1D8843821A0AD05142995007E0311A98
:402A0000281C00F009F8431CBAD0331CECE770BDC4010020C001002038B50023064C051C081C2360FEF7C4F8431C03D12368002B00D02B6038BDC046BC0200200EB410B5E4
:402A40009DB002A9029008610B48822488604861012040421FABC881084804CBA400006801938C8100F06CF80023029A13701DB010BC08BC03B01847FFFFFF7F6001002055
:402A8000F0B58E6885B0071C0C1C03920193B34245D390238A89DB001A423DD003250969236801985B1A029363695D43EB0F5D19029B6D1001331B189D4200D21D1C381C58
:402AC00053050FD5291CFFF74FFF061E13D0029A216900F0BCFAA289184B134080221343A38111E02A1C00F0CFFA061E0CD1381C2169FFF7F3FE0C23402201203B60A38912
:402B000040421343A38117E0029B2661F61826606561019EED1AA560019BB34200D2019E321C2068039900F09BFA0020A3689B1BA36023689E19266005B0F0BD7FFBFFFFFA
:402B4000F0B59FB0029005938B890E1C171C1B0610D50B69002B0DD14021FFF705FF30603061002804D10C23029A01381360D0E040237361002306AD6B6120336B76103353
:402B8000AB763C1C2378002B03D1E31B049312D003E0252BF9D00134F4E7049B0298311C3A1CFFF76DFF431C00D1ACE06A69049B944663446B612378002B00D1A3E0012289
:402BC000002352426A6002A95432521801342B60EB60AB601370AB654F4F2178381C052200F02AFA002808D0C01B01278740381C2B68013418432860EEE72B68DA0604D560
:402C00005322202102A8121811701A0704D553222B2102A81218117022782A2A01D0099B0EE0059A111D12680591002A01DB099204E05242EA60022213432B60013409E0C5
:402C40002278303A092A04D80A214B4301349B18F6E7099323782E2B18D163782A2B09D1059B02341A1D1B680592002B0DDA01235B420AE0002301342278303A092A04D8F1
:402C80000A214B4301349B18F6E70793234F2178381C032200F0D0F9002807D0C01B40278740381C2B6801341843286021781C480622671C297600F0BFF9002812D0194B5B
:402CC000002B06D10722059B073393430833059314E005AB00930298291C321C124B00E000BF07E005AB00930298291C321C0E4B00F08AF80390039B013304D06B69039AFA
:402D00009B186B613DE7B3890B985B0601D5012040421FB0F0BDC0461E350000243500002835000000000000812A0000F7B5171C01930A698B6800900C1C934200DA131C92
:402D4000221C3B6043321278002A01D001333B6023689B0602D53B6802333B60062523681D401ED0231C43331B785A1E9341226892061CD53020E1184031C870211C5A1CEE
:402D800045310978A21840320233D1700FE0221C0123009801991932089EB047431C0ED00135E3683A689B1A9D42F0DBDAE7221C009801994332089DA847431C02D10120C3
:402DC000404220E006232068E1683A6803400025042B03D18D1AEB43DB171D40A3682269934201DD9B1AED180027AF420ADA221C0123009801991A32089EB047431CDED09D
:402E00000137F2E70020FEBDF0B58BB006920A1C43320793059004920A7E0C1C109B6E2A00D1A8E011D8632A22D009D8002A00D1B2E0582A00D0C2E045310A707C4A4FE0D3
:402E4000642A1DD0692A1BD0B9E0732A00D1A7E009D86F2A29D0702A00D0B0E0202209680A43226037E0752A1FD0782A33D0A6E00E1C1A684236111D196013683370A1E0A2
:402E800021681A68080606D4490604D5111D19600023D55E02E0111D19601568002D3BDA2D23049A6D42137036E021681A68080606D4490604D51568111D1960ADB202E0FC
:402EC000111D196015685A4B227E03930A276F2A1DD108271BE0221C782145321170554A19680392081D226818600D68100602D4500600D5ADB2D30702D520231A43226088
:402F00001027002D03D1202322689A432260231C002243331A7002E00A27454B03936368A360002B03DB0422216891432160002D02D1049E002B0ED0049E281C391CFFF7DC
:402F400089FB039B013E5B5C281C3370391CFFF7FBFA051EF1D1082F09D12368DB0706D563682269934202DC3023013E3370049B9B1B23612BE009681A68080607D4490687
:402F800005D5111D19601368A28A1A8004E0111D1960136862691A600023049E236116E01A68111D196016680021301C626800F043F8002801D0801B6060636803E0261C78
:402FC00042363270012323610023049A1370079B05980093211C069B09AAFFF7A7FE431C02D10120404221E0236905980699321C079DA847431CF4D023689B0705D4099B81
:40300000E068984212DA181C10E00025E368099A9B1A9D42F3DA221C0123059806991932079EB047431CDCD00135EFE70BB0F0BD2F35000040350000C9B28218904204D052
:4030400003788B4202D00130F8E700207047002310B5934203D0CC5CC4540133F9E710BD10B5814208D28B18984205D29B1A013A09D3995C8154FAE70023934203D0CC5C7E
:40308000C4540133F9E710BDF8B5061C0C1C151C002904D1111CFFF767FC041C18E0002A03D1FFF71BFC2C1C12E000F013F8A8420ED2301C291CFFF757FC071E07D0211C36
:4030C0002A1CFFF7C4FF301C211CFFF707FC3C1C201CF8BD0B1F1A68101F002A04DA891804390B68D018043870470000000000004C75783A2025692C206D65616E3A20256A
:40310000690A0D0068080000A8080000E808000098090000280900004608000086080000C608000062090000060900007E0A00007E0A00007E0A00007E0A00007E0A000061
:403140007E0A0000E60900004C0A0000B80900001E0A0000020A0000640A0000636D64476574526564200000636D64536574526564200000636D64476574477265656E2090
:4031800000000000636D64536574477265656E2000000000636D64476574426C75652000636D64536574426C75652000636D64476574506F7765722000000000636D645392
:4031C0006574506F7765722000000000636D644765744C756D656E2000000000636D645365744C756D656E2000000000636D6447657444697374616E63652000636D6453AD
:40320000657444697374616E63652000636D6444697374616E6365416C65727420000000636D644765744D6F76656D656E742000636D645365744D6F76656D656E74200069
:40324000636D644D6F76656D656E74416C6572742000000000300F40000400400F40000402000F405B300F403B310F403D320F4037330F4006400F4005410F4006420F4083
:4032800008430F4002600F40810F820D04010A0212011403150123012701320337013F4040234106420549FF4AFF4BFF4F015018580459045A045C015D015F016040624023
:4032C00064406540668068806A806C806E8083028507861F88208B019020921C930494209703983C9C089E22A01CA303A410A601A701A804AA21AC14B001B220B402B61CE7
:40330000B707BE11C063C102C205C5ECC620C80BC9FFCAFFCBFFCD83CE03CF01D018D403D604D804D904DA04DB04DC11DD11DF05E040E240E440E540E680E880EA80EC80A0
:40334000EE80001001080504070808040A200B400C400E110F48162A1702181019041C041E611F802002270229082A082B802D082F80330835043702380C3E223F08400476
:4033800042204404462048014A024B204C044E024F0556205E605F0566027E107F108748C066C2FCC4F0CAC3CCC2CEE0D066D23CD6F0D880DE40E6020208030106030A0132
:4033C0000B01150116061A081B02220324032701280129012A042B023008320735033A083B203E01401645EC4702481349FF4AFF4BFF4F01501852805401560458045904B1
:403400005A045B045C115D335F016040624064406540668068806A806C806E808A0193029503A701A901B103B201D804D904DC11DF010208030C050807480E100F0814445C
:403440001501170419081E5021022610270829082B082C042D083004310236183D013E1047404C084D044F01540857045D045E405F0165017740961098449D099F08A308D1
:40348000AA10AB04AE02B501C072C260C470CA66CC63CEA0D010D220D6D0D880E280EE4453046F207308D420DA80DC208B049708AF20B708EE10004860118404C00AD6023C
:4034C000D802180119081C1089089411A840C60EE201010A100A0000030405060708090A0B0C0E0F101112131415161718191B1C1D1E1F2021222325262728292A2B2E2FD1
:40350000303132333435000030313233343536373839414243444546000000004300232D302B2000686C4C00656667454647003031323334353637383941424344454600E6
:403540003031323334353637383961626364656600000000F8B5C046F8BC08BC9E46704781020000290C0000F8B5C046F8BC08BC9E4670475902000088350000C8000020A5
:40358000A0000000580100000000000001FF0001FF0001FF0001FF0001FF000001EEEE17C00200200000E02EC05D00001800000000366E0104040400000104400100000002
:4035C00000000000000000000000000000000000000000000000000000000000000000001C350000000000000000000000000000000000000000000000000000000000007A
:403600000000000000000000000000000000000000000000000000000000000000000000000100200000000000000000000000000000000000000000000000000000000069
:40364000000000000000000000000000000000000000000000000000000000000000000000000000000000000000000000000000000000000000000000000000000000004A
:40368000000000000000000000000000000000000000000000000000000000000000000000000000000000000000000000000000000000000000000000000000000000000A
:4036C00000000000000000000000000000000000000000000000000000000000000000000000000000000000000000000000000000000000000000000000000000000000CA
:403700000000000000000000000000000000000000000000000000000000000000000000000000000000000000000000000000000000000000000000000000000000000089
:0200000490303A
:020000008BC7AC
:0200000490402A
:200000000000000000000000000000000000000000000000000000000000000000000000E0
:0200000490501A
:0C000000000204C81193110104D99D5A9C
:0200000490600A
:0100000001FE
:00000001FF