:400000000010002011000000690800006908000008B500F043FCC04638B5204C23688022D20213432360182000F010FD22681C4B134023601B4A1C4B1A6010221B4B1A6024
:4000400010321B4B1A6030231A4A13601A4A13601A4A13601A4A136021221A4B1A6080221206194B1A6000252560184B184A1360184A1360184A194B1A60194A194B1A60BD
:40008000194A1A4B1A600920194900F085FC092000F06CFC174B1D6038BDC04600010B40FFFFFBFF0600008004010B40080202400C020240200202402402024028020240B9
:4000C000340202403C02024008010B400E0000800000024040000240170000808000024076010080040002403F0100C0440002405D0C00000C020B4010B572B60122314BF8
:400100001A70002410E0304863001A195200821891881B195B001A5AC31858880004104300F01EFC0134E4B2012CECD92649081C0C30343100F0FAFBEE221204234B1A600B
:40014000234A244B1A60EE22234B1A6099231B04224A1360224A1360224A1360224A234B1A600522224B1A600132224B1A60224B1978043A0A431A70204802783C218A431E
:4001800028390A430270197816220A431A70C4221B4B1A70943A1B4B1A601B4A1B4B1A601B4A1C4B1A6051221B4B1A601B4A1C4B1A6003221B4B1A6021321B4B1A60FFF7A9
:4001C0002BFF10BD1C700F40682500000000014003EE03030C0001401000014000500F4020500F4030500F400000544738500F402000004000800F4000700F4001700F407D
:40020000DB300F40000004400040020208000440F10200000802044000030440866D180008030440000404400804044010B5064C2378002B07D1054B002B02D0044800E0E8
:4002400000BF0123237010BD58010020000000006425000008B5084B002B03D00748084900E000BF07480368002B00D108BD064B002BFBD09847F9E70000000064250000E2
:400280005C010020C80000200000000008B500F049FD054B181A3A2101F07AFF034B9860012000F041FE08BD1D0001003C020020044B03225A70013A1A710832DA71093AFC
:4002C0009A727047CC00002070B5084E45002D18A85D01307319597802F040F8C9B2A955002902D174190123A37070BDCC00002008B50020FFF7E8FF0120FFF7E5FF022064
:40030000FFF7E2FF0320FFF7DFFF00F0C3FD08BD10B582B01F49AC230B7029200122AA3B00F00AFF00F0A4FE0307FBD529201A490222032300F076FF00F09AFE0307FBD55E
:40034000154B1A785C78240214191249AE230B7029200122AB3B00F0EFFE00F089FE0307FBD529200C490222012300F05BFF00F07FFE4307FBD4084A117853781B02CB18E1
:400380000022009200200221221C00F0F7F802B010BDC046340200205802002070B582B062B64F4800F0AEF800F0D6F900F092F900F0EAFC4B4800F017FD022000F0C4FFBC
:4003C000022000F0ADFF00F0DDFD474980230B707D3B4B7029200222002300F0ADFE00F047FE4307FBD401F033F801F0A5F801F017F9FFF75DFF00F087FD3C4800F02EFDCB
:4004000000F080F90AE0684600F0B2F9009BD8B26B46197900F026FA00F0DCF900F0B2F90128F0D1313000F0EFFA00F08BF9304BDB7A002B21D000222D4BDA722D4C2068DD
:400440000A30FF2101F09AFE0E1C21602A4D28680A30FF2101F092FE2960284C20680A30FF2101F08BFE2160301C00F09DFF286801F00EF8206801F07FF81D4B9B78002B3D
:400480000ED000221A4B9A70002000F04DFD012000F056FD0A2000F0CFFA002000F050FD134B1B7A002B06D00022114B1A7200F0A9FC134B18710E4B5B79002BA0D000226B
:4004C0000B4B5A71FFF724FF011C054C201C00F029F8201C00F03CF8094B186090E7C046B40100208D02000034020020F1020000CC00002048020020300200205402002093
:400500003C020020002304E09A0001214942115001331D2BF8DD002378228354013283547047C04638B5041C7825405D8300195101301E2101F012FF61557922A35C0133D8
:40054000DBB2A3541E2B02D95B3A7923E25438BD10B57923C25C002A0DD00024002303E09900095864180133111E9942F8DC201C01F00EFE00E0002010BDC04638B500291D
:4005800002D0012905D001E0464C03E08024E40000E0454C002800D124016243950A5C43A40A002D04D0A002291C01F061FD00E00020411C4908049B002B02D0012B16D0D9
:4005C0002CE040292DD9802930D9C02932D980235B00994231D93833994232D96233994234D9324B994234D8122318204FE0432932D9852935D9C82937D985235B00994217
:4006000036D94E23FF33994235D94D33994237D9264B994239D82B23372038E00023002035E0DF235B00F920400030E0204B852080002CE01F4B204829E0204B9C2080005E
:4006400025E0FE235B007020FF3020E0FB23D2201DE0002300201AE0AE23FF338120800015E0174B8A20800011E0164B16480EE0164B17480BE0DE23FF337820FF3006E022
:400680002823FF330220FF3001E000230020021C6A435C43101B80239B019C466044800B38BDC04617750000E70F00009A020000D10200007B0300003F020000FE030000B7
:4006C000C10200006303000053020000DF0300008202000008B50948042101F08FF801F0CBF801F063F80648042101F0A5F801F0C9F801F06FF800F0B9FF08BDD8000020FB
:400700005002002000B583B001F04AF8C30614D501F0ACF804280CD1094B1B78012B08D1074BDB78172B04D1054B5878997800F077F801F0A7F801F04DF803B000BDC04668
:400740005002002008B501F02BF8C30703D501F093F801F02BF808BD0023034A13609B60024A13607047C046B00100204C02002010B5034B1B68021C12CB12C210BDC0466E
:40078000B0010020034B1B68002B01D1012000E000207047B001002030B583B0041C009101920C2001F012FE002806D06B46021C22CB22C200238360206003B030BDC0469E
:4007C00008B5002805D0031C006882681A6001F007FE08BD08B50548FFF7F2FFFFF7D2FF012802D10022024B1A6008BDB00100204C02002070B582B0009101920368002BE7
:400800000BD0041C9D680C2001F0E0FD6B46021C42CB42C285602368986002B070BDC04610B582B000900191FFF7ACFF012809D00A4C201C0099019AFFF7DCFF23689B68B0
:40084000236008E0064C201C0099019AFFF7A4FF2268024B1A6002B010BDC0464C020020B00100207047C046FEE7C04608B5031C084A1068C318084A9A1A802A02DC054A97
:40088000136005E001F076FD0C2303600120404208BDC046DC000020B002002070B50F4E0F4D13E029686B68AC68002202E001C901C30432A242FAD1E868002202E0002179
:4008C00002C304328242FAD11035013E002EE9D101F056FDFFF762FDFEE7C046010000002828000008B500230AE0032B03D89A000A49505800E00A4899000A4A885001339A
:400900002F2BF2D9FFF7F8FB0022074B1A608022D205116801230B43136008BD000000006908000000000020C0000020F0B50025002711E0BB00C658F3B2FF22964308E06C
:400940006A008A181478A419527822700135013BDBB2002BF4D10137092FEBD9F0BDC04608B50A1C002101F045FD08BD1F2318401E3B8340181C014B1860704700E100E0CE
:400980001F2318401E3B8340181C014B1860704780E100E001BE704738B5041C0D1C1F2802D90020FFF7F6FFA400034B9C4664442068256038BDC0464000002070B5041C8F
:4009C0000E1E032E02D90020FFF7E4FF1F2C02D90020FFF7DFFF03252540ED00063500F061FFA408A400074B9C46644423680322AA409343AE40351C1D43256000F056FFA2
:400A000070BDC04600E400E010B5041C06E0084B186800F03DFF074B9C46644480231B029C42F4D8024B5868604300F031FF10BDE00000200080FFFF08B5034B1B7A584359
:400A400000F026FF08BDC046E0000020F0B557464E46C0B483B0041C00F024FF0190E71E2D2F74D83F4B1B78DBB2A34208D33E4B1B78DBB29A463D4B1B78DBB2994631E01D
:400A80003B4B1B78DBB2A34208D33A4B1B78DBB29A46394B1B78DBB2994623E0374B1B78DBB2A34208D3364B1B78DBB29A46354B1B78DBB2994615E0334B1B78DBB2A342EB
:400AC00008D3324B1B78DBB29A46314B1B78DBB2994607E02F4B1B78DBB29A462E4B1B78DBB299462D4BDE5D2F2E09D92A2C07D919222B4B1A60052000F0CAFE192503E0F9
:400B0000274B1D683F231D40AE4206D2234BDA5D234B1A60052000F0BBFE1F4B9C4664442378DBB21F4A13601F4B52461A601F4B4A461A600520FFF77FFFAE420AD9174B26
:400B4000DA5D174B1A60052000F0A2FE02E00020FFF720FF019800F0A9FE03B00CBC91469A46F0BDC0F1FF0FC1F1FF0FC2F1FF0FC3F1FF0FC4F1FF0FC5F1FF0FC6F1FF0F39
:400B8000C7F1FF0FC8F1FF0FC9F1FF0FCAF1FF0FCBF1FF0FCCF1FF0FCDF1FF0FD02700002CFF0B4028FF0B401CFF0B4020FF0B40034B1868C0231B02184000D00120704739
:400BC00000010B4008B500F06DFE044A1368C02109020B43136000F069FE08BD00010B4010B500F05FFE08490A68084B1A408024E40122430A600A68134080221202134308
:400C00000B6000F053FE10BD00010B40FF3FFFFF70B5061C00F046FE041CFFF7C9FF002803D0FFF7DDFF012500E000250848331C0340084A106808490840184310601368D7
:400C4000012D01D1FFF7BEFF201C00F02FFE70BD0404040010020B40FBFBFBFF10B5244B1B685B0715D5234B1B685B070ED5224B9969042001401F4C22688A4322609A698E
:400C800082439A61DB68002B00D098470420FFF7BFFF174B1B685B0518D5164B1B685B0510D5154B99698022D2001140114802688A4302609969114A0A409A611B69002BBA
:400CC00000D098478020C000FFF7A2FF084B1B685B030CD5074B1B685B0304D5064B5B69002B00D098478020C002FFF791FF10BD10020B40F000002074010020FFFBFFFF8F
:400D0000014B18707047C04681000F40014B1878C0B2704761000F40014B18807047C04640100F40014B188880B2704780100F40014B18807047C04600100F4008B501E00B
:400D4000FFF7F0FFFFF7E2FF0307F9D408BDC04610B50B4C201CFFF7DFFF201CFFF7E8FF00F0A0FD074A117810230B43137000F09DFDFFF7E3FF0220FFF7C2FF10BDC04657
:400D8000FFFF000091000F4008B5054B1B78002B04D1FFF7DDFF0122014B1A7008BDC04690010020014B18647047C0460000002010B5041C00F076FD044A1368C0218B4309
:400DC000A4011C43146000F071FD10BD00E400E00122014B1A60704700E100E00122014B1A60704780E100E010B5041CFFF7F6FF201CFFF7D7FF0320FFF7DAFFFFF7E8FFA3
:400E000010BDC046024B18680007C00F7047C04604020440014B98647047C0460000002010B5041C00F03EFD044A1168044B0B40A4051C43146000F039FD10BD00E400E06C
:400E4000FFFF3FFF0422014B1A60704700E100E00422014B1A60704780E100E010B5041CFFF7F6FF201CFFF7D5FF0320FFF7D8FFFFF7E8FF10BDC046024A117880230B43B2
:400E80001370704773000F40014B18707047C04683000F40014B1878C0B2704763000F40014B18707047C04623000F40014B1878C0B2704743000F40014B18707047C046F1
:400EC00003000F4008B501E0FFF7F0FFFFF7E2FF0307F9D408BDC04608B56320FFF7E0FF6320FFF7E9FF00F0DDFC064A117810230B43137000F0DAFCFFF7E4FF0120FFF7D2
:400F0000C3FF08BD93000F4008B5064B1B78002B04D1FFF7E1FF0122024B1A70FFF7ACFF08BDC0469101002004490A68FB231A408000F73B184010430860704700020440C0
:400F400004490A68FD231A404000FB3B18401043086070470002044008B50B20FFF706FD08BDC04608B500F01DF808BD08B5044A1368802109060B431360FFF7EDFF08BDE1
:400F80000000074008B5064B1B78002B04D1FFF7E9FF0122024B1A70FFF7E8FF08BDC0469401002010B51D4A11680C230B43136000241B4B1C601B4A1B4B1A601B4B1C4A68
:400FC00013601C4A14601C4A14601C4A13601C4B1C600B20FFF7D4FC0B200321FFF7EEFC0B201849FFF7D8FC174B1C60174B1C60174B1C601422FF32164B1A60164B1C60DF
:40100000164B1C60043AFF3A154B1A70154B1C80154B1C60154B1C6010BDC04670000740000007407708008060000740070100800003074004030740100307400002074084
:4010400004020740B9180000C80E0740880E0740480F0740080F0740C80F0740880F07405D02002074020020700200206002002010B50B20FFF784FC074B1B889BB21C1C57
:40108000064A1278920601D504241C430B20FFF76DFC201C10BDC046740200205D02002010B5204B1C6800F047F90028FBD0002000F056F91C4A11681C4B0B4013601C4A13
:4010C00013685B005B081360A3060FD5002000F047F90A20FFF7B0FC012000F041F900F04BF90028FBD00A20FFF7A6FC002000F037F90A20FFF7A0FC01220E4B1A600C4A1F
:401100001368802109060B431360074A1168074B0B40E02109030B431360012000F020F910BDC0466400074000000140FFFFF0FF0000074068000740F0B583B001900C1C31
:40114000171C1D1C002919D0284B1B78102B0AD10B20FFF715FC264B1B68DB0701D508260FE000260DE0214B1B78602B08D1214A138808218B431380002602E0042600E0C2
:401180000426002E2BD12822184B1A7000231A4A13601A4A13601A4B1F601A4B1C60EAB2194B1A70019B5C00FF231C40114A138802218B431380154A154B1A604023154A99
:4011C0001360154A1360EB0704D5FFF769FF134B1C6004E0114B1C600222114B1A600B20FFF7C4FB301C03B0F0BDC0465D0200206400074074020020780200206002002083
:401200006C020020640200207C02002017030000000F0740800F0740880F07404002074068000740F0B583B001900C1C171C1D1C002919D02D4B1B78102B0AD10B20FFF74F
:401240009FFB2B4B1B68DB0701D508260FE000260DE0264B1B78602B08D1264A138808218B431380002602E0042600E00426002E35D129221D4B1A7000221F4B1A601F4ADA
:4012800017601F4B1C60EBB21E490B70019B5C00FF231C400120044316490B8883430B8019491A4B19601368072B03D80422184B1A6008E0174A1368802149000B431360F7
:4012C0000822134B1A60EB0704D5FFF7E9FE124B1C6004E0104B1C600222104B1A600B20FFF744FB301C03B0F0BDC0465D02002064000740740200207002002068020020C9
:40130000800200207C02002017030000000F0740C80F0740600007404002074068000740034A1168034B0B40C00318431060704708000440FF7FFCFF024B18688006C00F75
:401340007047C04604000440034A1168034B0B40000318431060704708000440FF8FFFFF04490A68EF231A400001DF3B184010430860704700000440024B1868C006C00FF6
:401380007047C046040004400004000C014B18607047C046480105400004000C014B18607047C046540105400004000C014B18607047C0464C01054038B5041C0D1C00F095
:4013C00071FAAC40024B1C6000F070FA38BDC0460800054008B500F065FA064A116802230B43136000F062FA02201821FFF7E4FF08BDC04600000540014B18607047C0465F
:401400007801054010B50F4C8023DB042360236823600020FFF7B8FF23688022920013432360F53AFF3A084B1A600020FFF7E4FF3122064B1A60FF20FFF7AEFF0020FFF732
:40144000B3FF10BD40010540640105406801054008B5064B1B78002B04D1FFF7D3FF0122024B1A70FFF7B6FF08BDC0469C0100200004000C014B18607047C046880105401A
:401480000004000C014B18607047C046940105400004000C014B18607047C0468C01054038B5041C0D1C00F0FDF9AC40024B1C6000F0FCF938BDC0460800054008B500F0B3
:4014C000F1F9064A116804230B43136000F0EEF904201821FFF7E4FF08BDC04600000540014B18607047C046B801054010B50F4C8023DB042360236823600020FFF7B8FFB5
:4015000023688022920013432360F53AFF3A084B1A600020FFF7E4FF3122064B1A60FF20FFF7AEFF0020FFF7B3FF10BD80010540A4010540A801054008B5064B1B78002B06
:4015400004D1FFF7D3FF0122024B1A70FFF7B6FF08BDC0469D0100200004000C014B18607047C046080105400004000C014B18607047C046140105400004000C014B186002
:401580007047C0460C01054038B5041C0D1C00F089F9AC40024B1C6000F088F938BDC0460800054008B500F07DF9064A116801230B43136000F07AF901201821FFF7E4FF9F
:4015C00008BDC04600000540014B18607047C0463801054010B50F4C8023DB042360236823600020FFF7B8FF23688022920013432360F53AFF3A084B1A600020FFF7E4FF16
:401600003122064B1A60FF20FFF7AEFF0020FFF7B3FF10BD00010540240105402801054008B5064B1B78002B04D1FFF7D3FF0122024B1A70FFF7B6FF08BDC0469E0100207F
:4016400008B50A20FFF792F908BDC04608B500F03BF808BD08B5044A1368802109060B431360FFF7EDFF08BD0000064008B5064B1B78002B04D1FFF7E9FF0122024B1A7035
:40168000FFF7E8FF08BDC046A00100200A4B1B68DB050DD5094B1B685B0409D4064B1968074A0A401A601A68802149000A431A600222044B1A60704700000640600006406A
:4016C000FFFEFFFF6C00064010B51E4A11680C230B43136000241C4B1C601C4A1C4B1A601C4B1D4A13601D4A14601D491D4A11601D4A13601D4B1C600A20FFF741F90A20BD
:401700000321FFF75BF90A201949FFF745F9194B1C60194B1C604C22FF32184B1A60184B1C60184B1C60184B1C603C3AFF3A174B1A70174B1C70174B1C60174B1C60174BFB
:401740001C7010BD700006400000064077080040600006400701008000030640040306402000FE00100306400002064004020640591C0000C80E0640880E0640480F06407C
:40178000080F0640C80F0640880F0640840200209C020020880200208C020020A8020020014B1878C0B270479C02002010B50A20FFF7E6F8064A14780F231C4013780D21A3
:4017C0008B4313700A20FFF7D1F8201C10BDC0469C02002010B50A20FFF7D2F8064B1C780F229443197820320A401A700A20FFF7BDF8201C10BDC0469C02002038B50028D8
:4018000010D00D1C041C0A20FFF7BAF8064B1C60064B1D600023064A1360064A13600A20FFF7A4F838BDC046980200209402002088020020A002002038B500280ED00D1CBA
:40184000041C0A20FFF79CF8054B1C60054B1D600022054B1A600A20FFF788F838BDC046A4020020900200208C020020014B18687047C0468C0200200022014B1A60704778
:40188000880200200022014B1A6070478C0200200230800804D0C0460138FDD1C046C046C0467047EFF3108072B6704780F310887047C046C046C04610B5C04B1B68002B2A
:4018C00000D09847BE4B1B68DB0702D50022BD4B1A60BD4B1B789B0628D5BC4B1B68DB0507D5BB4A1188C0239B000B431380012300E00023B54A1268D20706D5B44A1188E9
:4019000090239B000B4313800123002B0FD0AE4A1278D20701D5012200E00222AC49088802430A800021A84A117000E00023A64A1278920600D414E1A44A1268D20611D506
:401940001022A44B1A60A04B1B78DB0701D5012300E002239E4A11880B43138010229A4B1A7029E1984A1278120720D5974A126892070AD50222974B1A60954A1188882370
:401980009B000B431380012311E08F4A1278D20703D525218C4A117009E024218A4A11708D4A1268002A02D014398C4A1160864A1278520700D4ABE0834A1278D20749D521
:4019C000874A1268120727D5864A1268864909680F240C40854909686418141B082C09D8002C16D1824A1168824B0B401360012308340EE008240CE07C4A11687E480068C9
:401A000041187E480068C0B20870116801311160013C002CF0D119E0714A1268520715D5724A116874480068411874480068C0B2087011680131116011686A4A1268914228
:401A400003D204216E4A116000E001236D496E4A11605DE05D4A1268920726D502225D4B1A606A4A13680F211940136880221202134000D00123CB18654A1168CB1A136095
:401A80001268644B1A60524A118884239B000B431380614B1A68802149020A431A6019685E4A0A401A60012332E05D4A1268D20612D424E0564A1168474A1268914211D26A
:401AC000534A11685748006841180978C9B2564801601168013111604C4A12680F210A40082AE7D14A4A11683B4A1268914202D140213A4A11604D494D4A116008E0484AC5
:401B00001268520604D5424B1A68424B1A600123002B51D0364A1168364B0B4013600023444A13602D4A1360434B1B789B070ED5254B1B78DB0701D5092300E00A23244A26
:401B400011880B43138060221F4B1A7034E03B4B1B689B0601D5182200E01022284B1A602AE0194B1B78DB0626D4354A13685B005B0813601021144B19701D4B1868314926
:401B8000014019601868304901401960002329490B6012490B601B49254B196023491A4B19602A492A4B19602A490A4B19601368802109060B43136010BDC0469801002041
:401BC0008C0E0740880E07405D0200200C0F074074020020000F07406C020020880F0740CC0F074068020020080307407002002060000740FFFEFFFF800200204003074090
:401C000068000740ED0F0000C00F074008020740780200206002002004020740FFFFFEFF8C0F07406402002040020740F3070000800F0740C80F07407C0200206400074006
:401C400000000740FF5FFFFFFFFCFFFFFF0F0000400F07401703000010B5C04B1B68002B00D09847BE4B1B68DB0702D50022BD4B1A60BD4B1B789B061FD4BC4B1A68022317
:401C8000FF331A4219D0B84B1B78DB0709D5B84B1A7802218A431A70197809220A431A7008E0B34B1A7820218A431A70197890220A431A700022AC4B1A70AB4B1B789B06BE
:401CC00000D5B6E1A84B1B78DB0600D48AE1A74B1B689B073ED50222A64B1A60A64A13680F211940136880221202134000D00123CB18A24A1278D2B29A4205D99C4A1178A7
:401D000004230B43137006E09C4A12789B1A9C490A68D31A0B609A4B1A689A4B1A600023994A1360954A1370984B1A68802149020A431A601968964A0A401A608C4B1A78AA
:401D400002218A431A70197801220A431A701022854B1A70854B1B681B0737D50822854B1A608C4B1B689B040CD414E08A4B1A688A4909688A188A490968C9B211701A6811
:401D800001321A60874B1B681B07EFD1814A1168854B0B401360854B1B689B0604D5744A117840230B4313700022814B1A60814A7E4B1A606E4B1A7820218A431A7019783B
:401DC00010220A431A70684B10221A70674B1B685B0641D50122784B1A60784B1B68DB060FD50F32684B1A60664B1A68644B1A605F4A117802230B43137012225A4B1A70FF
:401E000024E06F4B1B68644A12689B1A072B03D80422674B1A6011E0082B06D15D4A1368A02109020B43136008E05A4A1368802189010B43136008225D4B1A604C4A11781D
:401E400020230B4313701122474B1A705D4A494B1A6001225C4B1A605C4B1B681B072AD5574B1B684C4A1068181A0838082802D9002408200EE001240CE0474B1A6847491C
:401E800009688A1846490968C9B211701A6801321A6001380028F0D1002C08D03D4A1368802109020B4313600022414B1A6008223E4B1A6023E0454B1B685B071FD5384B0B
:401EC0001B68354A11683E4A126891420DD201213D4A1160304A1168304800684118DBB20B7013680133136006E0FFF7CFFB204A117840230B43137004222C4B1A60344BE0
:401F00001B68DB061FD494E01D4B1A68314B1B689A420CD21A4B1A682F4909688A181278D2B22E490A601A6801321A600BE0FF222A4B1A60114B1B789B0604D40F4A13785C
:401F40000133DBB213700C4B1B680F221340082BDAD10132224B1A606BE0C046A40100208C0E0640880E0640840200204C0F06409C020020400F064008020640A802002041
:401F8000A002002088020020880F064004020640FFFFFEFF600006408C020020A40200204003064008030640FF5FFFFFC00F0640C80F0640ED0F0000800E06406400064095
:401FC00090020020FF0F00006C000640CC0F06408C0F0640940200209802002040020640800F0640134A13685B005B0813601021114B1970114B1868114901401960186811
:4020000010490140196000230F490B600F490B600F49104B19601049104B19601049114B19601149114B19601368802109060B43136010BD000006408402002060000640E3
:40204000FF5FFFFFFFFCFFFFC80F0640880F0640ED0F0000800F0640F3070000C00F0640FF0F0000400F064017030000000F0640002243088B4274D303098B425FD3030A86
:402080008B4244D3030B8B4228D3030C8B420DD3FF22090212BA030C8B4202D31212090265D0030B8B4219D300E0090AC30B8B4201D3CB03C01A5241830B8B4201D38B037C
:4020C000C01A5241430B8B4201D34B03C01A5241030B8B4201D30B03C01A5241C30A8B4201D3CB02C01A5241830A8B4201D38B02C01A5241430A8B4201D34B02C01A524127
:40210000030A8B4201D30B02C01A5241CDD2C3098B4201D3CB01C01A524183098B4201D38B01C01A524143098B4201D34B01C01A524103098B4201D30B01C01A5241C30875
:402140008B4201D3CB00C01A524183088B4201D38B00C01A524143088B4201D34B00C01A5241411A00D20146524110467047FFE701B5002000F0FCF802BDC0460029F7D055
:4021800003B5FFF775FF0EBC4243891A1847C04603460B437FD4002243088B4274D303098B425FD3030A8B4244D3030B8B4228D3030C8B420DD3FF22090212BA030C8B42D9
:4021C00002D31212090265D0030B8B4219D300E0090AC30B8B4201D3CB03C01A5241830B8B4201D38B03C01A5241430B8B4201D34B03C01A5241030B8B4201D30B03C01AD7
:402200005241C30A8B4201D3CB02C01A5241830A8B4201D38B02C01A5241430A8B4201D34B02C01A5241030A8B4201D30B02C01A5241CDD2C3098B4201D3CB01C01A524126
:4022400083098B4201D38B01C01A524143098B4201D34B01C01A524103098B4201D30B01C01A5241C3088B4201D3CB00C01A524183088B4201D38B00C01A524143088B428C
:4022800001D34B00C01A5241411A00D201465241104670475DE0CA0F00D04942031000D34042534000229C4603098B422DD3030A8B4212D3FC22890112BA030A8B420CD349
:4022C000890192118B4208D3890192118B4204D389013AD0921100E08909C3098B4201D3CB01C01A524183098B4201D38B01C01A524143098B4201D34B01C01A5241030911
:402300008B4201D30B01C01A5241C3088B4201D3CB00C01A524183088B4201D38B00C01A5241D9D243088B4201D34B00C01A5241411A00D20146634652415B10104601D327
:402340004042002B00D54942704763465B1000D3404201B5002000F00BF802BD0029F8D003B5FFF715FF0EBC4243891A1847C0467047C046014B18687047C04654010020E3
:402380000E4B70B500251E1C0D4CE41AA410A54204D0AB00F35898470135F8E700F032FA084B00251E1C084CE41AA410A54204D0AB00F35898470135F8E770BD10280000B2
:4023C00010280000102800001828000008B5034B011C186800F05CF808BDC0465401002008B5034B011C186800F00CF808BDC04654010020031C8218934202D01970013308
:40240000FAE7704730B500293ED004390B68002B00DAC9181D4A1368141C002B02D14B60116031E099420DD208680A189A4203D11368C3180B6053684B60216024E08A42A1
:4024400003D8131C5A68002AF9D11D685C198C420BD10968691858181960904214D110685268091819605A600EE08C4202D90C23036009E008680C18944203D1146852685A
:40248000001908604A60596030BDC046AC010020032370B5CC1C9C430834051C0C2C01D20C2405E0002C03DA0C2300202B6042E08C42F9D3204A1368101C191C002913D0F8
:4024C0000A68121B0DD40B2A02D90A608B181FE08B4202D15A6802601BE04A685A600B1C17E00B1C4968E9E7144E3368002B03D1281C00F025F83060281C211C00F020F8E9
:40250000031C421CD0D00322C61C964386420AD11C60181C07210B301A1D8843821A0AD05142995007E0311A281C00F009F8431CBAD0331CECE770BDAC010020A8010020BF
:4025400038B50023064C051C081C2360FEF78EF9431C03D12368002B00D02B6038BDC046AC0200200000000000300F40000400400F40000402000F4053300F402F310F40C0
:4025800044320F4039330F4004400F4005410F4002420F400C430F4002600F40810F830D0C0116012A0136013E4040234101420549FF4AFF4BFF4F01501858045A045D01D6
:4025C0005F016040624064406540668068806A806C806E808302840286108704880E8B038F08900A94049601971399089B019C0EA11FA408A610AA1FAB01AE0EB010B20E4A
:40260000B318B401B507BE11C023C104C205C5ECC620C80BC9FFCAFFCBFFCD83CE03CF01D018D403D604D804D904DA04DB04DC11DD11DF05E040E240E440E540E680E88043
:40264000EA80EC80EE80014007280A100C080E110F40132015401620171019801B401D201E502404260827182E21360837203C043D403E12412042214521462049804F85D3
:4026800056205E605F05660267407D027F40C061C2B4C4E2CAA0CC60CEF0D0EED218D6F0D880DE80010308010C01100116011B011F022A012C012D0131033201580459045B
:4026C0005C115F0181018201830486028A048C018D038F08920497039B039C019E029F06A601AA01AB01B308B403B604B707BA20BB80BE40C046C5ECC620C80BC9FFCAFF0B
:40270000CBFFCF01D018D280D401D604D804D904DA04DB04DC11DD33DF01E040E240E440E540E680E880EA80EC80EE8000060160051006010A410B020C080F40101815802B
:402740001720180419901E202002214022402320278029102D4030183240341037A039403A013B423E01424049254B2053105985638072408340914092019F20A008A610F0
:40278000A940AE03AF40C0CFC239C4C6CA14CC3ECE89D001D204D60BD801EA08EE046F207120DA80DC208120A520AF20E220EE100322C00A180819041F04500459046708DE
:4027C000AB20AF02C60ED404D602D801010A100A030405060708090A0B0C0E0F101112131415161718191B1C1D1E1F2021222325262728292A2B2E2F3031323334350000EB
:4028000043000000F8B5C046F8BC08BC9E46704755020000E5080000F8B5C046F8BC08BC9E4670472D02000038280000C800002090000000580100000000000001FF000124
:40284000FF0001FF0001FF0001EEEE17B00200200000E02EC05D00001800000000366E0104040400000000000000000000000000000000000000000000000000000000009F
:4028800000000000002800000000000000000000000000000000000000000000000000000000000000000000000000000000000000000000000000000000000000000000F0
:4028C00000000000F40000200000000000000000000000000000000000000000000000000000000000000000000000000000000000000000000000000000000000000000C4
:402900000000000000000000000000000000000000000000000000000000000000000000000000000000000000000000000000000000000000000000000000000000000097
:402940000000000000000000000000000000000000000000000000000000000000000000000000000000000000000000000000000000000000000000000000000000000057
:402980000000000000000000000000000000000000000000000000000000000000000000000000000000000000000000000000000000000000000000000000000000000017
:4029C00000000000000000000000000000000000000000000000000000000000000000000000000000000000000000000000000000000000000000000000000000000000D7
:0200000490303A
:02000000FD3BC6
:0200000490402A
:200000000000000000000000000000000000000000000000000000000000000000000000E0
:0200000490501A
:0C000000000204C81193110104D50ECEBB
:0200000490600A
:0100000001FE
:00000001FF