:400000000010002011000000BD0C0000BD0C000008B500F06DFEC04638B5164C23688022D20213432360182001F080F82268124B13402360114A124B1A601022114B1A600E
:400040001032114B1A6080221206104B1A60002525600F4A0F4B1A600F4A104B1A6009200F4901F009F8092000F0F0FF0D4B1D6038BDC04600010B40FFFFFBFF06000080BF
:4000800004010B40080202400C02024008010B400E0000800000024013000080400002403D1300000C020B4010B572B6002410E02B4863001A195200821891881B195B00D4
:4000C0001A5AC31858880004104300F059FE0134E4B2012CECD9FF221206224B1A60224A224B1A60EE22224B1A6099231B04214A1360214A1360214A1360214A1360214B4D
:400100001978022002220A431A701F4C22783C218A4328390A432270197816220A431A700C221A4B1A601A4A1A4B1A6042221A4B1A601A4A1A4B1A601A4A1B4B1A601B4B82
:4001400018601B4A1B4B1A601B4B186003221B4B1A6021321A4B1A60FFF75EFF10BDC046D832000000000140FFEE00000C0001401000014000500F4010500F4020500F40A4
:4001800030500F4000700F4001700F4000000440B60D240008000440000104403000180008010440B66D03000802044000030440B10D000008030440180304400004044031
:4001C0000804044010B5064C2378002B07D1054B002B02D0044800E000BF0123237010BD58010020000000001C2E000008B5084B002B03D00748084900E000BF0748036874
:40020000002B00D108BD064B002BFBD09847F9E7000000001C2E00005C010020C80000200000000000B583B000F04CFC062000F08FFA00F0E3F800F0FBF800F0D7FC01F027
:40024000E5FB012000210022962300F029FA002001210022962300F023FA002000210122962300F01DFA01F0F1FB0F4801F0D0FB01F0ECFB62B6002000210022002300F0CA
:400280000FFA0CE0684600F071FA0098002804D0C0B2019BD9B200F009FB00F0E5FA00F07DFA0128EED1E6E7202E000030B589B00B2000F0D5FE7FE000F09AFD80B2FF259E
:4002C00005400395040A0294424B984211D104AC228805A8404902F02DFA05A800F0C0FC3E4801F095FB207801F0A0FB01F0AEFB62E03B4B1B78009305A83A49221C2B1CCA
:4003000002F018FA05A800F0ABFC374801F080FBE0B201F08BFB354801F07AFBE8B201F085FB01F093FB01F091FB123C252C3FD8A4002F4B1B599F4600F0FCFD2D4B1B7876
:4003400004A80380012100F0E7FD35E000F0F2FD284B5B7804A80380012100F0DDFD2BE000F0E8FD234B9B7804A80380012100F0D3FD21E000F0DEFD1E4BDB7804A80380DA
:40038000012100F0C9FD17E000F0D4FD194B1B7904A80380012100F0BFFD0DE000F0CAFD144B5B7904A80380012100F0B5FD03E00298039900F0FCF900F036FD002800D0D5
:4003C0007AE70D4B1A681A600B3000F03FFE09B030BDC046DABA0000E02E0000E82E0000C4010020F42E0000042F0000102F0000482E0000B4010020C00F074008B500F0F5
:4004000099FD00F025FD034800F0ECFC00F0DAFC08BDC046AD02000010B582B0041C00F089FD01A80480012100F076FD02B010BD08B5022001F06CFA022001F057FA05480C
:40044000042101F033FA01F04BFA01F01BFA01F001F808BDC001002010B582B001ABBE241C7059709A70EF22DA70191CEB3A002301F014F901F0A2F88307FBD501F09EF847
:40048000830505D401F094F8042803D0EE2402E0EE2400E0AA2401F0A9F8201C02B010BD70B586B0061C0D1C141CFFF7D5FFAA2806D1002000210122322300F0F1F805E09E
:4004C000012000210022322300F0EAF80094144B1B78019303A81349321C2B1C02F02AF903A800F0BDFB104801F092FA301C01F09DFA0E4801F08CFA281C01F097FA0C48C3
:4005000001F086FA201C01F091FA01F09FFA002000210022322300F0C3F806B070BDC046C4010020182F0000342F0000402F0000102F000070B582B00E1C151C01A90422FD
:40054000002301F021F901F039F8C307FBD501F035F8830511D401F025F804280FD101AB1B78BE2B0DD101ABDB78EF2B0BD101AB5C7834709B782B7006E0EE2404E0EE2431
:4005800002E0EE2400E0EE2401F030F8201C02B070BDC046F0B587B0061C0D1C141C1278FFF75AFFAA2807D1002000210122322300F076F8012306E0012000210022322367
:4005C00000F06EF8002322780092019302A82E49321C2B1C02F0AEF802A800F041FB2B4801F016FA301C01F021FA294801F010FA281C01F01BFA274801F00AFA207801F02F
:4006000015FA01F023FA17276F44301C391C221CFFF790FF3B78AB4207D1002001210022322300F03DF8012706E0012000210022322300F035F8002700200021002232232F
:4006400000F02EF80094019702A81349321C2B1C02F070F802A800F003FB104801F0D8F9301C01F0E3F90A4801F0D2F9281C01F0DDF9084801F0CCF9207801F0D7F901F00F
:40068000E5F907B0F0BDC046482F0000342F0000402F0000102F0000642F0000802F000070B50E1C151C1C1C002803D0002000F097FE02E0012000F093FE002E03D000202B
:4006C00000F09AFE02E0012000F096FE002D03D0002000F09DFE02E0012000F099FE201C00F002FD70BDC04670B582B0009101920368002B0BD0041C9D680C2001F04EFFDD
:400700006B46021C42CB42C285602368986002B070BDC04630B583B0041C009101920C2001F03CFF002806D06B46021C22CB22C200238360206003B030BDC04608B5002829
:4007400005D0031C006882681A6001F031FF08BD044A002313609B6053601072024A13707047C04674010020C401002010B5041C074801F04DF9074B187801F057F901F03A
:4007800065F9054B1B68221C03CB03C2201C10BD8C2F0000C401002074010020034B1B68002B01D1012000E0002070477401002010B582B000900191254B1A78254B1B7A9E
:4007C0009A4237D2FFF7EAFF01280DD0214C201D0099019AFFF788FF63689B6863601C4A1378013313700BE01A4C201C0099019AFFF790FF23686360154A13780133137066
:40080000154801F005F9124B187801F00FF9134801F0FEF8009BD8B201F008F9104801F0F7F86B46187901F001F901F00FF901F00DF90AE00B4801F0EBF8054B187801F0F6
:40084000F5F801F003F901F001F902B010BDC046C401002074010020982F0000402F0000102F0000A42F000008B50D48FFF766FF0C4A1378013B1370FFF790FF012802D1DE
:400880000022074B5A60084801F0C2F8054B187801F0CCF801F0DAF801F0D8F808BDC04674010020C4010020C82F000038B5041C0D1C7E4801F0ACF8201C01F0B7F87C4889
:4008C00001F0A6F8281C01F0B1F801F0BFF8452C00D9EAE0A300774AD3589F46764C08201221221CFFF756FE621C08201321FFF751FEA21C09202121FFF74CFED5E06F4CBE
:4009000010203521221CFFF745FE621C10203721FFF740FEA21C10203621FFF73BFEC4E0674C10203821221CFFF734FE621C10203921FFF72FFEA21C10204021FFF72AFE2E
:40094000E21C10204321FFF725FEAEE00820211C2A1CFFF7A5FDA8E00820211C2A1CFFF79FFDA2E0544B1878FFF756FD9DE0524B5878FFF751FD98E0EE20FFF74DFD94E0D4
:40098000EE20FFF749FD90E00820211C2A1CFFF787FD8AE00820211C2A1CFFF781FD84E00820211C2A1CFFF77BFD7EE00820211C2A1CFFF775FD78E00920211C2A1CFFF7E7
:4009C0006FFD72E03C4B9878FFF726FD6DE0EE20FFF722FD69E00920211C2A1CFFF760FD63E00920211C2A1CFFF75AFD5DE01020211C2A1CFFF754FD57E01020211C2A1C74
:400A0000FFF74EFD51E01020211C2A1CFFF748FD4BE01020211C2A1CFFF742FD45E01020211C2A1CFFF73CFD3FE0234BD878FFF7F3FC3AE0204B1879FFF7EEFC35E01E4B06
:400A40005879FFF7E9FC30E01B4B9879FFF7E4FC2BE0194BD879FFF7DFFC26E01020211C2A1CFFF71DFD20E01020211C2A1CFFF717FD1AE0104B187AFFF7CEFC15E00E4B61
:400A8000587AFFF7C9FC10E01620291CFFF70EFF1720291CFFF70AFF2320291CFFF706FF03E03420291CFFF701FF38BDEC300000102F0000D42F0000B4010020B7010020CB
:400AC000BA010020064B00221A705A709A70DA701A715A719A71DA711A725A727047C046B401002038B5051C002418E0002D03DA012000F02BFF02E0002000F027FF0120C2
:400B000000F030FF012000F007FB002000F02AFF012000F001FB6D006DB20134E4B2072CE4D938BD38B5051C0C1C002000F026FF012000F0F1FA281C00F02CFF60B2FFF733
:400B4000D1FF012000F01AFF012000F0E5FA38BD38B5051C01200021FFF7E4FF00240BE02B1C203B9A00D3181B19074A995C0120FFF7D8FF0134A4B2042CF1D90120002108
:400B8000FFF7D0FF38BDC046F830000010B5041C02E00134FFF7DCFF20780028F9D110BD10B50C1C802101430020FFF7BBFF07212140402319430020FFF7B4FF10BDC046A3
:400BC00010B500200021FFF7EBFF002405E001200021FFF7A7FF0134A4B2F823FF339C42F5D900200021FFF7DBFF10BD08B5002000F0F4FE012000F0E5FE012000F0FAFE0A
:400C0000012000F0D3FE012000F06EFA002000F0CDFE012000F068FA012000F0C7FE012000F062FA00202121FFF77CFF0020C021FFF778FF00200421FFF774FF0020132185
:400C4000FFF770FF00202021FFF76CFF00200C21FFF768FFFFF7B4FFFFF7B2FF08BDC04638B5041C00250CE06800401980001149401801356B005B199B0059180C2201F037
:400C800083FD042DF0DD0C48211C01F075FDFFF797FF00240BE0E1B20020FFF781FF63001B199B0003481818FFF770FF0134052CF1DD38BDC801002004020020FEE7C046C9
:400CC00008B5031C084A1068C318084A9A1A802A02DC054A136005E001F034FC0C2303600120404208BDC046CC000020F002002070B50F4E0F4D13E029686B68AC680022B4
:400D000002E001C901C30432A242FAD1E868002202E0002102C304328242FAD11035013E002EE9D101F014FCFFF77CFAFEE7C046010000008433000008B500230AE0032BEB
:400D400003D89A000A49505800E00A4899000A4A885001332F2BF2D9FFF7A6F90022074B1A608022D205116801230B43136008BD00000000BD0C000000000020C0000020CB
:400D800008B50A1C002101F01DFC08BD08B50B2000F05CF908BDC04608B500F055F908BD08B500F0F3F808BD08B5054A1368802109060B431360FFF7E9FFFFF7EDFF08BDCE
:400DC0000000074008B5064B1B78002B04D1FFF7E7FF0122024B1A70FFF7E6FF08BDC04680010020014B58607047C046800100200A4B1A680A4B1B689A420CD0084B1B684F
:400E000001331F2B00D100235900064A885A80B2034A136000E000207047C0469C0200205C02002018020020074B1B68074A1268934203D3054A1068181A04E0034A1068A3
:400E40001B1A1F33181C70479C0200205C02002008B50B2000F004F90B4B1A680B4B1A6000220B4B1A700B4B1A68802149020A431A601968084A0A401A60084A084B1A6004
:400E80000B2000F0E3F808BD5C0200209C0200201402002004030740FFFFFEFFED0F0000C00F074010B5154B1A68154B1B689A4208D1144B1B680F221340082B02D0124BA3
:400EC00018601AE00D4B1A6801321E2A00D100220B4B1B689A42FBD002230C490B6080B254000B49605205490A600A4A1268134203D1084A11680B43136010BD100200200D
:400F0000580200200802074040020740800F074060020020880F074070B5061C0D1C002404E06300985BFFF7BDFF0134AC42F8D370BDC04608B50B2000F092F80C4B1A684B
:400F40000C4B1A600C4A136802218B4313600B4B1A68802149020A431A601968084A0A401A60084A084B1A600B2000F06FF808BD5802002010020020880F0740040207400C
:400F8000FFFFFEFFF3070000800F074010B51A4A1A4B1A600D221A4B1A601A4B1A4A136007211A4A11601A4A13600024194B1C600B2000F055F80B20002100F06FF80B2006
:400FC000154900F059F8154B1C60154B1C60154B1C60154B1C600C22144B1A60144B1C60144B1C60144B1C60144B1C70144B1C60144B1C6010BDC0460B0000010000074083
:40100000200007400F010080000307400403074000020740040207405D1A0000880E0740C80E0740480F0740080F0740C80F0740880F07409C0200205C02002014020020B0
:4010400010020020580200207047C0461F2318401E3B8340181C014B1860704700E100E01F2318401E3B8340181C014B1860704780E100E001BE704738B5041C0D1C1F2848
:4010800002D90020FFF7F6FFA400034B9C4664442068256038BDC0464000002070B5041C0E1E032E02D90020FFF7E4FF1F2C02D90020FFF7DFFF03252540ED00063500F031
:4010C0004DFDA408A400074B9C46644423680322AA409343AE40351C1D43256000F042FD70BDC04600E400E010B5041C06E0084B186800F029FD074B9C46644480231B0270
:401100009C42F4D8024B5868604300F01DFD10BDD00000200080FFFF08B5034B1B7A584300F012FD08BDC046D0000020F0B557464E46C0B483B0041C00F010FD0190E71EEB
:401140002D2F74D83F4B1B78DBB2A34208D33E4B1B78DBB29A463D4B1B78DBB2994631E03B4B1B78DBB2A34208D33A4B1B78DBB29A46394B1B78DBB2994623E0374B1B78B6
:40118000DBB2A34208D3364B1B78DBB29A46354B1B78DBB2994615E0334B1B78DBB2A34208D3324B1B78DBB29A46314B1B78DBB2994607E02F4B1B78DBB29A462E4B1B782A
:4011C000DBB299462D4BDE5D2F2E09D92A2C07D919222B4B1A60052000F0B6FC192503E0274B1D683F231D40AE4206D2234BDA5D234B1A60052000F0A7FC1F4B9C46644491
:401200002378DBB21F4A13601F4B52461A601F4B4A461A600520FFF77FFFAE420AD9174BDA5D174B1A60052000F08EFC02E00020FFF720FF019800F095FC03B00CBC9146B7
:401240009A46F0BDC0F1FF0FC1F1FF0FC2F1FF0FC3F1FF0FC4F1FF0FC5F1FF0FC6F1FF0FC7F1FF0FC8F1FF0FC9F1FF0FCAF1FF0FCBF1FF0FCCF1FF0FCDF1FF0FE4320000FE
:401280002CFF0B4028FF0B401CFF0B4020FF0B40034B1868C0231B02184000D00120704700010B4008B500F059FC044A1368C02109020B43136000F055FC08BD00010B4092
:4012C00010B500F04BFC08490A68084B1A408024E40122430A600A6813408022120213430B6000F03FFC10BD00010B40FF3FFFFF70B5061C00F032FC041CFFF7C9FF002803
:4013000003D0FFF7DDFF012500E000250848331C0340084A106808490840184310601368012D01D1FFF7BEFF201C00F01BFC70BD0404040010020B40FBFBFBFF10B5244BA2
:401340001B685B0715D5234B1B685B070ED5224B9969042001401F4C22688A4322609A6982439A61DB68002B00D098470420FFF7BFFF174B1B685B0518D5164B1B685B0522
:4013800010D5154B99698022D2001140114802688A4302609969114A0A409A611B69002B00D098478020C000FFF7A2FF084B1B685B030CD5074B1B685B0304D5064B5B6902
:4013C000002B00D098478020C002FFF791FF10BD10020B40E000002088010020FFFBFFFF04490A68BF231A4080017F3B18401043086070470001044004490A68FB231A40E4
:401400008000F73B18401043086070470000044004490A68F7231A40C000EF3B18401043086070470000044008B50A20FFF70EFE08BDC04608B500F03BF808BD08B5044A5D
:401440001368802109060B431360FFF7EDFF08BD0000064008B5064B1B78002B04D1FFF7E9FF0122024B1A70FFF7E8FF08BDC046A40100200A4B1B68DB050DD5094B1B683C
:401480005B0409D4064B1968074A0A401A601A68802149000A431A600222044B1A6070470000064060000640FFFEFFFF6C00064010B5224A11680C230B4313600024204B70
:4014C0001C60204A204B1A60204B214A1360214A14602149214A1160214A1360214B1C600A20FFF7BDFD0A200121FFF7D7FD0A201D49FFF7C1FD1D4B1C601D4B1C604C2283
:40150000FF321C4B1A601422FF321B4B1A601B4B1C601B4B1C60043AFF3A1A4B1A701A4B1C701A4B1C601A4B1C601A4B1C701A4B1C801A4B1C601A4B1C6010BD700006403E
:4015400000000640770800C0600006400701008000030640040306402200FE00100306400002064004020640711B0000C80E0640880E0640480F0640080F0640C80F06407A
:40158000880F0640A0020020CC020020C8020020D0020020E8020020B0020020AC020020B4020020014B18687047C046AC020020014B18687047C046B402002010B50A209D
:4015C000FFF74EFD074B1B889BB21C1C064A1278920601D504241C430A20FFF737FD201C10BDC046B0020020A002002010B50A20FFF736FD044B1C88A4B200221A800A2023
:40160000FFF724FD201C10BDB002002010B51F4B1C6800F075F90028FBD0002000F082F91B4A13680F218B4313601A4A13685B005B081360A3060FD5002000F073F90A2095
:40164000FFF76AFD012000F06DF900F077F90028FBD00A20FFF760FD002000F063F90A20FFF75AFD01220C4B1A600A4A1368802109060B43136006490B680F229343013AAB
:4016800013430B60012000F04DF910BD64000640100001400000064068000640F0B583B001900C1C171C1D1C002919D0284B1B78102B0AD10A20FFF7D3FC264B1B68DB0766
:4016C00001D508260FE000260DE0214B1B78602B08D1214A138808218B431380002602E0042600E00426002E2BD12822184B1A7000231A4A13601A4A13601A4B1F601A4B3A
:401700001C60EAB2194B1A70019B5C00FF231C40114A138802218B431380154A154B1A604023154A1360154A1360EB0704D5FFF76DFF134B1C6004E0114B1C600222114B30
:401740001A600A20FFF782FC301C03B0F0BDC046A002002064000640B0020020BC020020B4020020C4020020A8020020B802002017030000000F0640800F0640880F064002
:401780004002064068000640F0B583B001900C1C171C1D1C002919D02D4B1B78102B0AD10A20FFF75DFC2B4B1B68DB0701D508260FE000260DE0264B1B78602B08D1264A91
:4017C000138808218B431380002602E0042600E00426002E35D129221D4B1A7000221F4B1A601F4A17601F4B1C60EBB21E490B70019B5C00FF231C400120044316490B88FC
:4018000083430B8019491A4B19601368072B03D80422184B1A6008E0174A1368802149000B4313600822134B1A60EB0704D5FFF7EDFE124B1C6004E0104B1C600222104B5C
:401840001A600A20FFF702FC301C03B0F0BDC046A002002064000640B0020020AC020020C0020020A4020020B802002017030000000F0640C80F06406000064040020640D6
:401880006800064010B50A20FFF7EAFB064B1C780F229443197820320A401A700A20FFF7D5FB201C10BDC046CC02002038B500280ED00D1C041C0A20FFF7D2FB054B1C602A
:4018C000054B1D600022054B1A600A20FFF7BEFB38BDC046E4020020E0020020D00200200022014B1A607047D0020020034A136838218B43C000184310607047080404404F
:40190000024B18688007C00F7047C04604040440034A136807218B43184310607047C04608040440031C04490868FE2202400120184010430860704700040440024B1868A7
:40194000012318407047C0460404044004490A68F7231A40C000EF3B18401043086070470002044004490A68FB231A408000F73B18401043086070470002044004490A68FD
:40198000DF231A404001BF3B18401043086070470002044004490A68EF231A400001DF3B184010430860704700020440031C04490868FE2202400120184010430860704701
:4019C0000000044004490A68FD231A404000FB3B184010430860704700020440031C04490868FE220240012018401043086070470002044004490A68FD231A404000FB3BC6
:401A00001840104308607047000004407047C04638B5051C0078012404E000F091FC285D0134E4B20028F8D138BDC04638B5041C0309054DE85C00F083FC0F231C40285D62
:401A400000F07EFC38BDC0461433000008B50D2000F076FC0A2000F073FC08BD08B5284B1B68002B00D09847264B1B685B071ED5254B1B6801331F2B00D10023234A1268FE
:401A8000934205D1224B1B682022224B1A7007E01F4A126892B258001F4942521A4A13601E4B1B681B07E3D104221D4B1A601D4B1B689B0722D51C4B1A681C4B1B689A421C
:401AC00014D01A4B1B6801331E2B00D100235900174A8A5A92B217490A60144A1360164B1B680F221340082BE5D104E0134A136802218B4313600222114B1A6008BDC046F6
:401B000084010020CC0F07409C0200205C02002040030740140200201802002008030740C00F07408C0F07401002002058020020600200204002074008020740880F074078
:401B4000800F0740000000000230800804D0C0460138FDD1C046C046C0467047EFF3108072B6704780F310887047C046C046C04610B5C54B1B68002B00D09847C34B1B6843
:401B8000DB0702D50022C24B1A60C24B1B789B066ED5C14B1B68DB0507D5C04A1188C0239B000B431380012300E00023BA4A1268D20706D5B94A118890239B000B431380CE
:401BC0000123B74A1268920706D5B44A1188A0239B000B4313800123002B6CD0AD4A1278D20701D5012200E00222AC49088802430A80A84A1278120736D5A94B1B689B070D
:401C000004D50022A64B1A6001230CE0A54B1B68DB0505D4A04B1B68DB0703D4002302E0002300E00123002B1AD09F4A1168802040020143116010689C49014011609C49AD
:401C400008689C4A02400A609B499C4A116000229B490A609B490A6010218E4A11702AE000218C4A117026E000218A4A117022E08C4B1A680223FF331A421BD0854B1B7885
:401C8000DB0709D5904B1A7802218A431A70197809220A431A7008E08B4B1A7820218A431A70197890220A431A700022794B1A70002300E00023774A1278920600D45AE160
:401CC000754A1268D20611D510227C4B1A60714B1B78DB0701D5012300E002236F4A11880B43138010226B4B1A7000E3694A1278120720D5684A126892070AD502226F4BF5
:401D00001A60664A118888239B000B431380012311E0604A1278D20703D525215D4A117009E024215B4A1170684A1268002A02D01439644A1160574A1278520700D4F0E041
:401D4000544A1278D20749D5614A1268120727D5604A1268604909680F240C405F4909686418141B082C09D8002C16D1504A1168504B0B401360012308340EE008240CE08F
:401D8000564A116856480068411856480068C0B20870116801311160013C002CF0D119E04B4A1268520715D54C4A11684C48006841184C480068C0B20870116801311160C4
:401DC0001168444A1268914203D20421344A116000E001234449454A1160A2E02E4A1268920726D50222354B1A60414A13680F211940136880221202134000D00123CB1805
:401E00003C4A1168CB1A136012683B4B1A60234A118884239B000B431380234B1A68802149020A431A601968204A0A401A60012377E0324A1268D20612D469E02D4A1168EE
:401E4000224A1268914211D22A4A11682C48006841180978C9B22B480160116801311160234A12680F210A40082AE7D1214A1168164A1268914202D14021124A1160224970
:401E8000224A11604DE0C046A80100208C0E0640880E0640A00200200C0F0640B0020020680006404C0F064004020640FFFFFEFF60000640FFFEFFFF17030000000F0640F2
:401EC000C80F0640880F0640CC020020C4020020CC0F0640C002002008030640AC020020A402002040030640ED0F0000C00F064008020640BC020020B40200208C0F0640AD
:401F0000A802002040020640F3070000800F0640BE4A1268520604D5BD4B1A68BD4B1A600123002B00D1E2E1BB4A1168BB4B0B4013600023BA4A1360BA4A1360BA4B1B78F3
:401F40009B070ED5B94B1B78DB0701D5092300E00A23B74A11880B4313806022B34B1A70C5E1B44B1B689B0601D5182200E01022B14B1A60BBE1AD4B1B78DB0600D48FE122
:401F8000AE4B1B689B073ED50222AD4B1A60AD4A13680F211940136880221202134000D00123CB18A84A1278D2B29A4205D9A74A117804230B43137006E0A34A12789B1AC6
:401FC000A3490A68D31A0B60A14B1A68A14B1A600023944A13609C4A13709F4B1A68802149020A431A6019689C4A0A401A60974B1A7802218A431A70197801220A431A70B7
:4020000010228A4B1A708D4B1B681B0737D508228B4B1A60804B1B689B040CD414E0904B1A68904909688A188F490968C9B211701A6801321A608D4B1B681B07EFD1764A91
:4020400011688B4B0B4013608A4B1B689B0604D57E4A117840230B4313700022704B1A60854A844B1A60794B1A7820218A431A70197810220A431A706C4B10221A706F4BD8
:402080001B685B0641D501227C4B1A60694B1B68DB060FD50F32634B1A606E4B1A686C4B1A606A4A117802230B43137012225F4B1A7024E0724B1B68694A12689B1A072BFE
:4020C00003D80422564B1A6011E0082B06D1524A1368A02109020B43136008E04E4A1368802189010B43136008224D4B1A60574A117820230B43137011224C4B1A70614AC5
:402100004F4B1A600122604B1A60604B1B681B072AD55B4B1B68524A1068181A0838082802D9002408200EE001240CE04C4B1A684C4909688A184C490968C9B211701A68AA
:4021400001321A6001380028F0D1002C08D0324A1368802109020B4313600022304B1A600822444B1A6023E0484B1B685B071FD53D4B1B683A4A1168414A126891420DD2B0
:402180000121414A1160364A1168364800684118DBB20B7013680133136006E0FFF76AF92A4A117840230B4313700422314B1A60164B1B68DB061FD499E0254B1A68344B71
:4021C0001B689A420CD2224B1A68324909688A181278D2B230490A601A6801321A600BE0FF222D4B1A60184B1B789B0604D4164A13780133DBB21370124B1B680F22134005
:40220000082BDAD10132254B1A6070E08C0F0640BC020020B402002060000640FFFEFFFFC80F0640880F0640B8020020A0020020B002002064000640680006404C0F0640BC
:40224000400F064008020640E8020020CC020020DC020020C802002004020640FFFFFEFFD0020020E40200204003064008030640FF5FFFFFC00F0640ED0F0000800E06403F
:40228000E0020020FF0F00006C000640CC0F0640D4020020D802002040020640800F0640134A13685B005B0813601021114B1970114B1868114901401960186810490140C5
:4022C000196000230F490B600F490B600F49104B19601049104B19601049114B19601149114B19601368802109060B43136010BD00000640A002002060000640FF5FFFFF43
:40230000FFFCFFFFC80F0640880F0640ED0F0000800F0640F3070000C00F0640FF0F0000400F064017030000000F06400000000000000000000000000000000000000000B8
:40234000FEB5494652465B460EB407462E4909688A462E4A12682E48022100F061F803002A480068C0182A4900F05AF806001F3EB346234A126801219140C9430C00012569
:402380000026FFF7EBFB814651460B6823400B6058460430FFF7D8FB3800F040284090400B68234003430B605846FFF7CDFB0136072EF1D900200130012090400B68234010
:4023C00003430B6058460630FFF7BEFB4846FFF7C9FBC046C046C0460EBC894692469B46FEBDC046C046C046C046C046C046C046C046C046C046C046C046C046C046C046E8
:40240000EC000020E8000020E4000020DC00002080250000C046C046C046C046C046C046002243088B4274D303098B425FD3030A8B4244D3030B8B4228D3030C8B420DD3B0
:40244000FF22090212BA030C8B4202D31212090265D0030B8B4219D300E0090AC30B8B4201D3CB03C01A5241830B8B4201D38B03C01A5241430B8B4201D34B03C01A524117
:40248000030B8B4201D30B03C01A5241C30A8B4201D3CB02C01A5241830A8B4201D38B02C01A5241430A8B4201D34B02C01A5241030A8B4201D30B02C01A5241CDD2C309E7
:4024C0008B4201D3CB01C01A524183098B4201D38B01C01A524143098B4201D34B01C01A524103098B4201D30B01C01A5241C3088B4201D3CB00C01A524183088B4201D340
:402500008B00C01A524143088B4201D34B00C01A5241411A00D20146524110467047FFE701B5002000F00CF802BDC0460029F7D003B5FFF775FF0EBC4243891A1847C0460D
:402540007047C046014B18687047C046500100200E4B70B500251E1C0D4CE41AA410A54204D0AB00F35898470135F8E700F0F8FE084B00251E1C084CE41AA410A54204D0BE
:40258000AB00F35898470135F8E770BD6C3300006C3300006C3300007433000008B5034B011C186800F05CF808BDC0465001002008B5034B011C186800F00CF808BDC046F1
:4025C00050010020031C8218934202D019700133FAE7704730B500293ED004390B68002B00DAC9181D4A1368141C002B02D14B60116031E099420DD208680A189A4203D1CA
:402600001368C3180B6053684B60216024E08A4203D8131C5A68002AF9D11D685C198C420BD10968691858181960904214D110685268091819605A600EE08C4202D90C23E0
:40264000036009E008680C18944203D114685268001908604A60596030BDC046B0010020032370B5CC1C9C430834051C0C2C01D20C2405E0002C03DA0C2300202B6042E05E
:402680008C42F9D3204A1368101C191C002913D00A68121B0DD40B2A02D90A608B181FE08B4202D15A6802601BE04A685A600B1C17E00B1C4968E9E7144E3368002B03D1A5
:4026C000281C00F025F83060281C211C00F020F8031C421CD0D00322C61C964386420AD11C60181C07210B301A1D8843821A0AD05142995007E0311A281C00F009F8431C03
:40270000BAD0331CECE770BDB0010020AC01002038B50023064C051C081C2360FEF7D0FA431C03D12368002B00D02B6038BDC046EC0200200EB410B59DB002A90290086172
:402740000B48822488604861012040421FABC881084804CBA400006801938C8100F088F80023029A13701DB010BC08BC03B01847FFFFFF7F50010020031C0A7801311A70E2
:402780000133002AF9D17047031C30B5002A07D00C7801335D1E013A2C700131002CF5D19A18934203D0002119700133F9E730BDF0B58E6885B0071C0C1C03920193B342C9
:4027C00045D390238A89DB001A423DD003250969236801985B1A029363695D43EB0F5D19029B6D1001331B189D4200D21D1C381C53050FD5291CFFF733FF061E13D0029A08
:40280000216900F0BCFAA289184B134080221343A38111E02A1C00F0CFFA061E0CD1381C2169FFF7D7FE0C23402201203B60A38940421343A38117E0029B2661F6182660AD
:402840006561019EED1AA560019BB34200D2019E321C2068039900F09BFA0020A3689B1BA36023689E19266005B0F0BD7FFBFFFFF0B59FB0029005938B890E1C171C1B06B8
:4028800010D50B69002B0DD14021FFF7E9FE30603061002804D10C23029A01381360D0E040237361002306AD6B6120336B761033AB763C1C2378002B03D1E31B049312D059
:4028C00003E0252BF9D00134F4E7049B0298311C3A1CFFF76DFF431C00D1ACE06A69049B944663446B612378002B00D1A3E00122002352426A6002A95432521801342B60FA
:40290000EB60AB601370AB654F4F2178381C052200F02AFA002808D0C01B01278740381C2B68013418432860EEE72B68DA0604D55322202102A8121811701A0704D5532284
:402940002B2102A81218117022782A2A01D0099B0EE0059A111D12680591002A01DB099204E05242EA60022213432B60013409E02278303A092A04D80A214B4301349B184E
:40298000F6E7099323782E2B18D163782A2B09D1059B02341A1D1B680592002B0DDA01235B420AE0002301342278303A092A04D80A214B4301349B18F6E70793234F217845
:4029C000381C032200F0D0F9002807D0C01B40278740381C2B6801341843286021781C480622671C297600F0BFF9002812D0194B002B06D10722059B073393430833059393
:402A000014E005AB00930298291C321C124B00E000BF07E005AB00930298291C321C0E4B00F08AF80390039B013304D06B69039A9B186B613DE7B3890B985B0601D5012090
:402A400040421FB0F0BDC0462A330000303300003433000000000000B1270000F7B5171C01930A698B6800900C1C934200DA131C221C3B6043321278002A01D001333B6042
:402A800023689B0602D53B6802333B60062523681D401ED0231C43331B785A1E9341226892061CD53020E1184031C870211C5A1C45310978A21840320233D1700FE0221C8D
:402AC0000123009801991932089EB047431C0ED00135E3683A689B1A9D42F0DBDAE7221C009801994332089DA847431C02D10120404220E006232068E1683A6803400025C6
:402B0000042B03D18D1AEB43DB171D40A3682269934201DD9B1AED180027AF420ADA221C0123009801991A32089EB047431CDED00137F2E70020FEBDF0B58BB006920A1C5B
:402B400043320793059004920A7E0C1C109B6E2A00D1A8E011D8632A22D009D8002A00D1B2E0582A00D0C2E045310A707C4A4FE0642A1DD0692A1BD0B9E0732A00D1A7E099
:402B800009D86F2A29D0702A00D0B0E0202209680A43226037E0752A1FD0782A33D0A6E00E1C1A684236111D196013683370A1E021681A68080606D4490604D5111D19602A
:402BC0000023D55E02E0111D19601568002D3BDA2D23049A6D42137036E021681A68080606D4490604D51568111D1960ADB202E0111D196015685A4B227E03930A276F2AB8
:402C00001DD108271BE0221C782145321170554A19680392081D226818600D68100602D4500600D5ADB2D30702D520231A4322601027002D03D1202322689A432260231C70
:402C4000002243331A7002E00A27454B03936368A360002B03DB0422216891432160002D02D1049E002B0ED0049E281C391CFFF75DFC039B013E5B5C281C3370391CFFF723
:402C8000CFFB051EF1D1082F09D12368DB0706D563682269934202DC3023013E3370049B9B1B23612BE009681A68080607D4490605D5111D19601368A28A1A8004E0111DEB
:402CC0001960136862691A600023049E236116E01A68111D196016680021301C626800F043F8002801D0801B6060636803E0261C42363270012323610023049A1370079B67
:402D000005980093211C069B09AAFFF7A7FE431C02D10120404221E0236905980699321C079DA847431CF4D023689B0705D4099BE068984212DA181C10E00025E368099AA6
:402D40009B1A9D42F3DA221C0123059806991932079EB047431CDCD00135EFE70BB0F0BD3B3300004C330000C9B28218904204D003788B4202D00130F8E700207047002322
:402D800010B5934203D0CC5CC4540133F9E710BD10B5814208D28B18984205D29B1A013A09D3995C8154FAE70023934203D0CC5CC4540133F9E710BDF8B5061C0C1C151C44
:402DC000002904D1111CFFF74BFC041C18E0002A03D1FFF7FFFB2C1C12E000F013F8A8420ED2301C291CFFF73BFC071E07D0211C2A1CFFF7C4FF301C211CFFF7EBFB3C1CB3
:402E0000201CF8BD0B1F1A68101F002A04DA891804390B68D018043870470000000000003D3D3D3D3D20496E697469616C697A696E672050536F43204D6173746572203DF8
:402E40003D3D3D3D00000000380300004C030000B0030000B0030000B0030000B0030000B0030000B0030000B0030000B0030000B0030000B0030000B0030000B003000070
:402E8000B003000060030000B0030000B0030000B0030000B0030000B0030000B0030000B0030000B0030000B0030000B0030000B0030000B0030000B0030000B003000032
:402EC000B0030000B0030000B0030000B0030000B003000074030000880300009C030000533E202578000000533E3A2076616C3A200000003E532025347820253278202526
:402F0000316400003E533A20636D643A200000002076616C3A200000493E25322E31782025322E32782025322E32782025312E3164000000493E3A20616464723A20000064
:402F400020636D643A200000493E2025312E31782025322E32782025322E32782025312E316400003E492025312E31782025322E32782025322E32782025312E316400004D
:402F80003E493A20616464723A200000513D3A20636F756E743A2000512B3A20636F756E743A2000517E3A204552524F52212051756575652046554C4C21212120636F7561
:402FC0006E743A20000000002D513A20636F756E743A2000AA0A0000DC080000AA0A0000FE08000020090000AA0A0000AA0A0000AA0A0000AA0A0000AA0A0000AA0A000087
:40300000AA0A0000AA0A0000AA0A0000AA0A0000AA0A00004C09000058090000640900006E09000078090000800900008809000094090000A0090000AC090000AA0A000028
:40304000AA0A0000AA0A0000AA0A0000AA0A0000AA0A0000B8090000C4090000CE090000D6090000E2090000AA0A0000AA0A0000AA0A0000AA0A0000AA0A0000AA0A000065
:40308000AA0A0000AA0A0000AA0A0000AA0A0000AA0A0000EE090000FA090000060A0000120A00001E0A00002A0A0000340A00003E0A0000480A0000520A0000AA0A000022
:4030C000AA0A0000AA0A0000AA0A0000AA0A0000AA0A00005C0A0000680A0000740A00007E0A0000880A0000A20A0000483D3A20636D643A20000000000000000000005F64
:4031000000000007000700147F147F14242A7F2A12231308646236495522500005030000001C2241000041221C0014083E081408083E080800503000000808080808006012
:4031400060000020100804023E5149453E00427F400042615149462141454B311814127F1027454545393C4A49493001710905033649494936064949291E00363600000056
:40318000563600000814224100141414141400412214080201510906324979413E7E1111117E7F494949363E414141227F4141221C7F494949417F090909013E4149497A69
:4031C0007F0808087F00417F41002040413F017F081422417F404040407F020C027F7F0408107F3E4141413E7F090909063E4151215E7F09192946464949493101017F0120
:40320000013F4040403F1F2040201F3F4038403F631408146307087008076151494543007F41410002040810200041417F00040201020440404040400001020400205454F8
:4032400054787F484444383844444420384444487F3854545418087E0901020C5252523E7F0804047800447D40002040443D007F1028440000417F40007C041804787C08B6
:4032800004047838444444387C14141408081414187C7C080404084854545420043F4440203C4040207C1C2040201C3C4030403C44281028440C5050503C4464544C44000B
:4032C0000836410000007F000000413608001008081008784641467800300F40000400400F400004030405060708090A0B0C0E0F101112131415161718191B1C1D1E1F2060
:4033000021222325262728292A2B2E2F303132333435000030313233343536373839414243444546000000004300232D302B2000686C4C00656667454647003031323334B5
:403340003536373839414243444546003031323334353637383961626364656600000000F8B5C046F8BC08BC9E467047ED010000390D0000F8B5C046F8BC08BC9E46704783
:40338000C501000098330000C800002090000000980100000000000000000000F00200200000E02EC05D00001800000000366E01040404000001044001000000010000001E
:4033C0000000000000000000000000000000000000000000000000000000000000000000283300000000000000000000000000000000000000000000000000000000000072
:403400000000000000000000000000000000000000000000000000000000000000000000F0000020000000000000000000000000000000000000000000000000000000007C
:40344000000000000000000000000000000000000000000000000000000000000000000000000000000000000000000000000000000000000000000000000000000000004C
:40348000000000000000000000000000000000000000000000000000000000000000000000000000000000000000000000000000000000000000000000000000000000000C
:4034C00000000000000000000000000000000000000000000000000000000000000000000000000000000000000000000000000000000000000000000000000000000000CC
:40350000000000000000000000000000000000000000000000000000000000000000000000000000000000000000000000000000000000000000000000000000000000008B
:0200000490303A
:020000004C4171
:0200000490402A
:200000000000000000000000000000000000000000000000000000000000000000000000E0
:0200000490501A
:0C000000000204C81193110104D85DD463
:0200000490600A
:0100000001FE
:00000001FF