:400000000010002011000000D9070000D907000008B500F0FBFBC04638B5164C23688022D20213432360182000F076FD2268124B13402360114A124B1A601022114B1A605B
:400040001032114B1A6080221206104B1A60002525600F4A0F4B1A600F4A104B1A6009200F4900F0FFFC092000F0E6FC0D4B1D6038BDC04600010B40FFFFFBFF06000080D3
:4000800004010B40080202400C02024008010B400E000080000002401300008040000240290D00000C020B4010B572B6002410E0274863001A195200821891881B195B00F2
:4000C0001A5AC31858880004104300F0E7FB0134E4B2012CECD9FF2212061E4B1A601E4A1E4B1A60EE221E4B1A6099231B041D4A13601D4A13601D4A13601D4B197802200D
:4001000002220A431A701B4C22783C218A4328390A432270197816220A431A70164A174B1A600122164B1A60164A174B1A60174B1860174A174B1A60174B18600322174BCB
:400140001A602132164B1A60FFF766FF10BDC046681E000000000140FFEE00000C0001401000014000500F4010500F4030500F4000700F4001700F40800D240008000440BE
:4001800000010440020018000801044000030440B10D00000803044018030440000404400804044010B5064C2378002B07D1054B002B02D0044800E000BF0123237010BDD7
:4001C00050010020000000004C1D000008B5084B002B03D00748084900E000BF07480368002B00D108BD064B002BFBD09847F9E7000000004C1D000054010020C800002091
:400200000000000000B583B0062000F085F900F055F800F06DF8012000210022962300F023F9002001210022962300F01DF9002000210122962300F017F962B600200021EE
:400240000022002300F010F90AE0684600F06EF9009BD8B26B46197900F0B8F900F0A4F900F06EF90128F0D1E8E7C04600B585B000F052FB0128FBD100F04EFB002809D04F
:4002800000F044FB80B2FF2101400391000A029000F060F9AE2201AB1A8000F03DFB012805D100F041FB01A8012100F05BFB024B1A681A6005B000BDC00F074008B500F00B
:4002C0005FFB00F031FB034800F01AFB00F008FB08BDC0466D02000010B582B0041C00F04FFB01A80480012100F03CFB02B010BD08B50548042100F0F7FF01F00FF800F0C8
:40030000DFFF00F09DFD08BDB801002010B582B001AB01241C7059709A701722DA70191C133A002300F0D8FE00F066FE8307FBD500F062FE830505D400F030FE042803D026
:40034000EE2402E0EE2400E0AA2400F041FE00F06BFE201C02B010BD08B5FFF7D7FFAA2806D1002000210122322300F07DF805E0012000210022322300F076F800200021F9
:400380000022322300F070F808BDC04670B582B00E1C151C01A90422002300F013FF00F02BFEC307FBD500F027FE830511D400F0EFFD04280FD101AB1B78012B0DD101ABEA
:4003C000DB78172B0BD101AB5C7834709B782B7006E0EE2404E0EE2402E0EE2400E0EE2400F0E2FD00F020FE201C02B070BDC046F0B583B0071C0C1C161C1278FFF786FF8E
:40040000AA2806D1002000210122322300F02CF805E0012000210022322300F025F8002000210022322300F01FF86B46DD1D381C291C321CFFF7AAFF2B78A34206D100202C
:4004400001210022322300F00FF805E0012000210022322300F008F8002000210022192300F002F803B0F0BD70B50E1C151C1C1C002803D0002000F0A9FC02E0012000F01A
:40048000A5FC002E03D0002000F0ACFC02E0012000F0A8FC002D03D0002000F0AFFC02E0012000F0ABFC201C00F014FB70BDC04670B582B0009101920368002B0BD0041C7C
:4004C0009D680C2001F076FB6B46021C42CB42C285602368986002B070BDC04630B583B0041C009101920C2001F064FB002806D06B46021C22CB22C200238360206003B08D
:4005000030BDC04608B5002805D0031C006882681A6001F059FB08BD034A002313609B6053601072537270476C01002010B5034B1B68021C12CB12C210BDC0466C01002038
:40054000034B1B68002B01D1012000E0002070476C01002010B582B000900191114B5A7A1B7A9A421BD2FFF7EBFF01280CD00D4C201D0099019AFFF79BFF63689B686360D1
:40058000637A013363720AE0064C201C0099019AFFF7A4FF23686360637A0133637202B010BDC0466C01002010B5074C201CFFF7A9FF637A013B6372FFF7C2FF012802D137
:4005C0000022014B5A6010BD6C01002010B5452800D9FAE00C1C011C83007C4AD3589F467B4C08201221221CFFF702FF621C08201321FFF7FDFEA21C09202121FFF7F8FEBF
:40060000E3E0734CE21C08201421FFF7F1FE221D08201521FFF7ECFE621D09202221FFF7E7FED2E06A4CA21D10203521FFF7E0FEE21D10203721FFF7DBFE221C0832102036
:400640003621FFF7D5FEC0E0624C10203821221CFFF7CEFE962000F03DFA621C10203921FFF7C6FE962000F035FAA21C10204021FFF7BEFE962000F02DFAE21C10204321AF
:40068000FFF7B6FEA1E00820221CFFF765FE9CE00820221CFFF760FE97E04D4B1878FFF71BFE92E04A4B5878FFF716FE8DE0484BD878FFF711FE88E0454B1879FFF70CFEAD
:4006C00083E00820221CFFF747FE7EE00820221CFFF742FE79E00820221CFFF73DFE74E00820221CFFF738FE6FE00920221CFFF733FE6AE0364B9878FFF7EEFD65E0344BC9
:400700005879FFF7E9FD60E00920221CFFF724FE5BE00920221CFFF71FFE56E01020221CFFF71AFE51E01020221CFFF715FE4CE01020221CFFF710FE47E01020221CFFF715
:400740000BFE42E01020221CFFF706FE3DE0204B9879FFF7C1FD38E01D4BD879FFF7BCFD33E01B4B187AFFF7B7FD2EE0194B1878FFF7B2FD29E0174B5878FFF7ADFD24E0DE
:400780001020221CFFF7E8FD1FE01020221CFFF7E3FD1AE00F4B9878FFF79EFD15E00D4BD878FFF799FD10E01620211CFFF70EFF1720211CFFF70AFF2320211CFFF706FF3B
:4007C00003E03420211CFFF701FF10BD501D000078010020CC000020FEE7C04608B5031C084A1068C318084A9A1A802A02DC054A136005E001F0B2F90C230360012040425E
:4008000008BDC046D00000201002002070B50F4E0F4D13E029686B68AC68002202E001C901C30432A242FAD1E868002202E0002102C304328242FAD11035013E002EE9D1A0
:4008400001F092F9FFF7DEFCFEE7C04601000000CC1E000008B500230AE0032B03D89A000A49505800E00A4899000A4A885001332F2BF2D9FFF718FC0022074B1A60802204
:40088000D205116801230B43136008BD00000000D907000000000020C000002008B50A1C002101F09BF908BD08B50B2000F0C4F808BDC04608B500F0BDF808BD08B500F0DD
:4008C0006FF808BD08B5054A1368802109060B431360FFF7E9FFFFF7EDFF08BD0000074008B5064B1B78002B04D1FFF7E7FF0122024B1A70FFF7E6FF08BDC0468401002046
:40090000014B58607047C04684010020014B18687047C04640030740024B1B680F2018407047C04608030740054B1A68802149020A431A601968034A0A401A607047C04604
:4009400004030740FFFFFEFF044B1B680F221340082BF9D0024B18607047C046080207404002074070B5061C0D1C002404E06300985BFFF7E9FF0134AC42F8D370BDC046B3
:40098000054B1A68802149020A431A601968034A0A401A607047C04604020740FFFFFEFF10B5154A154B1A600D22154B1A60154B154A13600721154A1160154A13600024F4
:4009C000144B1C600B2000F041F80B20032100F05BF80B20104900F045F8104B1C60104B1C60104B1C60104B1C600C220F4B1A600F4B1C6010BDC0460B000001000007402B
:400A0000200007400F0100800003074004030740000207400402074061130000880E0740C80E0740480F0740080F0740C80F0740880F07407047C0461F2318401E3B8340B8
:400A4000181C014B1860704700E100E01F2318401E3B8340181C014B1860704780E100E001BE704738B5041C0D1C1F2802D90020FFF7F6FFA400034B9C46644420682560FE
:400A800038BDC0464000002070B5041C0E1E032E02D90020FFF7E4FF1F2C02D90020FFF7DFFF03252540ED00063500F06FFCA408A400074B9C46644423680322AA4093439F
:400AC000AE40351C1D43256000F064FC70BDC04600E400E010B5041C06E0084B186800F04BFC074B9C46644480231B029C42F4D8024B5868604300F03FFC10BDD4000020D4
:400B00000080FFFF08B5034B1B7A584300F034FC08BDC046D4000020F0B557464E46C0B483B0041C00F032FC0190E71E2D2F74D83F4B1B78DBB2A34208D33E4B1B78DBB211
:400B40009A463D4B1B78DBB2994631E03B4B1B78DBB2A34208D33A4B1B78DBB29A46394B1B78DBB2994623E0374B1B78DBB2A34208D3364B1B78DBB29A46354B1B78DBB209
:400B8000994615E0334B1B78DBB2A34208D3324B1B78DBB29A46314B1B78DBB2994607E02F4B1B78DBB29A462E4B1B78DBB299462D4BDE5D2F2E09D92A2C07D919222B4B59
:400BC0001A60052000F0D8FB192503E0274B1D683F231D40AE4206D2234BDA5D234B1A60052000F0C9FB1F4B9C4664442378DBB21F4A13601F4B52461A601F4B4A461A60A6
:400C00000520FFF77FFFAE420AD9174BDA5D174B1A60052000F0B0FB02E00020FFF720FF019800F0B7FB03B00CBC91469A46F0BDC0F1FF0FC1F1FF0FC2F1FF0FC3F1FF0FE0
:400C4000C4F1FF0FC5F1FF0FC6F1FF0FC7F1FF0FC8F1FF0FC9F1FF0FCAF1FF0FCBF1FF0FCCF1FF0FCDF1FF0F741E00002CFF0B4028FF0B401CFF0B4020FF0B40034B186891
:400C8000C0231B02184000D00120704700010B4008B500F07BFB044A1368C02109020B43136000F077FB08BD00010B4010B500F06DFB08490A68084B1A408024E401224361
:400CC0000A600A6813408022120213430B6000F061FB10BD00010B40FF3FFFFF70B5061C00F054FB041CFFF7C9FF002803D0FFF7DDFF012500E000250848331C0340084A1D
:400D0000106808490840184310601368012D01D1FFF7BEFF201C00F03DFB70BD0404040010020B40FBFBFBFF10B5244B1B685B0715D5234B1B685B070ED5224B99690420F3
:400D400001401F4C22688A4322609A6982439A61DB68002B00D098470420FFF7BFFF174B1B685B0518D5164B1B685B0510D5154B99698022D2001140114802688A430260C2
:400D80009969114A0A409A611B69002B00D098478020C000FFF7A2FF084B1B685B030CD5074B1B685B0304D5064B5B69002B00D098478020C002FFF791FF10BD10020B401A
:400DC000E40000208C010020FFFBFFFF04490A68BF231A4080017F3B18401043086070470001044004490A68FB231A408000F73B18401043086070470000044004490A684F
:400E0000F7231A40C000EF3B18401043086070470000044008B50A20FFF70EFE08BDC04608B500F03BF808BD08B5044A1368802109060B431360FFF7EDFF08BD0000064009
:400E400008B5064B1B78002B04D1FFF7E9FF0122024B1A70FFF7E8FF08BDC046A80100200A4B1B68DB050DD5094B1B685B0409D4064B1968074A0A401A601A688021490088
:400E80000A431A600222044B1A6070470000064060000640FFFEFFFF6C00064010B5224A11680C230B4313600024204B1C60204A204B1A60204B214A1360214A14602149A8
:400EC000214A1160214A1360214B1C600A20FFF7BDFD0A200321FFF7D7FD0A201D49FFF7C1FD1D4B1C601D4B1C604C22FF321C4B1A601422FF321B4B1A601B4B1C601B4B43
:400F00001C60043AFF3A1A4B1A701A4B1C701A4B1C601A4B1C601A4B1C701A4B1C801A4B1C601A4B1C6010BD7000064000000640770800C0600006400701008000030640E9
:400F4000040306402200FE00100306400002064004020640A1130000C80E0640880E0640480F0640080F0640C80F0640880F0640BC010020E8010020E4010020EC0100207F
:400F800004020020CC010020C8010020D0010020014B18687047C046C8010020014B18687047C046D001002008B50A20FFF74EFD0022054B1A60054A138801218B431380D7
:400FC0000A20FFF739FD08BDC8010020CC01002008B50A20FFF73AFD0022054B1A60054A138802218B4313800A20FFF725FD08BDD0010020CC01002010B50A20FFF726FDA5
:40100000074B1B889BB21C1C064A1278920601D504241C430A20FFF70FFD201C10BDC046CC010020BC01002010B50A20FFF70EFD044B1C88A4B200221A800A20FFF7FCFC55
:40104000201C10BDCC01002010B51F4B1C6800F06BF90028FBD0002000F06EF91B4A13680F218B4313601A4A13685B005B081360A3060FD5002000F05FF90A20FFF742FD54
:40108000012000F059F900F063F90028FBD00A20FFF738FD002000F04FF90A20FFF732FD01220C4B1A600A4A1368802109060B43136006490B680F229343013A13430B6099
:4010C000012000F039F910BD64000640100001400000064068000640F0B583B001900C1C171C1D1C002919D0284B1B78102B0AD10A20FFF7ABFC264B1B68DB0701D5082625
:401100000FE000260DE0214B1B78602B08D1214A138808218B431380002602E0042600E00426002E2BD12822184B1A7000231A4A13601A4A13601A4B1F601A4B1C60EAB2EB
:40114000194B1A70019B5C00FF231C40114A138802218B431380154A154B1A604023154A1360154A1360EB0704D5FFF76DFF134B1C6004E0114B1C600222114B1A600A206A
:40118000FFF75AFC301C03B0F0BDC046BC01002064000640CC010020D8010020D0010020E0010020C4010020D401002017030000000F0640800F0640880F0640400206404F
:4011C00068000640F0B583B001900C1C171C1D1C002919D02D4B1B78102B0AD10A20FFF735FC2B4B1B68DB0701D508260FE000260DE0264B1B78602B08D1264A1388082143
:401200008B431380002602E0042600E00426002E35D129221D4B1A7000221F4B1A601F4A17601F4B1C60EBB21E490B70019B5C00FF231C400120044316490B8883430B8034
:4012400019491A4B19601368072B03D80422184B1A6008E0174A1368802149000B4313600822134B1A60EB0704D5FFF7EDFE124B1C6004E0104B1C600222104B1A600A20CF
:40128000FFF7DAFB301C03B0F0BDC046BC01002064000640CC010020C8010020DC010020C0010020D401002017030000000F0640C80F064060000640400206406800064019
:4012C00010B50A20FFF7C2FB064B1C780F229443197820320A401A700A20FFF7ADFB201C10BDC046E801002038B500280ED00D1C041C0A20FFF7AAFB054B1C60054B1D602E
:401300000022054B1A600A20FFF796FB38BDC04600020020FC010020EC0100200022014B1A607047EC010020024B18688007C00F7047C04604040440031C04490868FE22F5
:4013400002400120184010430860704700040440024B1868012318407047C0460404044008B5034B1B68002B00D0984708BDC04688010020000000000230800804D0C04636
:401380000138FDD1C046C046C0467047EFF3108072B6704780F310887047C046C046C04610B5C54B1B68002B00D09847C34B1B68DB0702D50022C24B1A60C24B1B789B06D2
:4013C0006ED5C14B1B68DB0507D5C04A1188C0239B000B431380012300E00023BA4A1268D20706D5B94A118890239B000B4313800123B74A1268920706D5B44A1188A023CC
:401400009B000B4313800123002B6CD0AD4A1278D20701D5012200E00222AC49088802430A80A84A1278120736D5A94B1B689B0704D50022A64B1A6001230CE0A54B1B6858
:40144000DB0505D4A04B1B68DB0703D4002302E0002300E00123002B1AD09F4A1168802040020143116010689C49014011609C4908689C4A02400A609B499C4A11600022FF
:401480009B490A609B490A6010218E4A11702AE000218C4A117026E000218A4A117022E08C4B1A680223FF331A421BD0854B1B78DB0709D5904B1A7802218A431A70197874
:4014C00009220A431A7008E08B4B1A7820218A431A70197890220A431A700022794B1A70002300E00023774A1278920600D45AE1754A1268D20611D510227C4B1A60714B3A
:401500001B78DB0701D5012300E002236F4A11880B43138010226B4B1A7000E3694A1278120720D5684A126892070AD502226F4B1A60664A118888239B000B4313800123D4
:4015400011E0604A1278D20703D525215D4A117009E024215B4A1170684A1268002A02D01439644A1160574A1278520700D4F0E0544A1278D20749D5614A1268120727D5BE
:40158000604A1268604909680F240C405F4909686418141B082C09D8002C16D1504A1168504B0B401360012308340EE008240CE0564A116856480068411856480068C0B2C0
:4015C0000870116801311160013C002CF0D119E04B4A1268520715D54C4A11684C48006841184C480068C0B208701168013111601168444A1268914203D20421344A11603F
:4016000000E001234449454A1160A2E02E4A1268920726D50222354B1A60414A13680F211940136880221202134000D00123CB183C4A1168CB1A136012683B4B1A60234ACB
:40164000118884239B000B431380234B1A68802149020A431A601968204A0A401A60012377E0324A1268D20612D469E02D4A1168224A1268914211D22A4A11682C4800688F
:4016800041180978C9B22B480160116801311160234A12680F210A40082AE7D1214A1168164A1268914202D14021124A11602249224A11604DE0C046AC0100208C0E0640E0
:4016C000880E0640BC0100200C0F0640CC010020680006404C0F064004020640FFFFFEFF60000640FFFEFFFF17030000000F0640C80F0640880F0640E8010020E001002039
:40170000CC0F0640DC01002008030640C8010020C001002040030640ED0F0000C00F064008020640D8010020D00100208C0F0640C401002040020640F3070000800F06407F
:40174000BE4A1268520604D5BD4B1A68BD4B1A600123002B00D1E2E1BB4A1168BB4B0B4013600023BA4A1360BA4A1360BA4B1B789B070ED5B94B1B78DB0701D5092300E0FC
:401780000A23B74A11880B4313806022B34B1A70C5E1B44B1B689B0601D5182200E01022B14B1A60BBE1AD4B1B78DB0600D48FE1AE4B1B689B073ED50222AD4B1A60AD4A0C
:4017C00013680F211940136880221202134000D00123CB18A84A1278D2B29A4205D9A74A117804230B43137006E0A34A12789B1AA3490A68D31A0B60A14B1A68A14B1A60C2
:401800000023944A13609C4A13709F4B1A68802149020A431A6019689C4A0A401A60974B1A7802218A431A70197801220A431A7010228A4B1A708D4B1B681B0737D50822C4
:401840008B4B1A60804B1B689B040CD414E0904B1A68904909688A188F490968C9B211701A6801321A608D4B1B681B07EFD1764A11688B4B0B4013608A4B1B689B0604D5BE
:401880007E4A117840230B4313700022704B1A60854A844B1A60794B1A7820218A431A70197810220A431A706C4B10221A706F4B1B685B0641D501227C4B1A60694B1B68EA
:4018C000DB060FD50F32634B1A606E4B1A686C4B1A606A4A117802230B43137012225F4B1A7024E0724B1B68694A12689B1A072B03D80422564B1A6011E0082B06D1524AA8
:401900001368A02109020B43136008E04E4A1368802189010B43136008224D4B1A60574A117820230B43137011224C4B1A70614A4F4B1A600122604B1A60604B1B681B0793
:401940002AD55B4B1B68524A1068181A0838082802D9002408200EE001240CE04C4B1A684C4909688A184C490968C9B211701A6801321A6001380028F0D1002C08D0324ACF
:401980001368802109020B4313600022304B1A600822444B1A6023E0484B1B685B071FD53D4B1B683A4A1168414A126891420DD20121414A1160364A116836480068411871
:4019C000DBB20B7013680133136006E0FFF748FA2A4A117840230B4313700422314B1A60164B1B68DB061FD499E0254B1A68344B1B689A420CD2224B1A68324909688A18F6
:401A00001278D2B230490A601A6801321A600BE0FF222D4B1A60184B1B789B0604D4164A13780133DBB21370124B1B680F221340082BDAD10132254B1A6070E08C0F06405A
:401A4000D8010020D001002060000640FFFEFFFFC80F0640880F0640D4010020BC010020CC01002064000640680006404C0F0640400F06400802064004020020E801002015
:401A8000F8010020E401002004020640FFFFFEFFEC010020000200204003064008030640FF5FFFFFC00F0640ED0F0000800E0640FC010020FF0F00006C000640CC0F064079
:401AC000F0010020F401002040020640800F0640134A13685B005B0813601021114B1970114B1868114901401960186810490140196000230F490B600F490B600F49104B65
:401B000019601049104B19601049114B19601149114B19601368802109060B43136010BD00000640BC01002060000640FF5FFFFFFFFCFFFFC80F0640880F0640ED0F0000D5
:401B4000800F0640F3070000C00F0640FF0F0000400F064017030000000F0640014B18687047C046480100200E4B70B500251E1C0D4CE41AA410A54204D0AB00F358984705
:401B80000135F8E700F090F9084B00251E1C084CE41AA410A54204D0AB00F35898470135F8E770BDB41E0000B41E0000B41E0000BC1E000008B5034B011C186800F05CF8D1
:401BC00008BDC0464801002008B5034B011C186800F00CF808BDC04648010020031C8218934202D019700133FAE7704730B500293ED004390B68002B00DAC9181D4A136898
:401C0000141C002B02D14B60116031E099420DD208680A189A4203D11368C3180B6053684B60216024E08A4203D8131C5A68002AF9D11D685C198C420BD10968691858180F
:401C40001960904214D110685268091819605A600EE08C4202D90C23036009E008680C18944203D114685268001908604A60596030BDC046B4010020032370B5CC1C9C436A
:401C80000834051C0C2C01D20C2405E0002C03DA0C2300202B6042E08C42F9D3204A1368101C191C002913D00A68121B0DD40B2A02D90A608B181FE08B4202D15A68026056
:401CC0001BE04A685A600B1C17E00B1C4968E9E7144E3368002B03D1281C00F025F83060281C211C00F020F8031C421CD0D00322C61C964386420AD11C60181C07210B309E
:401D00001A1D8843821A0AD05142995007E0311A281C00F009F8431CBAD0331CECE770BDB4010020B001002038B50023064C051C081C2360FEF752FD431C03D12368002B13
:401D400000D02B6038BDC0460802002000000000CA070000E0050000020600002406000048060000CA070000CA070000CA070000CA070000CA070000CA070000CA070000F6
:401D8000CA070000CA070000CA070000CA07000086060000900600009A060000A4060000AE060000B8060000C2060000CC060000D6060000E0060000CA070000CA07000003
:401DC000CA070000CA070000CA070000CA070000EA060000F4060000FE0600000807000012070000CA070000CA070000CA070000CA070000CA070000CA070000CA070000D2
:401E0000CA070000CA070000CA070000CA0700001C07000026070000300700003A070000440700004E07000058070000620700006C07000076070000CA070000CA0700009C
:401E4000CA070000CA070000CA070000CA070000800700008A070000940700009E070000A8070000C207000000300F40000400400F400004030405060708090A0B0C0E0FD0
:401E8000101112131415161718191B1C1D1E1F2021222325262728292A2B2E2F303132333435000043000000F8B5C046F8BC08BC9E467047CD01000055080000F8B5C046B3
:401EC000F8BC08BC9E467047A5010000E01E0000C800002088000000C00000000000000000000000EAEAEAEA100200200000E02EC05D00001800000000366E01040404002D
:401F00000000000000000000000000000000000000000000000000000000000000000000A41E000000000000000000000000000000000000000000000000000000000000DF
:401F40000000000000000000000000000000000000000000000000000000000000000000E80000200000000000000000000000000000000000000000000000000000000059
:401F80000000000000000000000000000000000000000000000000000000000000000000000000000000000000000000000000000000000000000000000000000000000021
:401FC00000000000000000000000000000000000000000000000000000000000000000000000000000000000000000000000000000000000000000000000000000000000E1
:4020000000000000000000000000000000000000000000000000000000000000000000000000000000000000000000000000000000000000000000000000000000000000A0
:402040000000000000000000000000000000000000000000000000000000000000000000000000000000000000000000000000000000000000000000000000000000000060
:0200000490303A
:02000000E9090C
:0200000490402A
:200000000000000000000000000000000000000000000000000000000000000000000000E0
:0200000490501A
:0C000000000204C81193110104D1FA9C05
:0200000490600A
:0100000001FE
:00000001FF