:400000000010002011000000510700005107000008B500F0B7FBC04638B5164C23688022D20213432360182000F032FD2268124B13402360114A124B1A601022114B1A60F3
:400040001032114B1A6080221206104B1A60002525600F4A0F4B1A600F4A104B1A6009200F4900F0BBFC092000F0A2FC0D4B1D6038BDC04600010B40FFFFFBFF060000805B
:4000800004010B40080202400C02024008010B400E000080000002401300008040000240A10C00000C020B4010B572B6002410E0274863001A195200821891881B195B007B
:4000C0001A5AC31858880004104300F0A3FB0134E4B2012CECD9FF2212061E4B1A601E4A1E4B1A60EE221E4B1A6099231B041D4A13601D4A13601D4A13601D4B1978022051
:4001000002220A431A701B4C22783C218A4328390A432270197816220A431A70164A174B1A600122164B1A60164A174B1A60174B1860174A174B1A60174B18600322174BCB
:400140001A602132164B1A60FFF766FF10BDC046701E000000000140FFEE00000C0001401000014000500F4010500F4030500F4000700F4001700F40800D240008000440B6
:4001800000010440020018000801044000030440B10D00000803044018030440000404400804044010B5064C2378002B07D1054B002B02D0044800E000BF0123237010BDD7
:4001C00048010020000000009C1C000008B5084B002B03D00748084900E000BF07480368002B00D108BD064B002BFBD09847F9E7000000009C1C00004C010020C800002003
:400200000000000000B583B0062000F04BF900F055F800F06DF8012000210022962300F0E9F8002001210022962300F0E3F8002000210122962300F0DDF862B600200021D9
:400240000022002300F0D6F80AE0684600F034F9009BD8B26B46197900F07EF900F06AF900F034F90128F0D1E8E7C04600B585B000F00EFB0128FBD100F00AFB002809D0FA
:4002800000F000FB80B2FF2101400391000A029000F026F9EE2201AB1A8000F0F9FA012805D100F0FDFA01A8012100F017FB024B1A681A6005B000BDC00F074008B500F017
:4002C000CBFA00F019FB00F0EBFA024800F0D4FA08BDC0466D02000010B582B0041C00F00BFB01A80480012100F0F8FA02B010BD08B5022000F0BEFF022000F0A9FF0548CE
:40030000042100F085FF00F09DFF00F06DFF00F053FD08BDAC01002010B582B001AB01241C7059709A701722DA70191C133A002300F066FE00F0F4FD8307FBD500F0F0FDAF
:4003400083050AD400F0E6FD04280CD1002001210022192300F04EF805E0012000210022FF2300F047F800F0F3FD002000210022192300F03FF802B010BDC04630B583B088
:40038000041C151CAA22FFF7C7FF201C01A90422002300F0ABFE00F0C3FDC307FBD500F0BFFD830515D400F0AFFD042817D101AB1B78012B13D101ABDB78172B0FD101AB69
:4003C0009B782B70002001210022192300F012F805E0012000210022FF2300F00BF800F0B7FD002000210022192300F003F803B030BDC04670B50E1C151C1C1C002803D0D0
:40040000002000F09FFC02E0012000F09BFC002E03D0002000F0A2FC02E0012000F09EFC002D03D0002000F0A5FC02E0012000F0A1FC201C00F00AFB70BDC04670B582B04F
:40044000009101920368002B0BD0041C9D680C2001F058FB6B46021C42CB42C285602368986002B070BDC04630B583B0041C009101920C2001F046FB002806D06B46021C9E
:4004800022CB22C200238360206003B030BDC04608B5002805D0031C006882681A6001F03BFB08BD034A002313609B6053601072537270476401002010B5034B1B68021CE6
:4004C00012CB12C210BDC04664010020034B1B68002B01D1012000E0002070476401002010B582B000900191114B5A7A1B7A9A421BD2FFF7EBFF01280CD00D4C201D00990D
:40050000019AFFF79BFF63689B686360637A013363720AE0064C201C0099019AFFF7A4FF23686360637A0133637202B010BDC0466401002010B5074C201CFFF7A9FF637AC7
:40054000013B6372FFF7C2FF012802D10022014B5A6010BD6401002030B583B000256B46DD71732800D9ECE00C1C011C8300764AD3589F46754C08201221221CFFF7FEFEDD
:40058000621C08201321FFF7F9FEA21C09202121FFF7F4FED5E06D4CE21C08201421FFF7EDFE221D08201521FFF7E8FE621D09202221FFF7E3FEC4E00820221CFFF7ACFED4
:4005C000BFE00820221CFFF7A7FEBAE05F4B1878FFF782FEB5E05D4B5878FFF77DFEB0E05A4BD878FFF778FEABE0584B1879FFF773FEA6E00820221CFFF78EFEA1E0082065
:40060000221CFFF789FE9CE00820221CFFF784FE97E00820221CFFF77FFE92E00920221CFFF77AFE8DE0494B9878FFF755FE88E0464B5879FFF750FE83E00920221CFFF7E6
:400640006BFE7EE00920221CFFF766FE79E01020221CFFF761FE74E01020221CFFF75CFE6FE01020221CFFF757FE6AE01020221CFFF752FE65E01020221CFFF74DFE60E08A
:4006800010206B46DA1DFFF779FE5AE010206B46DA1DFFF773FE54E010206B46DA1DFFF76DFE4EE010206B46DA1DFFF767FE48E010206B46DA1DFFF761FE42E01020221CC9
:4006C000FFF72AFE3DE01020221CFFF725FE38E010206B46DA1DFFF751FE32E010206B46DA1DFFF74BFE2CE01620211CFFF734FF1720211CFFF730FF2320211CFFF72CFFF8
:400700001FE03420211CFFF727FF1AE00020002100220023FFF76EFE13E0012000210022231CFFF767FE0CE0002001210022231CFFF760FE05E0002000210122231CFFF7D9
:4007400059FE03B030BDC046A01C000070010020FEE7C04608B5031C084A1068C318084A9A1A802A02DC054A136005E001F09EF90C2303600120404208BDC046CC0000201A
:400780000002002070B50F4E0F4D13E029686B68AC68002202E001C901C30432A242FAD1E868002202E0002102C304328242FAD11035013E002EE9D101F07EF9FFF722FD6F
:4007C000FEE7C04601000000D41E000008B500230AE0032B03D89A000A49505800E00A4899000A4A885001332F2BF2D9FFF75CFC0022074B1A608022D205116801230B43C3
:40080000136008BD000000005107000000000020C000002008B50A1C002101F087F908BD08B50B2000F0C4F808BDC04608B500F0BDF808BD08B500F06FF808BD08B5054A83
:400840001368802109060B431360FFF7E9FFFFF7EDFF08BD0000074008B5064B1B78002B04D1FFF7E7FF0122024B1A70FFF7E6FF08BDC04678010020014B58607047C04649
:4008800078010020014B18687047C04640030740024B1B680F2018407047C04608030740054B1A68802149020A431A601968034A0A401A607047C04604030740FFFFFEFF09
:4008C000044B1B680F221340082BF9D0024B18607047C046080207404002074070B5061C0D1C002404E06300985BFFF7E9FF0134AC42F8D370BDC046054B1A6880214902BF
:400900000A431A601968034A0A401A607047C04604020740FFFFFEFF10B5154A154B1A600D22154B1A60154B154A13600721154A1160154A13600024144B1C600B2000F03C
:4009400041F80B20032100F05BF80B20104900F045F8104B1C60104B1C60104B1C60104B1C600C220F4B1A600F4B1C6010BDC0460B00000100000740200007400F010080AA
:4009800000030740040307400002074004020740B1120000880E0740C80E0740480F0740080F0740C80F0740880F07407047C0461F2318401E3B8340181C014B1860704732
:4009C00000E100E01F2318401E3B8340181C014B1860704780E100E001BE704738B5041C0D1C1F2802D90020FFF7F6FFA400034B9C4664442068256038BDC04640000020D3
:400A000070B5041C0E1E032E02D90020FFF7E4FF1F2C02D90020FFF7DFFF03252540ED00063500F05BFCA408A400074B9C46644423680322AA409343AE40351C1D4325606A
:400A400000F050FC70BDC04600E400E010B5041C06E0084B186800F037FC074B9C46644480231B029C42F4D8024B5868604300F02BFC10BDD00000200080FFFF08B5034B2F
:400A80001B7A584300F020FC08BDC046D0000020F0B557464E46C0B483B0041C00F01EFC0190E71E2D2F74D83F4B1B78DBB2A34208D33E4B1B78DBB29A463D4B1B78DBB2BF
:400AC000994631E03B4B1B78DBB2A34208D33A4B1B78DBB29A46394B1B78DBB2994623E0374B1B78DBB2A34208D3364B1B78DBB29A46354B1B78DBB2994615E0334B1B782D
:400B0000DBB2A34208D3324B1B78DBB29A46314B1B78DBB2994607E02F4B1B78DBB29A462E4B1B78DBB299462D4BDE5D2F2E09D92A2C07D919222B4B1A60052000F0C4FB70
:400B4000192503E0274B1D683F231D40AE4206D2234BDA5D234B1A60052000F0B5FB1F4B9C4664442378DBB21F4A13601F4B52461A601F4B4A461A600520FFF77FFFAE4213
:400B80000AD9174BDA5D174B1A60052000F09CFB02E00020FFF720FF019800F0A3FB03B00CBC91469A46F0BDC0F1FF0FC1F1FF0FC2F1FF0FC3F1FF0FC4F1FF0FC5F1FF0F8B
:400BC000C6F1FF0FC7F1FF0FC8F1FF0FC9F1FF0FCAF1FF0FCBF1FF0FCCF1FF0FCDF1FF0F7C1E00002CFF0B4028FF0B401CFF0B4020FF0B40034B1868C0231B02184000D069
:400C00000120704700010B4008B500F067FB044A1368C02109020B43136000F063FB08BD00010B4010B500F059FB08490A68084B1A408024E40122430A600A681340802274
:400C4000120213430B6000F04DFB10BD00010B40FF3FFFFF70B5061C00F040FB041CFFF7C9FF002803D0FFF7DDFF012500E000250848331C0340084A10680849084018432A
:400C800010601368012D01D1FFF7BEFF201C00F029FB70BD0404040010020B40FBFBFBFF10B5244B1B685B0715D5234B1B685B070ED5224B9969042001401F4C22688A43F1
:400CC00022609A6982439A61DB68002B00D098470420FFF7BFFF174B1B685B0518D5164B1B685B0510D5154B99698022D2001140114802688A4302609969114A0A409A61A4
:400D00001B69002B00D098478020C000FFF7A2FF084B1B685B030CD5074B1B685B0304D5064B5B69002B00D098478020C002FFF791FF10BD10020B40E0000020800100209B
:400D4000FFFBFFFF04490A68BF231A4080017F3B18401043086070470001044004490A68FB231A408000F73B18401043086070470000044004490A68F7231A40C000EF3B22
:400D800018401043086070470000044008B50A20FFF70EFE08BDC04608B500F03BF808BD08B5044A1368802109060B431360FFF7EDFF08BD0000064008B5064B1B78002B1C
:400DC00004D1FFF7E9FF0122024B1A70FFF7E8FF08BDC0469C0100200A4B1B68DB050DD5094B1B685B0409D4064B1968074A0A401A601A68802149000A431A600222044BA7
:400E00001A6070470000064060000640FFFEFFFF6C00064010B5224A11680C230B4313600024204B1C60204A204B1A60204B214A1360214A14602149214A1160214A1360A8
:400E4000214B1C600A20FFF7BDFD0A200321FFF7D7FD0A201D49FFF7C1FD1D4B1C601D4B1C604C22FF321C4B1A601422FF321B4B1A601B4B1C601B4B1C60043AFF3A1A4B25
:400E80001A701A4B1C701A4B1C601A4B1C601A4B1C701A4B1C801A4B1C601A4B1C6010BD7000064000000640770800C0600006400701008000030640040306402200FE0055
:400EC000100306400002064004020640F1120000C80E0640880E0640480F0640080F0640C80F0640880F0640B0010020DC010020D8010020E0010020F8010020C001002054
:400F0000BC010020C4010020014B18687047C046BC010020014B18687047C046C401002010B50A20FFF74EFD074B1B889BB21C1C064A1278920601D504241C430A20FFF782
:400F400037FD201C10BDC046C0010020B001002010B50A20FFF736FD044B1C88A4B200221A800A20FFF724FD201C10BDC001002010B51F4B1C6800F075F90028FBD0002010
:400F800000F082F91B4A13680F218B4313601A4A13685B005B081360A3060FD5002000F073F90A20FFF76AFD012000F06DF900F077F90028FBD00A20FFF760FD002000F07E
:400FC00063F90A20FFF75AFD01220C4B1A600A4A1368802109060B43136006490B680F229343013A13430B60012000F04DF910BD6400064010000140000006406800064012
:40100000F0B583B001900C1C171C1D1C002919D0284B1B78102B0AD10A20FFF7D3FC264B1B68DB0701D508260FE000260DE0214B1B78602B08D1214A138808218B431380C7
:40104000002602E0042600E00426002E2BD12822184B1A7000231A4A13601A4A13601A4B1F601A4B1C60EAB2194B1A70019B5C00FF231C40114A138802218B431380154A64
:40108000154B1A604023154A1360154A1360EB0704D5FFF76DFF134B1C6004E0114B1C600222114B1A600A20FFF782FC301C03B0F0BDC046B001002064000640C0010020E6
:4010C000CC010020C4010020D4010020B8010020C801002017030000000F0640800F0640880F06404002064068000640F0B583B001900C1C171C1D1C002919D02D4B1B78F6
:40110000102B0AD10A20FFF75DFC2B4B1B68DB0701D508260FE000260DE0264B1B78602B08D1264A138808218B431380002602E0042600E00426002E35D129221D4B1A7095
:4011400000221F4B1A601F4A17601F4B1C60EBB21E490B70019B5C00FF231C400120044316490B8883430B8019491A4B19601368072B03D80422184B1A6008E0174A136874
:40118000802149000B4313600822134B1A60EB0704D5FFF7EDFE124B1C6004E0104B1C600222104B1A600A20FFF702FC301C03B0F0BDC046B001002064000640C00100201D
:4011C000BC010020D0010020B4010020C801002017030000000F0640C80F064060000640400206406800064010B50A20FFF7EAFB064B1C780F229443197820320A401A708D
:401200000A20FFF7D5FB201C10BDC046DC01002038B500280ED00D1C041C0A20FFF7D2FB054B1C60054B1D600022054B1A600A20FFF7BEFB38BDC046F4010020F00100200A
:40124000E00100200022014B1A607047E0010020034A136838218B43C00018431060704708040440024B18688007C00F7047C04604040440034A136807218B431843106097
:401280007047C04608040440031C04490868FE2202400120184010430860704700040440024B1868012318407047C0460404044008B5034B1B68002B00D0984708BDC0462B
:4012C0007C010020000000000230800804D0C0460138FDD1C046C046C0467047EFF3108072B6704780F310887047C046C046C04610B5C54B1B68002B00D09847C34B1B6805
:40130000DB0702D50022C24B1A60C24B1B789B066ED5C14B1B68DB0507D5C04A1188C0239B000B431380012300E00023BA4A1268D20706D5B94A118890239B000B43138056
:401340000123B74A1268920706D5B44A1188A0239B000B4313800123002B6CD0AD4A1278D20701D5012200E00222AC49088802430A80A84A1278120736D5A94B1B689B0795
:4013800004D50022A64B1A6001230CE0A54B1B68DB0505D4A04B1B68DB0703D4002302E0002300E00123002B1AD09F4A1168802040020143116010689C49014011609C4936
:4013C00008689C4A02400A609B499C4A116000229B490A609B490A6010218E4A11702AE000218C4A117026E000218A4A117022E08C4B1A680223FF331A421BD0854B1B780E
:40140000DB0709D5904B1A7802218A431A70197809220A431A7008E08B4B1A7820218A431A70197890220A431A700022794B1A70002300E00023774A1278920600D45AE1E8
:40144000754A1268D20611D510227C4B1A60714B1B78DB0701D5012300E002236F4A11880B43138010226B4B1A7000E3694A1278120720D5684A126892070AD502226F4B7D
:401480001A60664A118888239B000B431380012311E0604A1278D20703D525215D4A117009E024215B4A1170684A1268002A02D01439644A1160574A1278520700D4F0E0CA
:4014C000544A1278D20749D5614A1268120727D5604A1268604909680F240C405F4909686418141B082C09D8002C16D1504A1168504B0B401360012308340EE008240CE018
:40150000564A116856480068411856480068C0B20870116801311160013C002CF0D119E04B4A1268520715D54C4A11684C48006841184C480068C0B208701168013111604C
:401540001168444A1268914203D20421344A116000E001234449454A1160A2E02E4A1268920726D50222354B1A60414A13680F211940136880221202134000D00123CB188D
:401580003C4A1168CB1A136012683B4B1A60234A118884239B000B431380234B1A68802149020A431A601968204A0A401A60012377E0324A1268D20612D469E02D4A116877
:4015C000224A1268914211D22A4A11682C48006841180978C9B22B480160116801311160234A12680F210A40082AE7D1214A1168164A1268914202D14021124A11602249F9
:40160000224A11604DE0C046A00100208C0E0640880E0640B00100200C0F0640C0010020680006404C0F064004020640FFFFFEFF60000640FFFEFFFF17030000000F064064
:40164000C80F0640880F0640DC010020D4010020CC0F0640D001002008030640BC010020B401002040030640ED0F0000C00F064008020640CC010020C40100208C0F0640CC
:40168000B801002040020640F3070000800F0640BE4A1268520604D5BD4B1A68BD4B1A600123002B00D1E2E1BB4A1168BB4B0B4013600023BA4A1360BA4A1360BA4B1B786D
:4016C0009B070ED5B94B1B78DB0701D5092300E00A23B74A11880B4313806022B34B1A70C5E1B44B1B689B0601D5182200E01022B14B1A60BBE1AD4B1B78DB0600D48FE1AB
:40170000AE4B1B689B073ED50222AD4B1A60AD4A13680F211940136880221202134000D00123CB18A84A1278D2B29A4205D9A74A117804230B43137006E0A34A12789B1A4E
:40174000A3490A68D31A0B60A14B1A68A14B1A600023944A13609C4A13709F4B1A68802149020A431A6019689C4A0A401A60974B1A7802218A431A70197801220A431A703F
:4017800010228A4B1A708D4B1B681B0737D508228B4B1A60804B1B689B040CD414E0904B1A68904909688A188F490968C9B211701A6801321A608D4B1B681B07EFD1764A1A
:4017C00011688B4B0B4013608A4B1B689B0604D57E4A117840230B4313700022704B1A60854A844B1A60794B1A7820218A431A70197810220A431A706C4B10221A706F4B61
:401800001B685B0641D501227C4B1A60694B1B68DB060FD50F32634B1A606E4B1A686C4B1A606A4A117802230B43137012225F4B1A7024E0724B1B68694A12689B1A072B86
:4018400003D80422564B1A6011E0082B06D1524A1368A02109020B43136008E04E4A1368802189010B43136008224D4B1A60574A117820230B43137011224C4B1A70614A4D
:401880004F4B1A600122604B1A60604B1B681B072AD55B4B1B68524A1068181A0838082802D9002408200EE001240CE04C4B1A684C4909688A184C490968C9B211701A6833
:4018C00001321A6001380028F0D1002C08D0324A1368802109020B4313600022304B1A600822444B1A6023E0484B1B685B071FD53D4B1B683A4A1168414A126891420DD239
:401900000121414A1160364A1168364800684118DBB20B7013680133136006E0FFF75CFA2A4A117840230B4313700422314B1A60164B1B68DB061FD499E0254B1A68344B06
:401940001B689A420CD2224B1A68324909688A181278D2B230490A601A6801321A600BE0FF222D4B1A60184B1B789B0604D4164A13780133DBB21370124B1B680F2213408D
:40198000082BDAD10132254B1A6070E08C0F0640CC010020C401002060000640FFFEFFFFC80F0640880F0640C8010020B0010020C001002064000640680006404C0F0640FA
:4019C000400F064008020640F8010020DC010020EC010020D801002004020640FFFFFEFFE0010020F40100204003064008030640FF5FFFFFC00F0640ED0F0000800E06406E
:401A0000F0010020FF0F00006C000640CC0F0640E4010020E801002040020640800F0640134A13685B005B0813601021114B1970114B186811490140196018681049014020
:401A4000196000230F490B600F490B600F49104B19601049104B19601049114B19601149114B19601368802109060B43136010BD00000640B001002060000640FF5FFFFFBC
:401A8000FFFCFFFFC80F0640880F0640ED0F0000800F0640F3070000C00F0640FF0F0000400F064017030000000F0640014B18687047C046440100200E4B70B500251E1C76
:401AC0000D4CE41AA410A54204D0AB00F35898470135F8E700F0ECF9084B00251E1C084CE41AA410A54204D0AB00F35898470135F8E770BDBC1E0000BC1E0000BC1E000049
:401B0000C41E000008B5034B011C186800F05CF808BDC0464401002008B5034B011C186800F00CF808BDC04644010020031C8218934202D019700133FAE7704730B5002918
:401B40003ED004390B68002B00DAC9181D4A1368141C002B02D14B60116031E099420DD208680A189A4203D11368C3180B6053684B60216024E08A4203D8131C5A68002A1A
:401B8000F9D11D685C198C420BD10968691858181960904214D110685268091819605A600EE08C4202D90C23036009E008680C18944203D114685268001908604A60596035
:401BC00030BDC046A8010020032370B5CC1C9C430834051C0C2C01D20C2405E0002C03DA0C2300202B6042E08C42F9D3204A1368101C191C002913D00A68121B0DD40B2AF4
:401C000002D90A608B181FE08B4202D15A6802601BE04A685A600B1C17E00B1C4968E9E7144E3368002B03D1281C00F025F83060281C211C00F020F8031C421CD0D0032224
:401C4000C61C964386420AD11C60181C07210B301A1D8843821A0AD05142995007E0311A281C00F009F8431CBAD0331CECE770BDA8010020A401002038B50023064C051C4F
:401C8000081C2360FEF766FD431C03D12368002B00D02B6038BDC046FC010020000000004207000074050000960500004207000042070000420700004207000042070000FF
:401CC0004207000042070000420700004207000042070000420700004207000042070000B8050000C2050000CC050000D6050000E0050000EA050000F4050000FE0500009C
:401D000008060000120600004207000042070000420700004207000042070000420700001C06000026060000300600003A06000044060000420700004207000042070000DE
:401D400042070000420700004207000042070000420700004207000042070000420700004E06000058060000620600006C06000076060000800600008C060000980600005D
:401D8000A4060000B0060000420700004207000042070000420700004207000042070000BC060000C6060000D0060000DC060000E80600000207000042070000420700003E
:401DC0004207000042070000420700004207000042070000420700004207000042070000420700004207000042070000420700004207000042070000420700004207000053
:401E00004207000042070000420700004207000042070000420700004207000042070000420700004207000042070000420700004207000042070000420700004207000012
:401E400042070000420700004207000042070000420700004207000042070000420700000C0700001A070000280700003607000000300F40000400400F4000040304050652
:401E80000708090A0B0C0E0F101112131415161718191B1C1D1E1F2021222325262728292A2B2E2F303132333435000043000000F8B5C046F8BC08BC9E467047CD0100006D
:401EC000CD070000F8B5C046F8BC08BC9E467047A5010000E81E0000C800002080000000B80000000000000000000000000200200000E02EC05D00001800000000366E0172
:401F0000040404000000000000000000000000000000000000000000000000000000000000000000AC1E0000000000000000000000000000000000000000000000000000CB
:401F4000000000000000000000000000000000000000000000000000000000000000000000000000E40000200000000000000000000000000000000000000000000000005D
:401F80000000000000000000000000000000000000000000000000000000000000000000000000000000000000000000000000000000000000000000000000000000000021
:401FC00000000000000000000000000000000000000000000000000000000000000000000000000000000000000000000000000000000000000000000000000000000000E1
:4020000000000000000000000000000000000000000000000000000000000000000000000000000000000000000000000000000000000000000000000000000000000000A0
:402040000000000000000000000000000000000000000000000000000000000000000000000000000000000000000000000000000000000000000000000000000000000060
:0200000490303A
:020000009BB9AA
:0200000490402A
:200000000000000000000000000000000000000000000000000000000000000000000000E0
:0200000490501A
:0C000000000204C81193110104D1AD4CA2
:0200000490600A
:0100000001FE
:00000001FF