:400000000010002011000000D1070000D107000008B500F0F7FBC04638B5164C23688022D20213432360182000F054FD2268124B13402360114A124B1A601022114B1A6091
:400040001032114B1A6080221206104B1A60002525600F4A0F4B1A600F4A104B1A6009200F4900F0DDFC092000F0C4FC0D4B1D6038BDC04600010B40FFFFFBFF0600008017
:4000800004010B40080202400C02024008010B400E000080000002401300008040000240E50C00000C020B4010B572B6002410E0274863001A195200821891881B195B0037
:4000C0001A5AC31858880004104300F0E3FB0134E4B2012CECD9FF2212061E4B1A601E4A1E4B1A60EE221E4B1A6099231B041D4A13601D4A13601D4A13601D4B1978022011
:4001000002220A431A701B4C22783C218A4328390A432270197816220A431A70164A174B1A600122164B1A60164A174B1A60174B1860174A174B1A60174B18600322174BCB
:400140001A602132164B1A60FFF766FF10BDC046601F000000000140FFEE00000C0001401000014000500F4010500F4030500F4000700F4001700F40800D240008000440C5
:4001800000010440020018000801044000030440B10D00000803044018030440000404400804044010B5064C2378002B07D1054B002B02D0044800E000BF0123237010BDD7
:4001C0005001002000000000F41C000008B5084B002B03D00748084900E000BF07480368002B00D108BD064B002BFBD09847F9E700000000F41C000054010020C800002043
:400200000000000000B583B000F052F900F04AF800F06AF862B6012000210022962300F029F9002001210022962300F023F9002000210122962300F01DF900200021002221
:40024000002300F0F3F800F035F801F05FF8002812D1053000F01CFC01F058F8002807D1202300938A3301932030AA2100F08EF901F04CF80028FBD000F0B8F80AE0684679
:4002800000F026F9009BD8B26B46197900F0AEF900F050F900F026F90128F0D1313000F0F7FBCAE708B500F059FB00F02BFB00F00BFB08BD00B583B000F01CFB002807D04A
:4002C00000F012FB80B2FF210140000A00F05EF903B000BD00B583B001AB1880181C012100F02EFB03B000BD08B5022000F0F0FF022000F0DBFF0548042100F0B1FF00F0F6
:40030000CFFF00F099FF00F079FD08BDA401002010B582B001AB01241C7059709A701722DA70191C133A002300F08CFE00F01AFE8307FBD500F016FE83050AD400F00CFEE8
:4003400004280CD1002001210022FF2300F06EF805E0012000210022FF2300F067F800F019FE002000210022FF2300F05FF802B010BDC04630B583B0041C151CAA22FFF75B
:40038000C7FF201C01A90422002300F0D1FE00F0E9FDC307FBD500F0E5FD830515D400F0D5FD042817D101AB1B78012B13D101ABDB78172B0FD101AB9B782B7000200121F4
:4003C0000022FF2300F032F805E0012000210022FF2300F02BF800F0DDFD002000210022FF2300F023F803B030BDC04600B583B000F01CFFC30614D500F04CFF04280CD138
:40040000094B1B78012B08D1074BDB78172B04D1054B9978587800F0B9F800F041FF00F00BFF03B000BDC046A401002070B50E1C151C1C1C002803D0002000F0A5FC02E097
:40044000012000F0A1FC002E03D0002000F0A8FC02E0012000F0A4FC002D03D0002000F0ABFC02E0012000F0A7FC201C00F010FB70BDC04600B583B0002803D071220092C7
:4004800001930EE0002903D072220092019308E0002A03D073220092019302E07022009201930098019900F071F803B000BDC0460023044A13609B60034A1360034A13705A
:4004C0007047C0469C010020A0010020A801002010B5034B1B68021C12CB12C210BDC0469C010020034B1B68002B01D1012000E0002070479C01002030B583B0041C0091D7
:4005000001920C2001F02AFB002806D06B46021C22CB22C200238360206003B030BDC04608B5002805D0031C006882681A6001F01FFB08BD08B50748FFF7F2FF064A1378D9
:40054000013B1370FFF7CEFF012802D10022034B1A6008BD9C010020A8010020A001002070B582B0009101920368002B0BD0041C9D680C2001F0F2FA6B46021C42CB42C20D
:4005800085602368986002B070BDC04610B582B000900191124B1B78052B1ED8FFF7A2FF01280DD00F4C201C0099019AFFF7D8FF23689B6823600A4A1378013313700CE0F7
:4005C000094C201C0099019AFFF796FF2268054B1A60034A13780133137002B010BDC046A8010020A00100209C01002030B583B000256B46DD71992800D9E1E00C1C011C20
:400600008300704AD3589F466F4C08201221221CFFF7B0FE621C08201321FFF7ABFECFE00820221CFFF774FECAE00820221CFFF76FFEC5E0644B1878FFF74CFEC0E0624B9B
:400640005878FFF747FEBBE008206B46DA1DFFF791FEB5E008206B46DA1DFFF78BFEAFE00820221CFFF754FEAAE00820221CFFF74FFEA5E00820221CFFF74AFEA0E008205A
:40068000221CFFF745FE9BE00920221CFFF740FE96E04D4B9878FFF71DFE91E009206B46DA1DFFF767FE8BE00920221CFFF730FE86E00920221CFFF72BFE81E01120221C2F
:4006C000FFF726FE7CE01120221CFFF721FE77E01120221CFFF71CFE72E01120221CFFF717FE6DE01120221CFFF712FE68E011206B46DA1DFFF73EFE62E011206B46DA1D2E
:40070000FFF738FE5CE011206B46DA1DFFF732FE56E011206B46DA1DFFF72CFE50E011206B46DA1DFFF726FE4AE01120221CFFF7EFFD45E01120221CFFF7EAFD40E01120C3
:400740006B46DA1DFFF716FE3AE011206B46DA1DFFF710FE34E01620211CFFF747FF1720211CFFF743FF2320211CFFF73FFF27E03420211CFFF73AFF22E000200021002281
:400780000023FFF753FE1BE0012000210022231CFFF74CFE14E0002001210022231CFFF745FE0DE0002000210122231CFFF73EFE06E00820221CFFF7ABFD201C00F006F84B
:4007C00003B030BDF81C0000CC0000207047C046FEE7C04608B5031C084A1068C318084A9A1A802A02DC054A136005E001F08AF90C2303600120404208BDC046D000002097
:40080000F801002070B50F4E0F4D13E029686B68AC68002202E001C901C30432A242FAD1E868002202E0002102C304328242FAD11035013E002EE9D101F06AF9FFF7E2FC4C
:40084000FEE7C04601000000C41F000008B500230AE0032B03D89A000A49505800E00A4899000A4A885001332F2BF2D9FFF71CFC0022074B1A608022D205116801230B4391
:40088000136008BD00000000D107000000000020C000002008B50A1C002101F073F908BD08B500F0A5F808BD08B500F067F808BD08B5044A1368802109060B431360FFF735
:4008C000EFFF08BD0000074008B5064B1B78002B04D1FFF7E9FF0122024B1A70FFF7E8FF08BDC0466C010020014B18687047C04640030740024B1B680F2018407047C04629
:4009000008030740054B1A68802149020A431A601968034A0A401A607047C04604030740FFFFFEFF044B1B680F221340082BF9D0024B18607047C04608020740400207409A
:4009400070B5061C0D1C002404E06300985BFFF7E9FF0134AC42F8D370BDC046054B1A68802149020A431A601968034A0A401A607047C04604020740FFFFFEFF0E4A0F4BDC
:400980001A600D220E4B1A600E4B0F4A136007210E4A11600E4A136000230E4A13600E4A13600E4A13600E4A13600E4A13600E4A13600E4A136070470B0000010000074020
:4009C000200007400F01008000030740040307400002074004020740880E0740C80E0740480F0740080F0740C80F0740880F07407047C0461F2318401E3B8340181C014BED
:400A00001860704700E100E01F2318401E3B8340181C014B1860704780E100E001BE704738B5041C0D1C1F2802D90020FFF7F6FFA400034B9C4664442068256038BDC046C3
:400A40004000002070B5041C0E1E032E02D90020FFF7E4FF1F2C02D90020FFF7DFFF03252540ED00063500F065FCA408A400074B9C46644423680322AA409343AE40351CA5
:400A80001D43256000F05AFC70BDC04600E400E010B5041C06E0084B186800F041FC074B9C46644480231B029C42F4D8024B5868604300F035FC10BDD40000200080FFFFF3
:400AC00008B5034B1B7A584300F02AFC08BDC046D4000020F0B557464E46C0B483B0041C00F028FC0190E71E2D2F74D83F4B1B78DBB2A34208D33E4B1B78DBB29A463D4B7C
:400B00001B78DBB2994631E03B4B1B78DBB2A34208D33A4B1B78DBB29A46394B1B78DBB2994623E0374B1B78DBB2A34208D3364B1B78DBB29A46354B1B78DBB2994615E0DD
:400B4000334B1B78DBB2A34208D3324B1B78DBB29A46314B1B78DBB2994607E02F4B1B78DBB29A462E4B1B78DBB299462D4BDE5D2F2E09D92A2C07D919222B4B1A600520CE
:400B800000F0CEFB192503E0274B1D683F231D40AE4206D2234BDA5D234B1A60052000F0BFFB1F4B9C4664442378DBB21F4A13601F4B52461A601F4B4A461A600520FFF77E
:400BC0007FFFAE420AD9174BDA5D174B1A60052000F0A6FB02E00020FFF720FF019800F0ADFB03B00CBC91469A46F0BDC0F1FF0FC1F1FF0FC2F1FF0FC3F1FF0FC4F1FF0F8D
:400C0000C5F1FF0FC6F1FF0FC7F1FF0FC8F1FF0FC9F1FF0FCAF1FF0FCBF1FF0FCCF1FF0FCDF1FF0F6C1F00002CFF0B4028FF0B401CFF0B4020FF0B40034B1868C0231B029B
:400C4000184000D00120704700010B4008B500F071FB044A1368C02109020B43136000F06DFB08BD00010B4010B500F063FB08490A68084B1A408024E40122430A600A68E3
:400C800013408022120213430B6000F057FB10BD00010B40FF3FFFFF70B5061C00F04AFB041CFFF7C9FF002803D0FFF7DDFF012500E000250848331C0340084A1068084984
:400CC0000840184310601368012D01D1FFF7BEFF201C00F033FB70BD0404040010020B40FBFBFBFF10B5244B1B685B0715D5234B1B685B070ED5224B9969042001401F4C5B
:400D000022688A4322609A6982439A61DB68002B00D098470420FFF7BFFF174B1B685B0518D5164B1B685B0510D5154B99698022D2001140114802688A4302609969114A51
:400D40000A409A611B69002B00D098478020C000FFF7A2FF084B1B685B030CD5074B1B685B0304D5064B5B69002B00D098478020C002FFF791FF10BD10020B40E4000020B3
:400D800070010020FFFBFFFF04490A68BF231A4080017F3B18401043086070470001044004490A68FB231A408000F73B18401043086070470000044004490A68F7231A403B
:400DC000C000EF3B18401043086070470000044008B50A20FFF70EFE08BDC04608B500F03BF808BD08B5044A1368802109060B431360FFF7EDFF08BD0000064008B5064BB0
:400E00001B78002B04D1FFF7E9FF0122024B1A70FFF7E8FF08BDC0468C0100200A4B1B68DB050DD5094B1B685B0409D4064B1968074A0A401A601A68802149000A431A602B
:400E40000222044B1A6070470000064060000640FFFEFFFF6C00064010B5224A11680C230B4313600024204B1C60204A204B1A60204B214A1360214A14602149214A1160D3
:400E8000214A1360214B1C600A20FFF7BDFD0A200321FFF7D7FD0A201D49FFF7C1FD1D4B1C601D4B1C604C22FF321C4B1A601422FF321B4B1A601B4B1C601B4B1C60043AA5
:400EC000FF3A1A4B1A701A4B1C701A4B1C601A4B1C601A4B1C701A4B1C801A4B1C601A4B1C6010BD7000064000000640770800C06000064007010080000306400403064097
:400F00002000FE0010030640000206400402064049130000C80E0640880E0640480F0640080F0640C80F0640880F0640A9010020D4010020D0010020D8010020F0010020A4
:400F4000B8010020B4010020BC010020014B18687047C046B4010020014B18687047C046BC01002010B50A20FFF74EFD074B1B889BB21C1C064A1278920601D504241C43A9
:400F80000A20FFF737FD201C10BDC046B8010020A901002010B50A20FFF736FD044B1C88A4B200221A800A20FFF724FD201C10BDB801002010B51F4B1C6800F081F90028A6
:400FC000FBD0002000F08EF91B4A13680F218B4313601A4A13685B005B081360A3060FD5002000F07FF90A20FFF76AFD012000F079F900F083F90028FBD00A20FFF760FD33
:40100000002000F06FF90A20FFF75AFD01220C4B1A600A4A1368802109060B43136006490B680F229343013A13430B60012000F059F910BD64000640100001400000064057
:4010400068000640F0B583B001900C1C171C1D1C002919D0284B1B78102B0AD10A20FFF7D3FC264B1B68DB0701D508260FE000260DE0214B1B78602B08D1214A138808213A
:401080008B431380002602E0042600E00426002E2BD12822184B1A7000231A4A13601A4A13601A4B1F601A4B1C60EAB2194B1A70019B5C00FF231C40114A138802218B43B5
:4010C0001380154A154B1A604023154A1360154A1360EB0704D5FFF76DFF134B1C6004E0114B1C600222114B1A600A20FFF782FC301C03B0F0BDC046A9010020640006409C
:40110000B8010020C4010020BC010020CC010020B0010020C001002017030000000F0640800F0640880F06404002064068000640F0B583B001900C1C171C1D1C002919D00F
:401140002D4B1B78102B0AD10A20FFF75DFC2B4B1B68DB0701D508260FE000260DE0264B1B78602B08D1264A138808218B431380002602E0042600E00426002E35D129223C
:401180001D4B1A7000221F4B1A601F4A17601F4B1C60EBB21E490B70019B5C00FF231C400120044316490B8883430B8019491A4B19601368072B03D80422184B1A6008E01E
:4011C000174A1368802149000B4313600822134B1A60EB0704D5FFF7EDFE124B1C6004E0104B1C600222104B1A600A20FFF702FC301C03B0F0BDC046A901002064000640E9
:40120000B8010020B4010020C8010020AC010020C001002017030000000F0640C80F0640600006404002064068000640014B1878C0B27047D401002010B50A20FFF7E4FB43
:40124000064B1C780F229443197820320A401A700A20FFF7CFFB201C10BDC046D401002038B500280ED00D1C041C0A20FFF7CCFB054B1C60054B1D600022054B1A600A200A
:40128000FFF7B8FB38BDC046EC010020E8010020D8010020014B18687047C046D80100200022014B1A607047D8010020034A136838218B43C00018431060704708040440E0
:4012C000024B18688007C00F7047C04604040440034A136807218B43184310607047C04608040440031C04490868FE2202400120184010430860704700040440024B1868EE
:40130000012318407047C04604040440024B1868012318407047C04604010440000000000230800804D0C0460138FDD1C046C046C0467047EFF3108072B6704780F3108819
:401340007047C046C046C04610B5C54B1B68002B00D09847C34B1B68DB0702D50022C24B1A60C24B1B789B066ED5C14B1B68DB0507D5C04A1188C0239B000B43138001238A
:4013800000E00023BA4A1268D20706D5B94A118890239B000B4313800123B74A1268920706D5B44A1188A0239B000B4313800123002B6CD0AD4A1278D20701D5012200E086
:4013C0000222AC49088802430A80A84A1278120736D5A94B1B689B0704D50022A64B1A6001230CE0A54B1B68DB0505D4A04B1B68DB0703D4002302E0002300E00123002B9C
:401400001AD09F4A1168802040020143116010689C49014011609C4908689C4A02400A609B499C4A116000229B490A609B490A6010218E4A11702AE000218C4A117026E0C8
:4014400000218A4A117022E08C4B1A680223FF331A421BD0854B1B78DB0709D5904B1A7802218A431A70197809220A431A7008E08B4B1A7820218A431A70197890220A43E8
:401480001A700022794B1A70002300E00023774A1278920600D45AE1754A1268D20611D510227C4B1A60714B1B78DB0701D5012300E002236F4A11880B43138010226B4B65
:4014C0001A7000E3694A1278120720D5684A126892070AD502226F4B1A60664A118888239B000B431380012311E0604A1278D20703D525215D4A117009E024215B4A11700C
:40150000684A1268002A02D01439644A1160574A1278520700D4F0E0544A1278D20749D5614A1268120727D5604A1268604909680F240C405F4909686418141B082C09D800
:40154000002C16D1504A1168504B0B401360012308340EE008240CE0564A116856480068411856480068C0B20870116801311160013C002CF0D119E04B4A1268520715D58D
:401580004C4A11684C48006841184C480068C0B208701168013111601168444A1268914203D20421344A116000E001234449454A1160A2E02E4A1268920726D50222354B4B
:4015C0001A60414A13680F211940136880221202134000D00123CB183C4A1168CB1A136012683B4B1A60234A118884239B000B431380234B1A68802149020A431A60196869
:40160000204A0A401A60012377E0324A1268D20612D469E02D4A1168224A1268914211D22A4A11682C48006841180978C9B22B480160116801311160234A12680F210A4009
:40164000082AE7D1214A1168164A1268914202D14021124A11602249224A11604DE0C046900100208C0E0640880E0640A90100200C0F0640B8010020680006404C0F0640B3
:4016800004020640FFFFFEFF60000640FFFEFFFF17030000000F0640C80F0640880F0640D4010020CC010020CC0F0640C801002008030640B4010020AC0100204003064071
:4016C000ED0F0000C00F064008020640C4010020BC0100208C0F0640B001002040020640F3070000800F0640BE4A1268520604D5BD4B1A68BD4B1A600123002B00D1E2E11C
:40170000BB4A1168BB4B0B4013600023BA4A1360BA4A1360BA4B1B789B070ED5B94B1B78DB0701D5092300E00A23B74A11880B4313806022B34B1A70C5E1B44B1B689B0663
:4017400001D5182200E01022B14B1A60BBE1AD4B1B78DB0600D48FE1AE4B1B689B073ED50222AD4B1A60AD4A13680F211940136880221202134000D00123CB18A84A1278EC
:40178000D2B29A4205D9A74A117804230B43137006E0A34A12789B1AA3490A68D31A0B60A14B1A68A14B1A600023944A13609C4A13709F4B1A68802149020A431A60196860
:4017C0009C4A0A401A60974B1A7802218A431A70197801220A431A7010228A4B1A708D4B1B681B0737D508228B4B1A60804B1B689B040CD414E0904B1A68904909688A1828
:401800008F490968C9B211701A6801321A608D4B1B681B07EFD1764A11688B4B0B4013608A4B1B689B0604D57E4A117840230B4313700022704B1A60854A844B1A60794BA0
:401840001A7820218A431A70197810220A431A706C4B10221A706F4B1B685B0641D501227C4B1A60694B1B68DB060FD50F32634B1A606E4B1A686C4B1A606A4A11780223E6
:401880000B43137012225F4B1A7024E0724B1B68694A12689B1A072B03D80422564B1A6011E0082B06D1524A1368A02109020B43136008E04E4A1368802189010B431360F5
:4018C00008224D4B1A60574A117820230B43137011224C4B1A70614A4F4B1A600122604B1A60604B1B681B072AD55B4B1B68524A1068181A0838082802D9002408200EE0D0
:4019000001240CE04C4B1A684C4909688A184C490968C9B211701A6801321A6001380028F0D1002C08D0324A1368802109020B4313600022304B1A600822444B1A6023E0CD
:40194000484B1B685B071FD53D4B1B683A4A1168414A126891420DD20121414A1160364A1168364800684118DBB20B7013680133136006E0FFF752FA2A4A117840230B43E6
:4019800013700422314B1A60164B1B68DB061FD499E0254B1A68344B1B689A420CD2224B1A68324909688A181278D2B230490A601A6801321A600BE0FF222D4B1A60184BAB
:4019C0001B789B0604D4164A13780133DBB21370124B1B680F221340082BDAD10132254B1A6070E08C0F0640C4010020BC01002060000640FFFEFFFFC80F0640880F0640BF
:401A0000C0010020A9010020B801002064000640680006404C0F0640400F064008020640F0010020D4010020E4010020D001002004020640FFFFFEFFD8010020EC010020FB
:401A40004003064008030640FF5FFFFFC00F0640ED0F0000800E0640E8010020FF0F00006C000640CC0F0640DC010020E001002040020640800F0640134A13685B005B0870
:401A800013601021114B1970114B1868114901401960186810490140196000230F490B600F490B600F49104B19601049104B19601049114B19601149114B1960136880219F
:401AC00009060B43136010BD00000640A901002060000640FF5FFFFFFFFCFFFFC80F0640880F0640ED0F0000800F0640F3070000C00F0640FF0F0000400F064017030000A7
:401B0000000F0640014B18687047C046480100200E4B70B500251E1C0D4CE41AA410A54204D0AB00F35898470135F8E700F038FA084B00251E1C084CE41AA410A54204D03C
:401B4000AB00F35898470135F8E770BDAC1F0000AC1F0000AC1F0000B41F000008B5034B011C186800F05CF808BDC0464801002008B5034B011C186800F00CF808BDC04693
:401B800048010020031C8218934202D019700133FAE7704730B500293ED004390B68002B00DAC9181D4A1368141C002B02D14B60116031E099420DD208680A189A4203D11C
:401BC0001368C3180B6053684B60216024E08A4203D8131C5A68002AF9D11D685C198C420BD10968691858181960904214D110685268091819605A600EE08C4202D90C232B
:401C0000036009E008680C18944203D114685268001908604A60596030BDC04698010020032370B5CC1C9C430834051C0C2C01D20C2405E0002C03DA0C2300202B6042E0C0
:401C40008C42F9D3204A1368101C191C002913D00A68121B0DD40B2A02D90A608B181FE08B4202D15A6802601BE04A685A600B1C17E00B1C4968E9E7144E3368002B03D1EF
:401C8000281C00F025F83060281C211C00F020F8031C421CD0D00322C61C964386420AD11C60181C07210B301A1D8843821A0AD05142995007E0311A281C00F009F8431C4D
:401CC000BAD0331CECE770BD980100209401002038B50023064C051C081C2360FEF77AFD431C03D12368002B00D02B6038BDC046F401002000000000C007000008060000DE
:401D0000C0070000C0070000C0070000C0070000C0070000C0070000C0070000C0070000C0070000C0070000C0070000C0070000C0070000C0070000200600002A0600006B
:401D4000340600003E0600004806000054060000600600006A060000740600007E060000C0070000C0070000C0070000C0070000C0070000C0070000880600009206000099
:401D80009C060000A8060000B2060000C0070000C0070000C0070000C0070000C0070000C0070000C0070000C0070000C0070000C0070000C0070000BC060000C606000000
:401DC000D0060000DA060000E4060000EE060000FA06000006070000120700001E070000C0070000C0070000C0070000C0070000C0070000C00700002A07000034070000EE
:401E00003E0700004A0700005607000070070000C0070000C0070000C0070000C0070000C0070000C0070000C0070000C0070000C0070000C0070000C0070000C0070000E4
:401E4000C0070000C0070000C0070000C0070000C0070000C0070000C0070000C0070000C0070000C0070000C0070000C0070000C0070000C0070000C0070000C0070000F2
:401E8000C0070000C0070000C0070000C0070000C0070000C0070000C0070000C0070000C0070000C0070000C0070000C0070000C0070000C00700007A0700008807000030
:401EC00096070000A4070000C0070000C0070000C0070000C0070000C0070000C0070000C0070000C0070000C0070000C0070000C0070000C0070000C0070000C0070000B8
:401F0000C0070000C0070000C0070000C0070000C0070000C0070000C0070000C0070000C0070000C0070000C0070000C0070000C0070000C0070000B2070000C00700003F
:401F4000C0070000C0070000C0070000C0070000C0070000C0070000C0070000BA07000000300F40000400400F400004030405060708090A0B0C0E0F101112131415161715
:401F800018191B1C1D1E1F2021222325262728292A2B2E2F303132333435000043000000F8B5C046F8BC08BC9E467047CD0100004D080000F8B5C046F8BC08BC9E46704743
:401FC000A5010000D81F0000C800002088000000A8000000000000000000000012132100F80100200000E02EC05D00001800000000366E01040404000000000000000000D9
:402000000000000000000000000000000000000000000000000000009C1F0000000000000000000000000000000000000000000000000000000000000000000000000000E5
:40204000000000000000000000000000000000000000000000000000E800002000000000000000000000000000000000000000000000000000000000000000000000000058
:402080000000000000000000000000000000000000000000000000000000000000000000000000000000000000000000000000000000000000000000000000000000000020
:4020C00000000000000000000000000000000000000000000000000000000000000000000000000000000000000000000000000000000000000000000000000000000000E0
:40210000000000000000000000000000000000000000000000000000000000000000000000000000000000000000000000000000000000000000000000000000000000009F
:40214000000000000000000000000000000000000000000000000000000000000000000000000000000000000000000000000000000000000000000000000000000000005F
:0200000490303A
:02000000EF66A9
:0200000490402A
:200000000000000000000000000000000000000000000000000000000000000000000000E0
:0200000490501A
:0C000000000204C81193110104D200F9A1
:0200000490600A
:0100000001FE
:00000001FF